Component: ARM Compiler 6.15 Tool: armlink [5dd79300]

==============================================================================

Section Cross References

    startup_stm32h750xx.o(STACK) refers (Special) to heapauxi.o(.text) for __use_two_region_memory
    startup_stm32h750xx.o(HEAP) refers (Special) to heapauxi.o(.text) for __use_two_region_memory
    startup_stm32h750xx.o(RESET) refers (Special) to heapauxi.o(.text) for __use_two_region_memory
    startup_stm32h750xx.o(RESET) refers to startup_stm32h750xx.o(STACK) for __initial_sp
    startup_stm32h750xx.o(RESET) refers to startup_stm32h750xx.o(.text) for Reset_Handler
    startup_stm32h750xx.o(RESET) refers to stm32h7xx_it.o(.text.NMI_Handler) for NMI_Handler
    startup_stm32h750xx.o(RESET) refers to stm32h7xx_it.o(.text.HardFault_Handler) for HardFault_Handler
    startup_stm32h750xx.o(RESET) refers to stm32h7xx_it.o(.text.MemManage_Handler) for MemManage_Handler
    startup_stm32h750xx.o(RESET) refers to stm32h7xx_it.o(.text.BusFault_Handler) for BusFault_Handler
    startup_stm32h750xx.o(RESET) refers to stm32h7xx_it.o(.text.UsageFault_Handler) for UsageFault_Handler
    startup_stm32h750xx.o(RESET) refers to stm32h7xx_it.o(.text.SVC_Handler) for SVC_Handler
    startup_stm32h750xx.o(RESET) refers to stm32h7xx_it.o(.text.DebugMon_Handler) for DebugMon_Handler
    startup_stm32h750xx.o(RESET) refers to stm32h7xx_it.o(.text.PendSV_Handler) for PendSV_Handler
    startup_stm32h750xx.o(RESET) refers to stm32h7xx_it.o(.text.SysTick_Handler) for SysTick_Handler
    startup_stm32h750xx.o(.text) refers (Special) to heapauxi.o(.text) for __use_two_region_memory
    startup_stm32h750xx.o(.text) refers to system_stm32h7xx.o(.text.SystemInit) for SystemInit
    startup_stm32h750xx.o(.text) refers to __main.o(!!!main) for __main
    startup_stm32h750xx.o(.text) refers to startup_stm32h750xx.o(HEAP) for Heap_Mem
==============================================================================

Removing Unused input sections from the image.

    Removing main.o(.text), (0 bytes).
    Removing main.o(.ARM.exidx.text.main), (8 bytes).
    Removing main.o(.ARM.exidx.text.SystemClock_Config), (8 bytes).
    Removing main.o(.ARM.exidx.text.Error_Handler), (8 bytes).
    Removing main.o(.ARM.use_no_argv), (4 bytes).
    Removing gpio.o(.text), (0 bytes).
    Removing gpio.o(.ARM.exidx.text.MX_GPIO_Init), (8 bytes).
    Removing spi.o(.text), (0 bytes).
    Removing spi.o(.ARM.exidx.text.MX_SPI2_Init), (8 bytes).
    Removing spi.o(.ARM.exidx.text.HAL_SPI_MspInit), (8 bytes).
    Removing spi.o(.text.HAL_SPI_MspDeInit), (52 bytes).
    Removing spi.o(.ARM.exidx.text.HAL_SPI_MspDeInit), (8 bytes).
    Removing tim.o(.text), (0 bytes).
    Removing tim.o(.ARM.exidx.text.MX_TIM1_Init), (8 bytes).
    Removing tim.o(.ARM.exidx.text.HAL_TIM_Base_MspInit), (8 bytes).
    Removing tim.o(.text.HAL_TIM_Base_MspDeInit), (32 bytes).
    Removing tim.o(.ARM.exidx.text.HAL_TIM_Base_MspDeInit), (8 bytes).
    Removing stm32h7xx_it.o(.text), (0 bytes).
==============================================================================

Image Symbol Table

    Local Symbols

    Symbol Name                              Value     Ov Type        Size  Object(Section)

    ../clib/angel/boardlib.s                 0x00000000   Number         0  boardinit1.o ABSOLUTE
    ../clib/angel/boardlib.s                 0x00000000   Number         0  boardinit2.o ABSOLUTE
    ../clib/angel/boardlib.s                 0x00000000   Number         0  boardinit3.o ABSOLUTE
    ../clib/angel/boardlib.s                 0x00000000   Number         0  boardshut.o ABSOLUTE
    ../clib/angel/handlers.s                 0x00000000   Number         0  __scatter_copy.o ABSOLUTE
    ../clib/angel/handlers.s                 0x00000000   Number         0  __scatter_zi.o ABSOLUTE
    ../clib/angel/kernel.s                   0x00000000   Number         0  __rtentry.o ABSOLUTE
    ../clib/angel/kernel.s                   0x00000000   Number         0  __rtentry2.o ABSOLUTE
    ../clib/angel/kernel.s                   0x00000000   Number         0  __rtentry4.o ABSOLUTE
    ../clib/angel/kernel.s                   0x00000000   Number         0  rtexit.o ABSOLUTE
    ../clib/angel/kernel.s                   0x00000000   Number         0  rtexit2.o ABSOLUTE
    ../clib/angel/rt.s                       0x00000000   Number         0  rt_errno_addr.o ABSOLUTE
    ../clib/angel/rt.s                       0x00000000   Number         0  rt_errno_addr_intlibspace.o ABSOLUTE
    ../clib/angel/rt.s                       0x00000000   Number         0  rt_ctype_table.o ABSOLUTE
    ../clib/angel/rt.s                       0x00000000   Number         0  rt_locale.o ABSOLUTE
    ../clib/angel/rt.s                       0x00000000   Number         0  rt_locale_intlibspace.o ABSOLUTE
    ../clib/angel/rt.s                       0x00000000   Number         0  rt_raise.o ABSOLUTE
    ../clib/angel/scatter.s                  0x00000000   Number         0  __scatter.o ABSOLUTE
    ../clib/angel/startup.s                  0x00000000   Number         0  __main.o ABSOLUTE
    ../clib/angel/sys.s                      0x00000000   Number         0  libspace.o ABSOLUTE
    ../clib/angel/sys.s                      0x00000000   Number         0  sys_stackheap_outer.o ABSOLUTE
    ../clib/angel/sys.s                      0x00000000   Number         0  use_no_semi.o ABSOLUTE
    ../clib/angel/sys.s                      0x00000000   Number         0  indicate_semi.o ABSOLUTE
    ../clib/angel/sysapp.c                   0x00000000   Number         0  sys_exit.o ABSOLUTE
    ../clib/angel/sysapp.c                   0x00000000   Number         0  sys_exit_hlt.o ABSOLUTE
    ../clib/angel/sysapp.c                   0x00000000   Number         0  sys_command.o ABSOLUTE
    ../clib/angel/sysapp.c                   0x00000000   Number         0  sys_command_hlt.o ABSOLUTE
    ../clib/angel/sysapp.c                   0x00000000   Number         0  sys_wrch.o ABSOLUTE
    ../clib/angel/sysapp.c                   0x00000000   Number         0  sys_wrch_hlt.o ABSOLUTE
    ../clib/armsys.c                         0x00000000   Number         0  argv_veneer.o ABSOLUTE
    ../clib/armsys.c                         0x00000000   Number         0  argv_veneer.o ABSOLUTE
    ../clib/armsys.c                         0x00000000   Number         0  _get_argv_nomalloc.o ABSOLUTE
    ../clib/armsys.c                         0x00000000   Number         0  no_argv.o ABSOLUTE
    ../clib/bigflt.c                         0x00000000   Number         0  bigflt0.o ABSOLUTE
    ../clib/btod.s                           0x00000000   Number         0  btod.o ABSOLUTE
    ../clib/btod_accurate.c                  0x00000000   Number         0  btod_accurate.o ABSOLUTE
    ../clib/btod_accurate.c                  0x00000000   Number         0  btod_accurate_common.o ABSOLUTE
    ../clib/fenv.c                           0x00000000   Number         0  _rserrno.o ABSOLUTE
    ../clib/heapalloc.c                      0x00000000   Number         0  hrguard.o ABSOLUTE
    ../clib/heapaux.c                        0x00000000   Number         0  heapauxi.o ABSOLUTE
    ../clib/libinit.s                        0x00000000   Number         0  libinit.o ABSOLUTE
    ../clib/libinit.s                        0x00000000   Number         0  libinit2.o ABSOLUTE
    ../clib/libinit.s                        0x00000000   Number         0  libshutdown.o ABSOLUTE
    ../clib/libinit.s                        0x00000000   Number         0  libshutdown2.o ABSOLUTE
    ../clib/locale.c                         0x00000000   Number         0  _c16rtomb.o ABSOLUTE
    ../clib/locale.s                         0x00000000   Number         0  lc_numeric_c.o ABSOLUTE
    ../clib/locale.s                         0x00000000   Number         0  lc_ctype_c.o ABSOLUTE
    ../clib/longlong.s                       0x00000000   Number         0  lludiv10.o ABSOLUTE
    ../clib/longlong.s                       0x00000000   Number         0  llushr.o ABSOLUTE
    ../clib/memcpset.s                       0x00000000   Number         0  aeabi_memset4.o ABSOLUTE
    ../clib/memcpset.s                       0x00000000   Number         0  rt_memclr_w.o ABSOLUTE
    ../clib/memcpset.s                       0x00000000   Number         0  strcmpv7m_pel.o ABSOLUTE
    ../clib/misc.s                           0x00000000   Number         0  printf_stubs.o ABSOLUTE
    ../clib/printf.c                         0x00000000   Number         0  vsnprintf.o ABSOLUTE
    ../clib/printf.c                         0x00000000   Number         0  __printf.o ABSOLUTE
    ../clib/printf.c                         0x00000000   Number         0  _printf_pad.o ABSOLUTE
    ../clib/printf.c                         0x00000000   Number         0  _printf_truncate.o ABSOLUTE
    ../clib/printf.c                         0x00000000   Number         0  _printf_str.o ABSOLUTE
    ../clib/printf.c                         0x00000000   Number         0  _printf_dec.o ABSOLUTE
    ../clib/printf.c                         0x00000000   Number         0  _printf_charcount.o ABSOLUTE
    ../clib/printf.c                         0x00000000   Number         0  _printf_char_common.o ABSOLUTE
    ../clib/printf.c                         0x00000000   Number         0  _sputc.o ABSOLUTE
    ../clib/printf.c                         0x00000000   Number         0  _snputc.o ABSOLUTE
    ../clib/printf.c                         0x00000000   Number         0  _printf_wctomb.o ABSOLUTE
    ../clib/printf.c                         0x00000000   Number         0  _printf_longlong_dec.o ABSOLUTE
    ../clib/printf.c                         0x00000000   Number         0  _printf_oct_ll.o ABSOLUTE
    ../clib/printf.c                         0x00000000   Number         0  _printf_oct_int.o ABSOLUTE
    ../clib/printf.c                         0x00000000   Number         0  _printf_oct_int_ll.o ABSOLUTE
    ../clib/printf.c                         0x00000000   Number         0  _printf_hex_ll.o ABSOLUTE
    ../clib/printf.c                         0x00000000   Number         0  _printf_hex_int.o ABSOLUTE
    ../clib/printf.c                         0x00000000   Number         0  _printf_hex_int_ll.o ABSOLUTE
    ../clib/printf.c                         0x00000000   Number         0  _printf_hex_ptr.o ABSOLUTE
    ../clib/printf.c                         0x00000000   Number         0  _printf_hex_int_ptr.o ABSOLUTE
    ../clib/printf.c                         0x00000000   Number         0  _printf_hex_ll_ptr.o ABSOLUTE
    ../clib/printf.c                         0x00000000   Number         0  _printf_hex_int_ll_ptr.o ABSOLUTE
    ../clib/printf.c                         0x00000000   Number         0  __printf_flags.o ABSOLUTE
    ../clib/printf.c                         0x00000000   Number         0  __printf_ss.o ABSOLUTE
    ../clib/printf.c                         0x00000000   Number         0  __printf_flags_ss.o ABSOLUTE
    ../clib/printf.c                         0x00000000   Number         0  __printf_wp.o ABSOLUTE
    ../clib/printf.c                         0x00000000   Number         0  __printf_flags_wp.o ABSOLUTE
    ../clib/printf.c                         0x00000000   Number         0  __printf_ss_wp.o ABSOLUTE
    ../clib/printf.c                         0x00000000   Number         0  __printf_flags_ss_wp.o ABSOLUTE
    ../clib/printf.c                         0x00000000   Number         0  _printf_intcommon.o ABSOLUTE
    ../clib/printf.c                         0x00000000   Number         0  _printf_fp_dec.o ABSOLUTE
    ../clib/printf.c                         0x00000000   Number         0  _printf_fp_dec_accurate.o ABSOLUTE
    ../clib/printf.c                         0x00000000   Number         0  _printf_fp_hex.o ABSOLUTE
    ../clib/printf.c                         0x00000000   Number         0  __printf_nopercent.o ABSOLUTE
    ../clib/printf.c                         0x00000000   Number         0  _printf_char.o ABSOLUTE
    ../clib/printf.c                         0x00000000   Number         0  _printf_wchar.o ABSOLUTE
    ../clib/printf.c                         0x00000000   Number         0  _printf_fp_infnan.o ABSOLUTE
    ../clib/printf_percent.s                 0x00000000   Number         0  _printf_c.o ABSOLUTE
    ../clib/printf_percent.s                 0x00000000   Number         0  _printf_s.o ABSOLUTE
    ../clib/printf_percent.s                 0x00000000   Number         0  _printf_n.o ABSOLUTE
    ../clib/printf_percent.s                 0x00000000   Number         0  _printf_x.o ABSOLUTE
    ../clib/printf_percent.s                 0x00000000   Number         0  _printf_p.o ABSOLUTE
    ../clib/printf_percent.s                 0x00000000   Number         0  _printf_o.o ABSOLUTE
    ../clib/printf_percent.s                 0x00000000   Number         0  _printf_i.o ABSOLUTE
    ../clib/printf_percent.s                 0x00000000   Number         0  _printf_d.o ABSOLUTE
    ../clib/printf_percent.s                 0x00000000   Number         0  _printf_u.o ABSOLUTE
    ../clib/printf_percent.s                 0x00000000   Number         0  _printf_f.o ABSOLUTE
    ../clib/printf_percent.s                 0x00000000   Number         0  _printf_e.o ABSOLUTE
    ../clib/printf_percent.s                 0x00000000   Number         0  _printf_g.o ABSOLUTE
    ../clib/printf_percent.s                 0x00000000   Number         0  _printf_a.o ABSOLUTE
    ../clib/printf_percent.s                 0x00000000   Number         0  _printf_percent.o ABSOLUTE
    ../clib/printf_percent.s                 0x00000000   Number         0  _printf_lli.o ABSOLUTE
    ../clib/printf_percent.s                 0x00000000   Number         0  _printf_lld.o ABSOLUTE
    ../clib/printf_percent.s                 0x00000000   Number         0  _printf_llu.o ABSOLUTE
    ../clib/printf_percent.s                 0x00000000   Number         0  _printf_ll.o ABSOLUTE
    ../clib/printf_percent.s                 0x00000000   Number         0  _printf_l.o ABSOLUTE
    ../clib/printf_percent.s                 0x00000000   Number         0  _printf_lc.o ABSOLUTE
    ../clib/printf_percent.s                 0x00000000   Number         0  _printf_ls.o ABSOLUTE
    ../clib/printf_percent.s                 0x00000000   Number         0  _printf_llo.o ABSOLUTE
    ../clib/printf_percent.s                 0x00000000   Number         0  _printf_llx.o ABSOLUTE
    ../clib/printf_percent.s                 0x00000000   Number         0  _printf_percent_end.o ABSOLUTE
    ../clib/signal.c                         0x00000000   Number         0  defsig_rtmem_outer.o ABSOLUTE
    ../clib/signal.c                         0x00000000   Number         0  defsig_rtmem_formal.o ABSOLUTE
    ../clib/signal.c                         0x00000000   Number         0  defsig_exit.o ABSOLUTE
    ../clib/signal.c                         0x00000000   Number         0  defsig_rtmem_inner.o ABSOLUTE
    ../clib/signal.c                         0x00000000   Number         0  __raise.o ABSOLUTE
    ../clib/signal.c                         0x00000000   Number         0  defsig_general.o ABSOLUTE
    ../clib/signal.c                         0x00000000   Number         0  defsig_abrt_inner.o ABSOLUTE
    ../clib/signal.c                         0x00000000   Number         0  defsig_fpe_inner.o ABSOLUTE
    ../clib/signal.c                         0x00000000   Number         0  defsig_rtred_inner.o ABSOLUTE
    ../clib/signal.c                         0x00000000   Number         0  defsig_stak_inner.o ABSOLUTE
    ../clib/signal.c                         0x00000000   Number         0  defsig_pvfn_inner.o ABSOLUTE
    ../clib/signal.c                         0x00000000   Number         0  defsig_cppl_inner.o ABSOLUTE
    ../clib/signal.c                         0x00000000   Number         0  defsig_segv_inner.o ABSOLUTE
    ../clib/signal.c                         0x00000000   Number         0  defsig_other.o ABSOLUTE
    ../clib/signal.s                         0x00000000   Number         0  defsig.o ABSOLUTE
    ../clib/stdlib.c                         0x00000000   Number         0  exit.o ABSOLUTE
    ../clib/string.c                         0x00000000   Number         0  strlen.o ABSOLUTE
    ../fplib/fpinit.s                        0x00000000   Number         0  fpinit.o ABSOLUTE
    ../fplib/istatus.s                       0x00000000   Number         0  istatus.o ABSOLUTE
    ../fplib/printf1.s                       0x00000000   Number         0  printf1.o ABSOLUTE
    ../fplib/printf2.s                       0x00000000   Number         0  printf2.o ABSOLUTE
    ../fplib/printf2a.s                      0x00000000   Number         0  printf2a.o ABSOLUTE
    ../fplib/printf2b.s                      0x00000000   Number         0  printf2b.o ABSOLUTE
    ../fplib/usenofp.s                       0x00000000   Number         0  usenofp.o ABSOLUTE
    ../mathlib/atan.c                        0x00000000   Number         0  atan.o ABSOLUTE
    ../mathlib/atan2.c                       0x00000000   Number         0  atan2.o ABSOLUTE
    ../mathlib/cos.c                         0x00000000   Number         0  cos.o ABSOLUTE
    ../mathlib/cos_i.c                       0x00000000   Number         0  cos_i.o ABSOLUTE
    ../mathlib/dunder.c                      0x00000000   Number         0  dunder.o ABSOLUTE
    ../mathlib/fabs.c                        0x00000000   Number         0  fabs.o ABSOLUTE
    ../mathlib/fpclassify.c                  0x00000000   Number         0  fpclassify.o ABSOLUTE
    ../mathlib/poly.c                        0x00000000   Number         0  poly.o ABSOLUTE
    ../mathlib/qnan.c                        0x00000000   Number         0  qnan.o ABSOLUTE
    ../mathlib/rred.c                        0x00000000   Number         0  rred.o ABSOLUTE
    ../mathlib/sin.c                         0x00000000   Number         0  sin.o ABSOLUTE
    ../mathlib/sin_i.c                       0x00000000   Number         0  sin_i.o ABSOLUTE
    MYstring.c                               0x00000000   Number         0  mystring.o ABSOLUTE
    dc.s                                     0x00000000   Number         0  dc.o ABSOLUTE
    gpio.c                                   0x00000000   Number         0  gpio.o ABSOLUTE
    main.c                                   0x00000000   Number         0  main.o ABSOLUTE
    oled_basic.c                             0x00000000   Number         0  oled_basic.o ABSOLUTE
    oled_bmp.c                               0x00000000   Number         0  oled_bmp.o ABSOLUTE
    oled_buffer.c                            0x00000000   Number         0  oled_buffer.o ABSOLUTE
    oled_color.c                             0x00000000   Number         0  oled_color.o ABSOLUTE
    oled_config.c                            0x00000000   Number         0  oled_config.o ABSOLUTE
    oled_debug.c                             0x00000000   Number         0  oled_debug.o ABSOLUTE
    oled_draw.c                              0x00000000   Number         0  oled_draw.o ABSOLUTE
    oled_driver.c                            0x00000000   Number         0  oled_driver.o ABSOLUTE
    oled_font.c                              0x00000000   Number         0  oled_font.o ABSOLUTE
    spi.c                                    0x00000000   Number         0  spi.o ABSOLUTE
    startup_stm32h750xx.s                    0x00000000   Number         0  startup_stm32h750xx.o ABSOLUTE
    stm32h7xx_hal.c                          0x00000000   Number         0  stm32h7xx_hal.o ABSOLUTE
    stm32h7xx_hal_cortex.c                   0x00000000   Number         0  stm32h7xx_hal_cortex.o ABSOLUTE
    stm32h7xx_hal_dma.c                      0x00000000   Number         0  stm32h7xx_hal_dma.o ABSOLUTE
    stm32h7xx_hal_dma_ex.c                   0x00000000   Number         0  stm32h7xx_hal_dma_ex.o ABSOLUTE
    stm32h7xx_hal_exti.c                     0x00000000   Number         0  stm32h7xx_hal_exti.o ABSOLUTE
    stm32h7xx_hal_flash.c                    0x00000000   Number         0  stm32h7xx_hal_flash.o ABSOLUTE
    stm32h7xx_hal_flash_ex.c                 0x00000000   Number         0  stm32h7xx_hal_flash_ex.o ABSOLUTE
    stm32h7xx_hal_gpio.c                     0x00000000   Number         0  stm32h7xx_hal_gpio.o ABSOLUTE
    stm32h7xx_hal_hsem.c                     0x00000000   Number         0  stm32h7xx_hal_hsem.o ABSOLUTE
    stm32h7xx_hal_i2c.c                      0x00000000   Number         0  stm32h7xx_hal_i2c.o ABSOLUTE
    stm32h7xx_hal_i2c_ex.c                   0x00000000   Number         0  stm32h7xx_hal_i2c_ex.o ABSOLUTE
    stm32h7xx_hal_mdma.c                     0x00000000   Number         0  stm32h7xx_hal_mdma.o ABSOLUTE
    stm32h7xx_hal_msp.c                      0x00000000   Number         0  stm32h7xx_hal_msp.o ABSOLUTE
    stm32h7xx_hal_pwr.c                      0x00000000   Number         0  stm32h7xx_hal_pwr.o ABSOLUTE
    stm32h7xx_hal_pwr_ex.c                   0x00000000   Number         0  stm32h7xx_hal_pwr_ex.o ABSOLUTE
    stm32h7xx_hal_rcc.c                      0x00000000   Number         0  stm32h7xx_hal_rcc.o ABSOLUTE
    stm32h7xx_hal_rcc_ex.c                   0x00000000   Number         0  stm32h7xx_hal_rcc_ex.o ABSOLUTE
    stm32h7xx_hal_spi.c                      0x00000000   Number         0  stm32h7xx_hal_spi.o ABSOLUTE
    stm32h7xx_hal_spi_ex.c                   0x00000000   Number         0  stm32h7xx_hal_spi_ex.o ABSOLUTE
    stm32h7xx_hal_tim.c                      0x00000000   Number         0  stm32h7xx_hal_tim.o ABSOLUTE
    stm32h7xx_hal_tim_ex.c                   0x00000000   Number         0  stm32h7xx_hal_tim_ex.o ABSOLUTE
    stm32h7xx_it.c                           0x00000000   Number         0  stm32h7xx_it.o ABSOLUTE
    system_stm32h7xx.c                       0x00000000   Number         0  system_stm32h7xx.o ABSOLUTE
    tim.c                                    0x00000000   Number         0  tim.o ABSOLUTE
    RESET                                    0x08000000   Section      664  startup_stm32h750xx.o(RESET)
    !!!main                                  0x08000298   Section        8  __main.o(!!!main)
    !!!scatter                               0x080002a0   Section       52  __scatter.o(!!!scatter)
    !!handler_copy                           0x080002d4   Section       26  __scatter_copy.o(!!handler_copy)
    !!handler_zi                             0x080002f0   Section       28  __scatter_zi.o(!!handler_zi)
    .ARM.Collect$$_printf_percent$$00000000  0x0800030c   Section        0  _printf_percent.o(.ARM.Collect$$_printf_percent$$00000000)
    .ARM.Collect$$_printf_percent$$00000001  0x0800030c   Section        6  _printf_n.o(.ARM.Collect$$_printf_percent$$00000001)
    .ARM.Collect$$_printf_percent$$00000002  0x08000312   Section        6  _printf_p.o(.ARM.Collect$$_printf_percent$$00000002)
    .ARM.Collect$$_printf_percent$$00000003  0x08000318   Section        6  _printf_f.o(.ARM.Collect$$_printf_percent$$00000003)
    .ARM.Collect$$_printf_percent$$00000004  0x0800031e   Section        6  _printf_e.o(.ARM.Collect$$_printf_percent$$00000004)
    .ARM.Collect$$_printf_percent$$00000005  0x08000324   Section        6  _printf_g.o(.ARM.Collect$$_printf_percent$$00000005)
    .ARM.Collect$$_printf_percent$$00000006  0x0800032a   Section        6  _printf_a.o(.ARM.Collect$$_printf_percent$$00000006)
    .ARM.Collect$$_printf_percent$$00000007  0x08000330   Section       10  _printf_ll.o(.ARM.Collect$$_printf_percent$$00000007)
    .ARM.Collect$$_printf_percent$$00000008  0x0800033a   Section        6  _printf_i.o(.ARM.Collect$$_printf_percent$$00000008)
    .ARM.Collect$$_printf_percent$$00000009  0x08000340   Section        6  _printf_d.o(.ARM.Collect$$_printf_percent$$00000009)
    .ARM.Collect$$_printf_percent$$0000000A  0x08000346   Section        6  _printf_u.o(.ARM.Collect$$_printf_percent$$0000000A)
    .ARM.Collect$$_printf_percent$$0000000B  0x0800034c   Section        6  _printf_o.o(.ARM.Collect$$_printf_percent$$0000000B)
    .ARM.Collect$$_printf_percent$$0000000C  0x08000352   Section        6  _printf_x.o(.ARM.Collect$$_printf_percent$$0000000C)
    .ARM.Collect$$_printf_percent$$0000000D  0x08000358   Section        6  _printf_lli.o(.ARM.Collect$$_printf_percent$$0000000D)
    .ARM.Collect$$_printf_percent$$0000000E  0x0800035e   Section        6  _printf_lld.o(.ARM.Collect$$_printf_percent$$0000000E)
    .ARM.Collect$$_printf_percent$$0000000F  0x08000364   Section        6  _printf_llu.o(.ARM.Collect$$_printf_percent$$0000000F)
    .ARM.Collect$$_printf_percent$$00000010  0x0800036a   Section        6  _printf_llo.o(.ARM.Collect$$_printf_percent$$00000010)
    .ARM.Collect$$_printf_percent$$00000011  0x08000370   Section        6  _printf_llx.o(.ARM.Collect$$_printf_percent$$00000011)
    .ARM.Collect$$_printf_percent$$00000012  0x08000376   Section       10  _printf_l.o(.ARM.Collect$$_printf_percent$$00000012)
    .ARM.Collect$$_printf_percent$$00000013  0x08000380   Section        6  _printf_c.o(.ARM.Collect$$_printf_percent$$00000013)
    .ARM.Collect$$_printf_percent$$00000014  0x08000386   Section        6  _printf_s.o(.ARM.Collect$$_printf_percent$$00000014)
    .ARM.Collect$$_printf_percent$$00000015  0x0800038c   Section        6  _printf_lc.o(.ARM.Collect$$_printf_percent$$00000015)
    .ARM.Collect$$_printf_percent$$00000016  0x08000392   Section        6  _printf_ls.o(.ARM.Collect$$_printf_percent$$00000016)
    .ARM.Collect$$_printf_percent$$00000017  0x08000398   Section        4  _printf_percent_end.o(.ARM.Collect$$_printf_percent$$00000017)
    .ARM.Collect$$libinit$$00000000          0x0800039c   Section        2  libinit.o(.ARM.Collect$$libinit$$00000000)
    .ARM.Collect$$libinit$$00000001          0x0800039e   Section        4  libinit2.o(.ARM.Collect$$libinit$$00000001)
    .ARM.Collect$$libinit$$00000004          0x080003a2   Section        0  libinit2.o(.ARM.Collect$$libinit$$00000004)
    .ARM.Collect$$libinit$$0000000A          0x080003a2   Section        0  libinit2.o(.ARM.Collect$$libinit$$0000000A)
    .ARM.Collect$$libinit$$0000000C          0x080003a2   Section        0  libinit2.o(.ARM.Collect$$libinit$$0000000C)
    .ARM.Collect$$libinit$$0000000E          0x080003a2   Section        0  libinit2.o(.ARM.Collect$$libinit$$0000000E)
    .ARM.Collect$$libinit$$0000000F          0x080003a2   Section        6  libinit2.o(.ARM.Collect$$libinit$$0000000F)
    .ARM.Collect$$libinit$$00000011          0x080003a8   Section        0  libinit2.o(.ARM.Collect$$libinit$$00000011)
    .ARM.Collect$$libinit$$00000012          0x080003a8   Section       12  libinit2.o(.ARM.Collect$$libinit$$00000012)
    .ARM.Collect$$libinit$$00000013          0x080003b4   Section        0  libinit2.o(.ARM.Collect$$libinit$$00000013)
    .ARM.Collect$$libinit$$00000015          0x080003b4   Section        0  libinit2.o(.ARM.Collect$$libinit$$00000015)
    .ARM.Collect$$libinit$$00000016          0x080003b4   Section       10  libinit2.o(.ARM.Collect$$libinit$$00000016)
    .ARM.Collect$$libinit$$00000017          0x080003be   Section        0  libinit2.o(.ARM.Collect$$libinit$$00000017)
    .ARM.Collect$$libinit$$00000019          0x080003be   Section        0  libinit2.o(.ARM.Collect$$libinit$$00000019)
    .ARM.Collect$$libinit$$0000001B          0x080003be   Section        0  libinit2.o(.ARM.Collect$$libinit$$0000001B)
    .ARM.Collect$$libinit$$0000001D          0x080003be   Section        0  libinit2.o(.ARM.Collect$$libinit$$0000001D)
    .ARM.Collect$$libinit$$0000001F          0x080003be   Section        0  libinit2.o(.ARM.Collect$$libinit$$0000001F)
    .ARM.Collect$$libinit$$00000021          0x080003be   Section        0  libinit2.o(.ARM.Collect$$libinit$$00000021)
    .ARM.Collect$$libinit$$00000023          0x080003be   Section        0  libinit2.o(.ARM.Collect$$libinit$$00000023)
    .ARM.Collect$$libinit$$00000025          0x080003be   Section        0  libinit2.o(.ARM.Collect$$libinit$$00000025)
    .ARM.Collect$$libinit$$0000002C          0x080003be   Section        0  libinit2.o(.ARM.Collect$$libinit$$0000002C)
    .ARM.Collect$$libinit$$0000002E          0x080003be   Section        0  libinit2.o(.ARM.Collect$$libinit$$0000002E)
    .ARM.Collect$$libinit$$00000030          0x080003be   Section        0  libinit2.o(.ARM.Collect$$libinit$$00000030)
    .ARM.Collect$$libinit$$00000032          0x080003be   Section        0  libinit2.o(.ARM.Collect$$libinit$$00000032)
    .ARM.Collect$$libinit$$00000033          0x080003be   Section        2  libinit2.o(.ARM.Collect$$libinit$$00000033)
    .ARM.Collect$$libshutdown$$00000000      0x080003c0   Section        2  libshutdown.o(.ARM.Collect$$libshutdown$$00000000)
    .ARM.Collect$$libshutdown$$00000002      0x080003c2   Section        0  libshutdown2.o(.ARM.Collect$$libshutdown$$00000002)
    .ARM.Collect$$libshutdown$$00000004      0x080003c2   Section        0  libshutdown2.o(.ARM.Collect$$libshutdown$$00000004)
    .ARM.Collect$$libshutdown$$00000007      0x080003c2   Section        0  libshutdown2.o(.ARM.Collect$$libshutdown$$00000007)
    .ARM.Collect$$libshutdown$$0000000A      0x080003c2   Section        0  libshutdown2.o(.ARM.Collect$$libshutdown$$0000000A)
    .ARM.Collect$$libshutdown$$0000000C      0x080003c2   Section        0  libshutdown2.o(.ARM.Collect$$libshutdown$$0000000C)
    .ARM.Collect$$libshutdown$$0000000F      0x080003c2   Section        0  libshutdown2.o(.ARM.Collect$$libshutdown$$0000000F)
    .ARM.Collect$$libshutdown$$00000010      0x080003c2   Section        2  libshutdown2.o(.ARM.Collect$$libshutdown$$00000010)
    .ARM.Collect$$rtentry$$00000000          0x080003c4   Section        0  __rtentry.o(.ARM.Collect$$rtentry$$00000000)
    .ARM.Collect$$rtentry$$00000002          0x080003c4   Section        0  __rtentry2.o(.ARM.Collect$$rtentry$$00000002)
    .ARM.Collect$$rtentry$$00000004          0x080003c4   Section        6  __rtentry4.o(.ARM.Collect$$rtentry$$00000004)
    .ARM.Collect$$rtentry$$00000009          0x080003ca   Section        0  __rtentry2.o(.ARM.Collect$$rtentry$$00000009)
    .ARM.Collect$$rtentry$$0000000A          0x080003ca   Section        4  __rtentry2.o(.ARM.Collect$$rtentry$$0000000A)
    .ARM.Collect$$rtentry$$0000000C          0x080003ce   Section        0  __rtentry2.o(.ARM.Collect$$rtentry$$0000000C)
    .ARM.Collect$$rtentry$$0000000D          0x080003ce   Section        8  __rtentry2.o(.ARM.Collect$$rtentry$$0000000D)
    .ARM.Collect$$rtexit$$00000000           0x080003d6   Section        2  rtexit.o(.ARM.Collect$$rtexit$$00000000)
    .ARM.Collect$$rtexit$$00000002           0x080003d8   Section        0  rtexit2.o(.ARM.Collect$$rtexit$$00000002)
    .ARM.Collect$$rtexit$$00000003           0x080003d8   Section        4  rtexit2.o(.ARM.Collect$$rtexit$$00000003)
    .ARM.Collect$$rtexit$$00000004           0x080003dc   Section        6  rtexit2.o(.ARM.Collect$$rtexit$$00000004)
    $v0                                      0x080003e4   Number         0  startup_stm32h750xx.o(.text)
    .text                                    0x080003e4   Section       64  startup_stm32h750xx.o(.text)
    .text                                    0x08000424   Section        0  vsnprintf.o(.text)
    .text                                    0x08000458   Section       16  aeabi_memset4.o(.text)
    .text                                    0x08000468   Section       78  rt_memclr_w.o(.text)
    .text                                    0x080004b6   Section        0  heapauxi.o(.text)
    .text                                    0x080004bc   Section        0  _printf_pad.o(.text)
    .text                                    0x0800050a   Section        0  _printf_truncate.o(.text)
    .text                                    0x0800052e   Section        0  _printf_str.o(.text)
    .text                                    0x08000580   Section        0  _printf_dec.o(.text)
    .text                                    0x080005f8   Section        0  _printf_charcount.o(.text)
    _printf_input_char                       0x08000621   Thumb Code    10  _printf_char_common.o(.text)
    .text                                    0x08000620   Section        0  _printf_char_common.o(.text)
    .text                                    0x08000650   Section        0  _sputc.o(.text)
    .text                                    0x0800065a   Section        0  _snputc.o(.text)
    .text                                    0x0800066c   Section        0  _printf_wctomb.o(.text)
    .text                                    0x08000728   Section        0  _printf_longlong_dec.o(.text)
    _printf_longlong_oct_internal            0x080007a5   Thumb Code     0  _printf_oct_int_ll.o(.text)
    .text                                    0x080007a4   Section        0  _printf_oct_int_ll.o(.text)
    _printf_hex_common                       0x08000815   Thumb Code     0  _printf_hex_int_ll_ptr.o(.text)
    .text                                    0x08000814   Section        0  _printf_hex_int_ll_ptr.o(.text)
    .text                                    0x080008a8   Section        0  __printf_flags_ss_wp.o(.text)
    .text                                    0x08000a30   Section      138  lludiv10.o(.text)
    .text                                    0x08000aba   Section        0  _printf_intcommon.o(.text)
    _fp_digits                               0x08000b6d   Thumb Code   432  _printf_fp_dec.o(.text)
    .text                                    0x08000b6c   Section        0  _printf_fp_dec.o(.text)
    .text                                    0x08000f88   Section        0  _printf_fp_hex.o(.text)
    .text                                    0x08001284   Section        0  _printf_char.o(.text)
    .text                                    0x080012b0   Section        0  _printf_wchar.o(.text)
    .text                                    0x080012dc   Section        0  _c16rtomb.o(.text)
    .text                                    0x08001324   Section        8  libspace.o(.text)
    .text                                    0x0800132c   Section       74  sys_stackheap_outer.o(.text)
    .text                                    0x08001378   Section       16  rt_ctype_table.o(.text)
    .text                                    0x08001388   Section        8  rt_locale_intlibspace.o(.text)
    .text                                    0x08001390   Section        0  _printf_fp_infnan.o(.text)
    .text                                    0x08001410   Section        0  bigflt0.o(.text)
    .text                                    0x080014f4   Section        0  exit.o(.text)
    .text                                    0x08001508   Section      124  strcmpv7m_pel.o(.text)
    .text                                    0x08001584   Section        0  sys_exit.o(.text)
    .text                                    0x08001590   Section        2  use_no_semi.o(.text)
    .text                                    0x08001592   Section        0  indicate_semi.o(.text)
    [Anonymous Symbol]                       0x08001598   Section        0  oled_buffer.o(.text.Buf_OLED2LCD)
    [Anonymous Symbol]                       0x08001608   Section        0  stm32h7xx_it.o(.text.BusFault_Handler)
    [Anonymous Symbol]                       0x08001610   Section        0  stm32h7xx_it.o(.text.DebugMon_Handler)
    [Anonymous Symbol]                       0x08001618   Section        0  oled_config.o(.text.DriverInit)
    [Anonymous Symbol]                       0x08001620   Section        0  main.o(.text.Error_Handler)
    [Anonymous Symbol]                       0x08001630   Section        0  oled_basic.o(.text.FillByte)
    [Anonymous Symbol]                       0x08001660   Section        0  oled_basic.o(.text.FillRect)
    [Anonymous Symbol]                       0x08001730   Section        0  oled_driver.o(.text.Front_Get_Type)
    [Anonymous Symbol]                       0x08001768   Section        0  oled_color.o(.text.GetDrawColor)
    [Anonymous Symbol]                       0x08001778   Section        0  oled_color.o(.text.GetFillColor)
    [Anonymous Symbol]                       0x08001788   Section        0  stm32h7xx_hal.o(.text.HAL_Delay)
    [Anonymous Symbol]                       0x080017b0   Section        0  stm32h7xx_hal_gpio.o(.text.HAL_GPIO_Init)
    [Anonymous Symbol]                       0x08001958   Section        0  stm32h7xx_hal_gpio.o(.text.HAL_GPIO_TogglePin)
    [Anonymous Symbol]                       0x08001968   Section        0  stm32h7xx_hal_gpio.o(.text.HAL_GPIO_WritePin)
    [Anonymous Symbol]                       0x08001978   Section        0  stm32h7xx_hal.o(.text.HAL_GetREVID)
    [Anonymous Symbol]                       0x08001988   Section        0  stm32h7xx_hal.o(.text.HAL_GetTick)
    [Anonymous Symbol]                       0x08001998   Section        0  stm32h7xx_hal.o(.text.HAL_IncTick)
    [Anonymous Symbol]                       0x080019b8   Section        0  stm32h7xx_hal.o(.text.HAL_Init)
    [Anonymous Symbol]                       0x08001a20   Section        0  stm32h7xx_hal.o(.text.HAL_InitTick)
    [Anonymous Symbol]                       0x08001a78   Section        0  stm32h7xx_hal_msp.o(.text.HAL_MspInit)
    [Anonymous Symbol]                       0x08001aa0   Section        0  stm32h7xx_hal_cortex.o(.text.HAL_NVIC_SetPriority)
    [Anonymous Symbol]                       0x08001ac0   Section        0  stm32h7xx_hal_cortex.o(.text.HAL_NVIC_SetPriorityGrouping)
    [Anonymous Symbol]                       0x08001ac8   Section        0  stm32h7xx_hal_pwr_ex.o(.text.HAL_PWREx_ConfigSupply)
    [Anonymous Symbol]                       0x08001b10   Section        0  stm32h7xx_hal_rcc_ex.o(.text.HAL_RCCEx_PeriphCLKConfig)
    [Anonymous Symbol]                       0x08002470   Section        0  stm32h7xx_hal_rcc.o(.text.HAL_RCC_ClockConfig)
    [Anonymous Symbol]                       0x080026c8   Section        0  stm32h7xx_hal_rcc.o(.text.HAL_RCC_GetSysClockFreq)
    [Anonymous Symbol]                       0x080027d0   Section        0  stm32h7xx_hal_rcc.o(.text.HAL_RCC_OscConfig)
    [Anonymous Symbol]                       0x08002dc0   Section        0  stm32h7xx_hal_spi.o(.text.HAL_SPI_Init)
    [Anonymous Symbol]                       0x08002f10   Section        0  spi.o(.text.HAL_SPI_MspInit)
    [Anonymous Symbol]                       0x08002fb8   Section        0  stm32h7xx_hal_spi.o(.text.HAL_SPI_Receive)
    [Anonymous Symbol]                       0x08003210   Section        0  stm32h7xx_hal_spi.o(.text.HAL_SPI_Transmit)
    [Anonymous Symbol]                       0x08003460   Section        0  stm32h7xx_hal_spi.o(.text.HAL_SPI_TransmitReceive)
    [Anonymous Symbol]                       0x08003788   Section        0  stm32h7xx_hal_cortex.o(.text.HAL_SYSTICK_Config)
    [Anonymous Symbol]                       0x08003790   Section        0  stm32h7xx_hal_tim_ex.o(.text.HAL_TIMEx_MasterConfigSynchronization)
    [Anonymous Symbol]                       0x08003848   Section        0  stm32h7xx_hal_tim.o(.text.HAL_TIM_Base_Init)
    [Anonymous Symbol]                       0x080038a8   Section        0  tim.o(.text.HAL_TIM_Base_MspInit)
    [Anonymous Symbol]                       0x080038d8   Section        0  stm32h7xx_hal_tim.o(.text.HAL_TIM_ConfigClockSource)
    [Anonymous Symbol]                       0x080039e0   Section        0  stm32h7xx_it.o(.text.HardFault_Handler)
    [Anonymous Symbol]                       0x080039e8   Section        0  oled_basic.o(.text.InitGraph)
    [Anonymous Symbol]                       0x080039f0   Section        0  oled_driver.o(.text.LCD_Address_Set)
    [Anonymous Symbol]                       0x08003a38   Section        0  oled_driver.o(.text.LCD_FILL)
    [Anonymous Symbol]                       0x08003a68   Section        0  oled_driver.o(.text.LCD_Init)
    [Anonymous Symbol]                       0x08003c88   Section        0  oled_driver.o(.text.LCD_WR_DATA)
    [Anonymous Symbol]                       0x08003cd0   Section        0  oled_driver.o(.text.LCD_WR_DATA8)
    [Anonymous Symbol]                       0x08003cd8   Section        0  oled_driver.o(.text.LCD_WR_Plenty_Dat)
    [Anonymous Symbol]                       0x08003d20   Section        0  oled_driver.o(.text.LCD_WR_REG)
    [Anonymous Symbol]                       0x08003d50   Section        0  oled_driver.o(.text.LCD_Writ_Bus)
    [Anonymous Symbol]                       0x08003d98   Section        0  gpio.o(.text.MX_GPIO_Init)
    [Anonymous Symbol]                       0x08003e60   Section        0  spi.o(.text.MX_SPI2_Init)
    [Anonymous Symbol]                       0x08003ec8   Section        0  tim.o(.text.MX_TIM1_Init)
    [Anonymous Symbol]                       0x08003f40   Section        0  stm32h7xx_it.o(.text.MemManage_Handler)
    [Anonymous Symbol]                       0x08003f48   Section        0  stm32h7xx_it.o(.text.NMI_Handler)
    NVIC_EncodePriority                      0x08003f51   Thumb Code    46  stm32h7xx_hal_cortex.o(.text.NVIC_EncodePriority)
    [Anonymous Symbol]                       0x08003f50   Section        0  stm32h7xx_hal_cortex.o(.text.NVIC_EncodePriority)
    [Anonymous Symbol]                       0x08003f80   Section        0  oled_draw.o(.text.OLED_Background)
    [Anonymous Symbol]                       0x08003fa0   Section        0  oled_buffer.o(.text.OLED_ClearScreenBuffer)
    [Anonymous Symbol]                       0x08003fb8   Section        0  oled_draw.o(.text.OLED_FastHLine)
    [Anonymous Symbol]                       0x08003ff0   Section        0  oled_draw.o(.text.OLED_FastVLine)
    [Anonymous Symbol]                       0x08004028   Section        0  oled_draw.o(.text.OLED_FillCircle)
    [Anonymous Symbol]                       0x08004058   Section        0  oled_draw.o(.text.OLED_FillCircleHelper)
    [Anonymous Symbol]                       0x08004128   Section        0  oled_draw.o(.text.OLED_FillRect2)
    [Anonymous Symbol]                       0x08004148   Section        0  oled_draw.o(.text.OLED_FillRoundRect)
    [Anonymous Symbol]                       0x080041a0   Section        0  oled_draw.o(.text.OLED_FillTriangle)
    [Anonymous Symbol]                       0x08004330   Section        0  oled_draw.o(.text.OLED_GBString)
    [Anonymous Symbol]                       0x080044a0   Section        0  oled_driver.o(.text.OLED_Get_front)
    [Anonymous Symbol]                       0x08004568   Section        0  oled_draw.o(.text.OLED_Line)
    [Anonymous Symbol]                       0x08004620   Section        0  oled_draw.o(.text.OLED_Rect2)
    [Anonymous Symbol]                       0x08004668   Section        0  oled_color.o(.text.OLED_Set_DrawColor)
    [Anonymous Symbol]                       0x08004678   Section        0  oled_basic.o(.text.OLED_UpdateScreen)
    [Anonymous Symbol]                       0x08004680   Section        0  oled_config.o(.text.OLED_UpdateScreenBuffer)
    [Anonymous Symbol]                       0x08004690   Section        0  oled_buffer.o(.text.OLED_UpdateScreenDisplay)
    [Anonymous Symbol]                       0x08004698   Section        0  stm32h7xx_it.o(.text.PendSV_Handler)
    [Anonymous Symbol]                       0x080046a0   Section        0  mystring.o(.text.Printf2Buf)
    RCCEx_PLL2_Config                        0x080046c9   Thumb Code   286  stm32h7xx_hal_rcc_ex.o(.text.RCCEx_PLL2_Config)
    [Anonymous Symbol]                       0x080046c8   Section        0  stm32h7xx_hal_rcc_ex.o(.text.RCCEx_PLL2_Config)
    RCCEx_PLL3_Config                        0x080047e9   Thumb Code   286  stm32h7xx_hal_rcc_ex.o(.text.RCCEx_PLL3_Config)
    [Anonymous Symbol]                       0x080047e8   Section        0  stm32h7xx_hal_rcc_ex.o(.text.RCCEx_PLL3_Config)
    [Anonymous Symbol]                       0x08004908   Section        0  oled_buffer.o(.text.ReadByteBuffer)
    SPI_CloseTransfer                        0x08004921   Thumb Code   182  stm32h7xx_hal_spi.o(.text.SPI_CloseTransfer)
    [Anonymous Symbol]                       0x08004920   Section        0  stm32h7xx_hal_spi.o(.text.SPI_CloseTransfer)
    SPI_GetPacketSize                        0x080049d9   Thumb Code    18  stm32h7xx_hal_spi.o(.text.SPI_GetPacketSize)
    [Anonymous Symbol]                       0x080049d8   Section        0  stm32h7xx_hal_spi.o(.text.SPI_GetPacketSize)
    SPI_WaitOnFlagUntilTimeout               0x080049f1   Thumb Code    46  stm32h7xx_hal_spi.o(.text.SPI_WaitOnFlagUntilTimeout)
    [Anonymous Symbol]                       0x080049f0   Section        0  stm32h7xx_hal_spi.o(.text.SPI_WaitOnFlagUntilTimeout)
    [Anonymous Symbol]                       0x08004a20   Section        0  stm32h7xx_it.o(.text.SVC_Handler)
    [Anonymous Symbol]                       0x08004a28   Section        0  oled_buffer.o(.text.SetPointBuffer)
    SysTick_Config                           0x08004a71   Thumb Code    46  stm32h7xx_hal_cortex.o(.text.SysTick_Config)
    [Anonymous Symbol]                       0x08004a70   Section        0  stm32h7xx_hal_cortex.o(.text.SysTick_Config)
    [Anonymous Symbol]                       0x08004aa0   Section        0  stm32h7xx_it.o(.text.SysTick_Handler)
    [Anonymous Symbol]                       0x08004aa8   Section        0  main.o(.text.SystemClock_Config)
    [Anonymous Symbol]                       0x08004b78   Section        0  system_stm32h7xx.o(.text.SystemInit)
    [Anonymous Symbol]                       0x08004c58   Section        0  stm32h7xx_hal_tim.o(.text.TIM_Base_SetConfig)
    [Anonymous Symbol]                       0x08004d98   Section        0  stm32h7xx_hal_tim.o(.text.TIM_ETR_SetConfig)
    TIM_ITRx_SetConfig                       0x08004db1   Thumb Code    22  stm32h7xx_hal_tim.o(.text.TIM_ITRx_SetConfig)
    [Anonymous Symbol]                       0x08004db0   Section        0  stm32h7xx_hal_tim.o(.text.TIM_ITRx_SetConfig)
    TIM_TI1_ConfigInputStage                 0x08004dc9   Thumb Code    34  stm32h7xx_hal_tim.o(.text.TIM_TI1_ConfigInputStage)
    [Anonymous Symbol]                       0x08004dc8   Section        0  stm32h7xx_hal_tim.o(.text.TIM_TI1_ConfigInputStage)
    TIM_TI2_ConfigInputStage                 0x08004df1   Thumb Code    36  stm32h7xx_hal_tim.o(.text.TIM_TI2_ConfigInputStage)
    [Anonymous Symbol]                       0x08004df0   Section        0  stm32h7xx_hal_tim.o(.text.TIM_TI2_ConfigInputStage)
    [Anonymous Symbol]                       0x08004e18   Section        0  stm32h7xx_it.o(.text.UsageFault_Handler)
    [Anonymous Symbol]                       0x08004e20   Section        0  oled_buffer.o(.text.WriteByteBuffer)
    __NVIC_GetPriorityGrouping               0x08004e39   Thumb Code    16  stm32h7xx_hal_cortex.o(.text.__NVIC_GetPriorityGrouping)
    [Anonymous Symbol]                       0x08004e38   Section        0  stm32h7xx_hal_cortex.o(.text.__NVIC_GetPriorityGrouping)
    __NVIC_SetPriority                       0x08004e49   Thumb Code    34  stm32h7xx_hal_cortex.o(.text.__NVIC_SetPriority)
    [Anonymous Symbol]                       0x08004e48   Section        0  stm32h7xx_hal_cortex.o(.text.__NVIC_SetPriority)
    __NVIC_SetPriorityGrouping               0x08004e71   Thumb Code    32  stm32h7xx_hal_cortex.o(.text.__NVIC_SetPriorityGrouping)
    [Anonymous Symbol]                       0x08004e70   Section        0  stm32h7xx_hal_cortex.o(.text.__NVIC_SetPriorityGrouping)
    [Anonymous Symbol]                       0x08004e90   Section        0  main.o(.text.main)
    CL$$btod_d2e                             0x08004fd4   Section       62  btod.o(CL$$btod_d2e)
    CL$$btod_d2e_denorm_low                  0x08005012   Section       70  btod.o(CL$$btod_d2e_denorm_low)
    CL$$btod_d2e_norm_op1                    0x08005058   Section       96  btod.o(CL$$btod_d2e_norm_op1)
    CL$$btod_div_common                      0x080050b8   Section      824  btod.o(CL$$btod_div_common)
    CL$$btod_e2e                             0x080053f0   Section      220  btod.o(CL$$btod_e2e)
    CL$$btod_ediv                            0x080054cc   Section       42  btod.o(CL$$btod_ediv)
    CL$$btod_emul                            0x080054f6   Section       42  btod.o(CL$$btod_emul)
    CL$$btod_mult_common                     0x08005520   Section      580  btod.o(CL$$btod_mult_common)
    i.__ARM_fpclassify                       0x08005764   Section        0  fpclassify.o(i.__ARM_fpclassify)
    i._is_digit                              0x08005794   Section        0  __printf_wp.o(i._is_digit)
    locale$$code                             0x080057a4   Section       44  lc_numeric_c.o(locale$$code)
    locale$$code                             0x080057d0   Section       44  lc_ctype_c.o(locale$$code)
    $v0                                      0x080057fc   Number         0  fpinit.o(x$fpl$fpinit)
    x$fpl$fpinit                             0x080057fc   Section       26  fpinit.o(x$fpl$fpinit)
    $v0                                      0x08005816   Number         0  printf1.o(x$fpl$printf1)
    x$fpl$printf1                            0x08005816   Section        4  printf1.o(x$fpl$printf1)
    $v0                                      0x0800581a   Number         0  printf2.o(x$fpl$printf2)
    x$fpl$printf2                            0x0800581a   Section        4  printf2.o(x$fpl$printf2)
    x$fpl$usenofp                            0x0800581e   Section        0  usenofp.o(x$fpl$usenofp)
    initial_mbstate                          0x08005820   Data           8  _printf_wctomb.o(.constdata)
    .constdata                               0x08005820   Section        8  _printf_wctomb.o(.constdata)
    uc_hextab                                0x08005828   Data          20  _printf_hex_int_ll_ptr.o(.constdata)
    .constdata                               0x08005828   Section       40  _printf_hex_int_ll_ptr.o(.constdata)
    lc_hextab                                0x0800583c   Data          20  _printf_hex_int_ll_ptr.o(.constdata)
    maptable                                 0x08005850   Data          17  __printf_flags_ss_wp.o(.constdata)
    .constdata                               0x08005850   Section       17  __printf_flags_ss_wp.o(.constdata)
    lc_hextab                                0x08005861   Data          19  _printf_fp_hex.o(.constdata)
    .constdata                               0x08005861   Section       38  _printf_fp_hex.o(.constdata)
    uc_hextab                                0x08005874   Data          19  _printf_fp_hex.o(.constdata)
    tenpwrs_x                                0x08005888   Data          60  bigflt0.o(.constdata)
    .constdata                               0x08005888   Section      148  bigflt0.o(.constdata)
    tenpwrs_i                                0x080058c4   Data          64  bigflt0.o(.constdata)
    _BitTableS                               0x0800592c   Data           8  oled_basic.o(.rodata.cst8)
    locale$$data                             0x08005954   Section       28  lc_numeric_c.o(locale$$data)
    __lcnum_c_name                           0x08005958   Data           2  lc_numeric_c.o(locale$$data)
    __lcnum_c_start                          0x08005960   Data           0  lc_numeric_c.o(locale$$data)
    __lcnum_c_point                          0x0800596c   Data           0  lc_numeric_c.o(locale$$data)
    __lcnum_c_thousands                      0x0800596e   Data           0  lc_numeric_c.o(locale$$data)
    __lcnum_c_grouping                       0x0800596f   Data           0  lc_numeric_c.o(locale$$data)
    __lcnum_c_end                            0x08005970   Data           0  lc_numeric_c.o(locale$$data)
    locale$$data                             0x08005970   Section      272  lc_ctype_c.o(locale$$data)
    __lcctype_c_name                         0x08005974   Data           2  lc_ctype_c.o(locale$$data)
    __lcctype_c_start                        0x0800597c   Data           0  lc_ctype_c.o(locale$$data)
    __lcctype_c_end                          0x08005a80   Data           0  lc_ctype_c.o(locale$$data)
    _Draw                                    0x24000008   Data           1  oled_color.o(.data._Draw)
    [Anonymous Symbol]                       0x24000008   Section        0  oled_color.o(.data._Draw)
    _fill                                    0x24000009   Data           1  oled_color.o(.data._fill)
    [Anonymous Symbol]                       0x24000009   Section        0  oled_color.o(.data._fill)
    .bss                                     0x24000010   Section       96  libspace.o(.bss)
    Heap_Mem                                 0x24006b88   Data         512  startup_stm32h750xx.o(HEAP)
    HEAP                                     0x24006b88   Section      512  startup_stm32h750xx.o(HEAP)
    Stack_Mem                                0x24006d88   Data        1024  startup_stm32h750xx.o(STACK)
    STACK                                    0x24006d88   Section     1024  startup_stm32h750xx.o(STACK)
    __initial_sp                             0x24007188   Data           0  startup_stm32h750xx.o(STACK)

    Global Symbols

    Symbol Name                              Value     Ov Type        Size  Object(Section)

    BuildAttributes$$THM_ISAv4$E$P$D$K$B$S$7EM$VFPv5_D16$PE$PLD8$A:L22UL41UL21$X:L11$S22US41US21$IEEE1$IW$~IW$USESV6$~STKCKD$USESV7$~SHL$OTIME$ROPI$IEEEX$EBA8$UX$STANDARDLIB$REQ8$PRES8$EABIv2 0x00000000   Number         0  anon$$obj.o ABSOLUTE
    _printf_flags                            0x00000000   Number         0  printf_stubs.o ABSOLUTE
    _printf_return_value                     0x00000000   Number         0  printf_stubs.o ABSOLUTE
    _printf_sizespec                         0x00000000   Number         0  printf_stubs.o ABSOLUTE
    _printf_widthprec                        0x00000000   Number         0  printf_stubs.o ABSOLUTE
    __ARM_exceptions_init                     - Undefined Weak Reference
    __alloca_initialize                       - Undefined Weak Reference
    __arm_preinit_                            - Undefined Weak Reference
    __cpp_initialize__aeabi_                  - Undefined Weak Reference
    __cxa_finalize                            - Undefined Weak Reference
    __sigvec_lookup                           - Undefined Weak Reference
    _atexit_init                              - Undefined Weak Reference
    _call_atexit_fns                          - Undefined Weak Reference
    _clock_init                               - Undefined Weak Reference
    _fp_trap_init                             - Undefined Weak Reference
    _fp_trap_shutdown                         - Undefined Weak Reference
    _get_lc_collate                           - Undefined Weak Reference
    _get_lc_monetary                          - Undefined Weak Reference
    _get_lc_time                              - Undefined Weak Reference
    _getenv_init                              - Undefined Weak Reference
    _handle_redirection                       - Undefined Weak Reference
    _init_alloc                               - Undefined Weak Reference
    _init_user_alloc                          - Undefined Weak Reference
    _initio                                   - Undefined Weak Reference
    _printf_mbtowc                            - Undefined Weak Reference
    _printf_wc                                - Undefined Weak Reference
    _rand_init                                - Undefined Weak Reference
    _signal_finish                            - Undefined Weak Reference
    _signal_init                              - Undefined Weak Reference
    _terminate_alloc                          - Undefined Weak Reference
    _terminate_user_alloc                     - Undefined Weak Reference
    _terminateio                              - Undefined Weak Reference
    __Vectors_Size                           0x00000298   Number         0  startup_stm32h750xx.o ABSOLUTE
    __Vectors                                0x08000000   Data           4  startup_stm32h750xx.o(RESET)
    __Vectors_End                            0x08000298   Data           0  startup_stm32h750xx.o(RESET)
    __main                                   0x08000299   Thumb Code     8  __main.o(!!!main)
    __scatterload                            0x080002a1   Thumb Code     0  __scatter.o(!!!scatter)
    __scatterload_rt2                        0x080002a1   Thumb Code    44  __scatter.o(!!!scatter)
    __scatterload_rt2_thumb_only             0x080002a1   Thumb Code     0  __scatter.o(!!!scatter)
    __scatterload_null                       0x080002af   Thumb Code     0  __scatter.o(!!!scatter)
    __scatterload_copy                       0x080002d5   Thumb Code    26  __scatter_copy.o(!!handler_copy)
    __scatterload_zeroinit                   0x080002f1   Thumb Code    28  __scatter_zi.o(!!handler_zi)
    _printf_n                                0x0800030d   Thumb Code     0  _printf_n.o(.ARM.Collect$$_printf_percent$$00000001)
    _printf_percent                          0x0800030d   Thumb Code     0  _printf_percent.o(.ARM.Collect$$_printf_percent$$00000000)
    _printf_p                                0x08000313   Thumb Code     0  _printf_p.o(.ARM.Collect$$_printf_percent$$00000002)
    _printf_f                                0x08000319   Thumb Code     0  _printf_f.o(.ARM.Collect$$_printf_percent$$00000003)
    _printf_e                                0x0800031f   Thumb Code     0  _printf_e.o(.ARM.Collect$$_printf_percent$$00000004)
    _printf_g                                0x08000325   Thumb Code     0  _printf_g.o(.ARM.Collect$$_printf_percent$$00000005)
    _printf_a                                0x0800032b   Thumb Code     0  _printf_a.o(.ARM.Collect$$_printf_percent$$00000006)
    _printf_ll                               0x08000331   Thumb Code     0  _printf_ll.o(.ARM.Collect$$_printf_percent$$00000007)
    _printf_i                                0x0800033b   Thumb Code     0  _printf_i.o(.ARM.Collect$$_printf_percent$$00000008)
    _printf_d                                0x08000341   Thumb Code     0  _printf_d.o(.ARM.Collect$$_printf_percent$$00000009)
    _printf_u                                0x08000347   Thumb Code     0  _printf_u.o(.ARM.Collect$$_printf_percent$$0000000A)
    _printf_o                                0x0800034d   Thumb Code     0  _printf_o.o(.ARM.Collect$$_printf_percent$$0000000B)
    _printf_x                                0x08000353   Thumb Code     0  _printf_x.o(.ARM.Collect$$_printf_percent$$0000000C)
    _printf_lli                              0x08000359   Thumb Code     0  _printf_lli.o(.ARM.Collect$$_printf_percent$$0000000D)
    _printf_lld                              0x0800035f   Thumb Code     0  _printf_lld.o(.ARM.Collect$$_printf_percent$$0000000E)
    _printf_llu                              0x08000365   Thumb Code     0  _printf_llu.o(.ARM.Collect$$_printf_percent$$0000000F)
    _printf_llo                              0x0800036b   Thumb Code     0  _printf_llo.o(.ARM.Collect$$_printf_percent$$00000010)
    _printf_llx                              0x08000371   Thumb Code     0  _printf_llx.o(.ARM.Collect$$_printf_percent$$00000011)
    _printf_l                                0x08000377   Thumb Code     0  _printf_l.o(.ARM.Collect$$_printf_percent$$00000012)
    _printf_c                                0x08000381   Thumb Code     0  _printf_c.o(.ARM.Collect$$_printf_percent$$00000013)
    _printf_s                                0x08000387   Thumb Code     0  _printf_s.o(.ARM.Collect$$_printf_percent$$00000014)
    _printf_lc                               0x0800038d   Thumb Code     0  _printf_lc.o(.ARM.Collect$$_printf_percent$$00000015)
    _printf_ls                               0x08000393   Thumb Code     0  _printf_ls.o(.ARM.Collect$$_printf_percent$$00000016)
    _printf_percent_end                      0x08000399   Thumb Code     0  _printf_percent_end.o(.ARM.Collect$$_printf_percent$$00000017)
    __rt_lib_init                            0x0800039d   Thumb Code     0  libinit.o(.ARM.Collect$$libinit$$00000000)
    __rt_lib_init_fp_1                       0x0800039f   Thumb Code     0  libinit2.o(.ARM.Collect$$libinit$$00000001)
    __rt_lib_init_heap_1                     0x080003a3   Thumb Code     0  libinit2.o(.ARM.Collect$$libinit$$0000000A)
    __rt_lib_init_lc_common                  0x080003a3   Thumb Code     0  libinit2.o(.ARM.Collect$$libinit$$0000000F)
    __rt_lib_init_preinit_1                  0x080003a3   Thumb Code     0  libinit2.o(.ARM.Collect$$libinit$$00000004)
    __rt_lib_init_rand_1                     0x080003a3   Thumb Code     0  libinit2.o(.ARM.Collect$$libinit$$0000000E)
    __rt_lib_init_user_alloc_1               0x080003a3   Thumb Code     0  libinit2.o(.ARM.Collect$$libinit$$0000000C)
    __rt_lib_init_lc_collate_1               0x080003a9   Thumb Code     0  libinit2.o(.ARM.Collect$$libinit$$00000011)
    __rt_lib_init_lc_ctype_2                 0x080003a9   Thumb Code     0  libinit2.o(.ARM.Collect$$libinit$$00000012)
    __rt_lib_init_lc_ctype_1                 0x080003b5   Thumb Code     0  libinit2.o(.ARM.Collect$$libinit$$00000013)
    __rt_lib_init_lc_monetary_1              0x080003b5   Thumb Code     0  libinit2.o(.ARM.Collect$$libinit$$00000015)
    __rt_lib_init_lc_numeric_2               0x080003b5   Thumb Code     0  libinit2.o(.ARM.Collect$$libinit$$00000016)
    __rt_lib_init_alloca_1                   0x080003bf   Thumb Code     0  libinit2.o(.ARM.Collect$$libinit$$0000002E)
    __rt_lib_init_argv_1                     0x080003bf   Thumb Code     0  libinit2.o(.ARM.Collect$$libinit$$0000002C)
    __rt_lib_init_atexit_1                   0x080003bf   Thumb Code     0  libinit2.o(.ARM.Collect$$libinit$$0000001B)
    __rt_lib_init_clock_1                    0x080003bf   Thumb Code     0  libinit2.o(.ARM.Collect$$libinit$$00000021)
    __rt_lib_init_cpp_1                      0x080003bf   Thumb Code     0  libinit2.o(.ARM.Collect$$libinit$$00000032)
    __rt_lib_init_exceptions_1               0x080003bf   Thumb Code     0  libinit2.o(.ARM.Collect$$libinit$$00000030)
    __rt_lib_init_fp_trap_1                  0x080003bf   Thumb Code     0  libinit2.o(.ARM.Collect$$libinit$$0000001F)
    __rt_lib_init_getenv_1                   0x080003bf   Thumb Code     0  libinit2.o(.ARM.Collect$$libinit$$00000023)
    __rt_lib_init_lc_numeric_1               0x080003bf   Thumb Code     0  libinit2.o(.ARM.Collect$$libinit$$00000017)
    __rt_lib_init_lc_time_1                  0x080003bf   Thumb Code     0  libinit2.o(.ARM.Collect$$libinit$$00000019)
    __rt_lib_init_return                     0x080003bf   Thumb Code     0  libinit2.o(.ARM.Collect$$libinit$$00000033)
    __rt_lib_init_signal_1                   0x080003bf   Thumb Code     0  libinit2.o(.ARM.Collect$$libinit$$0000001D)
    __rt_lib_init_stdio_1                    0x080003bf   Thumb Code     0  libinit2.o(.ARM.Collect$$libinit$$00000025)
    __rt_lib_shutdown                        0x080003c1   Thumb Code     0  libshutdown.o(.ARM.Collect$$libshutdown$$00000000)
    __rt_lib_shutdown_cpp_1                  0x080003c3   Thumb Code     0  libshutdown2.o(.ARM.Collect$$libshutdown$$00000002)
    __rt_lib_shutdown_fp_trap_1              0x080003c3   Thumb Code     0  libshutdown2.o(.ARM.Collect$$libshutdown$$00000007)
    __rt_lib_shutdown_heap_1                 0x080003c3   Thumb Code     0  libshutdown2.o(.ARM.Collect$$libshutdown$$0000000F)
    __rt_lib_shutdown_return                 0x080003c3   Thumb Code     0  libshutdown2.o(.ARM.Collect$$libshutdown$$00000010)
    __rt_lib_shutdown_signal_1               0x080003c3   Thumb Code     0  libshutdown2.o(.ARM.Collect$$libshutdown$$0000000A)
    __rt_lib_shutdown_stdio_1                0x080003c3   Thumb Code     0  libshutdown2.o(.ARM.Collect$$libshutdown$$00000004)
    __rt_lib_shutdown_user_alloc_1           0x080003c3   Thumb Code     0  libshutdown2.o(.ARM.Collect$$libshutdown$$0000000C)
    __rt_entry                               0x080003c5   Thumb Code     0  __rtentry.o(.ARM.Collect$$rtentry$$00000000)
    __rt_entry_presh_1                       0x080003c5   Thumb Code     0  __rtentry2.o(.ARM.Collect$$rtentry$$00000002)
    __rt_entry_sh                            0x080003c5   Thumb Code     0  __rtentry4.o(.ARM.Collect$$rtentry$$00000004)
    __rt_entry_li                            0x080003cb   Thumb Code     0  __rtentry2.o(.ARM.Collect$$rtentry$$0000000A)
    __rt_entry_postsh_1                      0x080003cb   Thumb Code     0  __rtentry2.o(.ARM.Collect$$rtentry$$00000009)
    __rt_entry_main                          0x080003cf   Thumb Code     0  __rtentry2.o(.ARM.Collect$$rtentry$$0000000D)
    __rt_entry_postli_1                      0x080003cf   Thumb Code     0  __rtentry2.o(.ARM.Collect$$rtentry$$0000000C)
    __rt_exit                                0x080003d7   Thumb Code     0  rtexit.o(.ARM.Collect$$rtexit$$00000000)
    __rt_exit_ls                             0x080003d9   Thumb Code     0  rtexit2.o(.ARM.Collect$$rtexit$$00000003)
    __rt_exit_prels_1                        0x080003d9   Thumb Code     0  rtexit2.o(.ARM.Collect$$rtexit$$00000002)
    __rt_exit_exit                           0x080003dd   Thumb Code     0  rtexit2.o(.ARM.Collect$$rtexit$$00000004)
    Reset_Handler                            0x080003e5   Thumb Code     8  startup_stm32h750xx.o(.text)
    ADC3_IRQHandler                          0x080003ff   Thumb Code     0  startup_stm32h750xx.o(.text)
    ADC_IRQHandler                           0x080003ff   Thumb Code     0  startup_stm32h750xx.o(.text)
    BDMA_Channel0_IRQHandler                 0x080003ff   Thumb Code     0  startup_stm32h750xx.o(.text)
    BDMA_Channel1_IRQHandler                 0x080003ff   Thumb Code     0  startup_stm32h750xx.o(.text)
    BDMA_Channel2_IRQHandler                 0x080003ff   Thumb Code     0  startup_stm32h750xx.o(.text)
    BDMA_Channel3_IRQHandler                 0x080003ff   Thumb Code     0  startup_stm32h750xx.o(.text)
    BDMA_Channel4_IRQHandler                 0x080003ff   Thumb Code     0  startup_stm32h750xx.o(.text)
    BDMA_Channel5_IRQHandler                 0x080003ff   Thumb Code     0  startup_stm32h750xx.o(.text)
    BDMA_Channel6_IRQHandler                 0x080003ff   Thumb Code     0  startup_stm32h750xx.o(.text)
    BDMA_Channel7_IRQHandler                 0x080003ff   Thumb Code     0  startup_stm32h750xx.o(.text)
    CEC_IRQHandler                           0x080003ff   Thumb Code     0  startup_stm32h750xx.o(.text)
    COMP1_IRQHandler                         0x080003ff   Thumb Code     0  startup_stm32h750xx.o(.text)
    CRS_IRQHandler                           0x080003ff   Thumb Code     0  startup_stm32h750xx.o(.text)
    CRYP_IRQHandler                          0x080003ff   Thumb Code     0  startup_stm32h750xx.o(.text)
    DCMI_IRQHandler                          0x080003ff   Thumb Code     0  startup_stm32h750xx.o(.text)
    DFSDM1_FLT0_IRQHandler                   0x080003ff   Thumb Code     0  startup_stm32h750xx.o(.text)
    DFSDM1_FLT1_IRQHandler                   0x080003ff   Thumb Code     0  startup_stm32h750xx.o(.text)
    DFSDM1_FLT2_IRQHandler                   0x080003ff   Thumb Code     0  startup_stm32h750xx.o(.text)
    DFSDM1_FLT3_IRQHandler                   0x080003ff   Thumb Code     0  startup_stm32h750xx.o(.text)
    DMA1_Stream0_IRQHandler                  0x080003ff   Thumb Code     0  startup_stm32h750xx.o(.text)
    DMA1_Stream1_IRQHandler                  0x080003ff   Thumb Code     0  startup_stm32h750xx.o(.text)
    DMA1_Stream2_IRQHandler                  0x080003ff   Thumb Code     0  startup_stm32h750xx.o(.text)
    DMA1_Stream3_IRQHandler                  0x080003ff   Thumb Code     0  startup_stm32h750xx.o(.text)
    DMA1_Stream4_IRQHandler                  0x080003ff   Thumb Code     0  startup_stm32h750xx.o(.text)
    DMA1_Stream5_IRQHandler                  0x080003ff   Thumb Code     0  startup_stm32h750xx.o(.text)
    DMA1_Stream6_IRQHandler                  0x080003ff   Thumb Code     0  startup_stm32h750xx.o(.text)
    DMA1_Stream7_IRQHandler                  0x080003ff   Thumb Code     0  startup_stm32h750xx.o(.text)
    DMA2D_IRQHandler                         0x080003ff   Thumb Code     0  startup_stm32h750xx.o(.text)
    DMA2_Stream0_IRQHandler                  0x080003ff   Thumb Code     0  startup_stm32h750xx.o(.text)
    DMA2_Stream1_IRQHandler                  0x080003ff   Thumb Code     0  startup_stm32h750xx.o(.text)
    DMA2_Stream2_IRQHandler                  0x080003ff   Thumb Code     0  startup_stm32h750xx.o(.text)
    DMA2_Stream3_IRQHandler                  0x080003ff   Thumb Code     0  startup_stm32h750xx.o(.text)
    DMA2_Stream4_IRQHandler                  0x080003ff   Thumb Code     0  startup_stm32h750xx.o(.text)
    DMA2_Stream5_IRQHandler                  0x080003ff   Thumb Code     0  startup_stm32h750xx.o(.text)
    DMA2_Stream6_IRQHandler                  0x080003ff   Thumb Code     0  startup_stm32h750xx.o(.text)
    DMA2_Stream7_IRQHandler                  0x080003ff   Thumb Code     0  startup_stm32h750xx.o(.text)
    DMAMUX1_OVR_IRQHandler                   0x080003ff   Thumb Code     0  startup_stm32h750xx.o(.text)
    DMAMUX2_OVR_IRQHandler                   0x080003ff   Thumb Code     0  startup_stm32h750xx.o(.text)
    ECC_IRQHandler                           0x080003ff   Thumb Code     0  startup_stm32h750xx.o(.text)
    ETH_IRQHandler                           0x080003ff   Thumb Code     0  startup_stm32h750xx.o(.text)
    ETH_WKUP_IRQHandler                      0x080003ff   Thumb Code     0  startup_stm32h750xx.o(.text)
    EXTI0_IRQHandler                         0x080003ff   Thumb Code     0  startup_stm32h750xx.o(.text)
    EXTI15_10_IRQHandler                     0x080003ff   Thumb Code     0  startup_stm32h750xx.o(.text)
    EXTI1_IRQHandler                         0x080003ff   Thumb Code     0  startup_stm32h750xx.o(.text)
    EXTI2_IRQHandler                         0x080003ff   Thumb Code     0  startup_stm32h750xx.o(.text)
    EXTI3_IRQHandler                         0x080003ff   Thumb Code     0  startup_stm32h750xx.o(.text)
    EXTI4_IRQHandler                         0x080003ff   Thumb Code     0  startup_stm32h750xx.o(.text)
    EXTI9_5_IRQHandler                       0x080003ff   Thumb Code     0  startup_stm32h750xx.o(.text)
    FDCAN1_IT0_IRQHandler                    0x080003ff   Thumb Code     0  startup_stm32h750xx.o(.text)
    FDCAN1_IT1_IRQHandler                    0x080003ff   Thumb Code     0  startup_stm32h750xx.o(.text)
    FDCAN2_IT0_IRQHandler                    0x080003ff   Thumb Code     0  startup_stm32h750xx.o(.text)
    FDCAN2_IT1_IRQHandler                    0x080003ff   Thumb Code     0  startup_stm32h750xx.o(.text)
    FDCAN_CAL_IRQHandler                     0x080003ff   Thumb Code     0  startup_stm32h750xx.o(.text)
    FLASH_IRQHandler                         0x080003ff   Thumb Code     0  startup_stm32h750xx.o(.text)
    FMC_IRQHandler                           0x080003ff   Thumb Code     0  startup_stm32h750xx.o(.text)
    FPU_IRQHandler                           0x080003ff   Thumb Code     0  startup_stm32h750xx.o(.text)
    HASH_RNG_IRQHandler                      0x080003ff   Thumb Code     0  startup_stm32h750xx.o(.text)
    HRTIM1_FLT_IRQHandler                    0x080003ff   Thumb Code     0  startup_stm32h750xx.o(.text)
    HRTIM1_Master_IRQHandler                 0x080003ff   Thumb Code     0  startup_stm32h750xx.o(.text)
    HRTIM1_TIMA_IRQHandler                   0x080003ff   Thumb Code     0  startup_stm32h750xx.o(.text)
    HRTIM1_TIMB_IRQHandler                   0x080003ff   Thumb Code     0  startup_stm32h750xx.o(.text)
    HRTIM1_TIMC_IRQHandler                   0x080003ff   Thumb Code     0  startup_stm32h750xx.o(.text)
    HRTIM1_TIMD_IRQHandler                   0x080003ff   Thumb Code     0  startup_stm32h750xx.o(.text)
    HRTIM1_TIME_IRQHandler                   0x080003ff   Thumb Code     0  startup_stm32h750xx.o(.text)
    HSEM1_IRQHandler                         0x080003ff   Thumb Code     0  startup_stm32h750xx.o(.text)
    I2C1_ER_IRQHandler                       0x080003ff   Thumb Code     0  startup_stm32h750xx.o(.text)
    I2C1_EV_IRQHandler                       0x080003ff   Thumb Code     0  startup_stm32h750xx.o(.text)
    I2C2_ER_IRQHandler                       0x080003ff   Thumb Code     0  startup_stm32h750xx.o(.text)
    I2C2_EV_IRQHandler                       0x080003ff   Thumb Code     0  startup_stm32h750xx.o(.text)
    I2C3_ER_IRQHandler                       0x080003ff   Thumb Code     0  startup_stm32h750xx.o(.text)
    I2C3_EV_IRQHandler                       0x080003ff   Thumb Code     0  startup_stm32h750xx.o(.text)
    I2C4_ER_IRQHandler                       0x080003ff   Thumb Code     0  startup_stm32h750xx.o(.text)
    I2C4_EV_IRQHandler                       0x080003ff   Thumb Code     0  startup_stm32h750xx.o(.text)
    JPEG_IRQHandler                          0x080003ff   Thumb Code     0  startup_stm32h750xx.o(.text)
    LPTIM1_IRQHandler                        0x080003ff   Thumb Code     0  startup_stm32h750xx.o(.text)
    LPTIM2_IRQHandler                        0x080003ff   Thumb Code     0  startup_stm32h750xx.o(.text)
    LPTIM3_IRQHandler                        0x080003ff   Thumb Code     0  startup_stm32h750xx.o(.text)
    LPTIM4_IRQHandler                        0x080003ff   Thumb Code     0  startup_stm32h750xx.o(.text)
    LPTIM5_IRQHandler                        0x080003ff   Thumb Code     0  startup_stm32h750xx.o(.text)
    LPUART1_IRQHandler                       0x080003ff   Thumb Code     0  startup_stm32h750xx.o(.text)
    LTDC_ER_IRQHandler                       0x080003ff   Thumb Code     0  startup_stm32h750xx.o(.text)
    LTDC_IRQHandler                          0x080003ff   Thumb Code     0  startup_stm32h750xx.o(.text)
    MDIOS_IRQHandler                         0x080003ff   Thumb Code     0  startup_stm32h750xx.o(.text)
    MDIOS_WKUP_IRQHandler                    0x080003ff   Thumb Code     0  startup_stm32h750xx.o(.text)
    MDMA_IRQHandler                          0x080003ff   Thumb Code     0  startup_stm32h750xx.o(.text)
    OTG_FS_EP1_IN_IRQHandler                 0x080003ff   Thumb Code     0  startup_stm32h750xx.o(.text)
    OTG_FS_EP1_OUT_IRQHandler                0x080003ff   Thumb Code     0  startup_stm32h750xx.o(.text)
    OTG_FS_IRQHandler                        0x080003ff   Thumb Code     0  startup_stm32h750xx.o(.text)
    OTG_FS_WKUP_IRQHandler                   0x080003ff   Thumb Code     0  startup_stm32h750xx.o(.text)
    OTG_HS_EP1_IN_IRQHandler                 0x080003ff   Thumb Code     0  startup_stm32h750xx.o(.text)
    OTG_HS_EP1_OUT_IRQHandler                0x080003ff   Thumb Code     0  startup_stm32h750xx.o(.text)
    OTG_HS_IRQHandler                        0x080003ff   Thumb Code     0  startup_stm32h750xx.o(.text)
    OTG_HS_WKUP_IRQHandler                   0x080003ff   Thumb Code     0  startup_stm32h750xx.o(.text)
    PVD_AVD_IRQHandler                       0x080003ff   Thumb Code     0  startup_stm32h750xx.o(.text)
    QUADSPI_IRQHandler                       0x080003ff   Thumb Code     0  startup_stm32h750xx.o(.text)
    RCC_IRQHandler                           0x080003ff   Thumb Code     0  startup_stm32h750xx.o(.text)
    RTC_Alarm_IRQHandler                     0x080003ff   Thumb Code     0  startup_stm32h750xx.o(.text)
    RTC_WKUP_IRQHandler                      0x080003ff   Thumb Code     0  startup_stm32h750xx.o(.text)
    SAI1_IRQHandler                          0x080003ff   Thumb Code     0  startup_stm32h750xx.o(.text)
    SAI2_IRQHandler                          0x080003ff   Thumb Code     0  startup_stm32h750xx.o(.text)
    SAI3_IRQHandler                          0x080003ff   Thumb Code     0  startup_stm32h750xx.o(.text)
    SAI4_IRQHandler                          0x080003ff   Thumb Code     0  startup_stm32h750xx.o(.text)
    SDMMC1_IRQHandler                        0x080003ff   Thumb Code     0  startup_stm32h750xx.o(.text)
    SDMMC2_IRQHandler                        0x080003ff   Thumb Code     0  startup_stm32h750xx.o(.text)
    SPDIF_RX_IRQHandler                      0x080003ff   Thumb Code     0  startup_stm32h750xx.o(.text)
    SPI1_IRQHandler                          0x080003ff   Thumb Code     0  startup_stm32h750xx.o(.text)
    SPI2_IRQHandler                          0x080003ff   Thumb Code     0  startup_stm32h750xx.o(.text)
    SPI3_IRQHandler                          0x080003ff   Thumb Code     0  startup_stm32h750xx.o(.text)
    SPI4_IRQHandler                          0x080003ff   Thumb Code     0  startup_stm32h750xx.o(.text)
    SPI5_IRQHandler                          0x080003ff   Thumb Code     0  startup_stm32h750xx.o(.text)
    SPI6_IRQHandler                          0x080003ff   Thumb Code     0  startup_stm32h750xx.o(.text)
    SWPMI1_IRQHandler                        0x080003ff   Thumb Code     0  startup_stm32h750xx.o(.text)
    TAMP_STAMP_IRQHandler                    0x080003ff   Thumb Code     0  startup_stm32h750xx.o(.text)
    TIM15_IRQHandler                         0x080003ff   Thumb Code     0  startup_stm32h750xx.o(.text)
    TIM16_IRQHandler                         0x080003ff   Thumb Code     0  startup_stm32h750xx.o(.text)
    TIM17_IRQHandler                         0x080003ff   Thumb Code     0  startup_stm32h750xx.o(.text)
    TIM1_BRK_IRQHandler                      0x080003ff   Thumb Code     0  startup_stm32h750xx.o(.text)
    TIM1_CC_IRQHandler                       0x080003ff   Thumb Code     0  startup_stm32h750xx.o(.text)
    TIM1_TRG_COM_IRQHandler                  0x080003ff   Thumb Code     0  startup_stm32h750xx.o(.text)
    TIM1_UP_IRQHandler                       0x080003ff   Thumb Code     0  startup_stm32h750xx.o(.text)
    TIM2_IRQHandler                          0x080003ff   Thumb Code     0  startup_stm32h750xx.o(.text)
    TIM3_IRQHandler                          0x080003ff   Thumb Code     0  startup_stm32h750xx.o(.text)
    TIM4_IRQHandler                          0x080003ff   Thumb Code     0  startup_stm32h750xx.o(.text)
    TIM5_IRQHandler                          0x080003ff   Thumb Code     0  startup_stm32h750xx.o(.text)
    TIM6_DAC_IRQHandler                      0x080003ff   Thumb Code     0  startup_stm32h750xx.o(.text)
    TIM7_IRQHandler                          0x080003ff   Thumb Code     0  startup_stm32h750xx.o(.text)
    TIM8_BRK_TIM12_IRQHandler                0x080003ff   Thumb Code     0  startup_stm32h750xx.o(.text)
    TIM8_CC_IRQHandler                       0x080003ff   Thumb Code     0  startup_stm32h750xx.o(.text)
    TIM8_TRG_COM_TIM14_IRQHandler            0x080003ff   Thumb Code     0  startup_stm32h750xx.o(.text)
    TIM8_UP_TIM13_IRQHandler                 0x080003ff   Thumb Code     0  startup_stm32h750xx.o(.text)
    UART4_IRQHandler                         0x080003ff   Thumb Code     0  startup_stm32h750xx.o(.text)
    UART5_IRQHandler                         0x080003ff   Thumb Code     0  startup_stm32h750xx.o(.text)
    UART7_IRQHandler                         0x080003ff   Thumb Code     0  startup_stm32h750xx.o(.text)
    UART8_IRQHandler                         0x080003ff   Thumb Code     0  startup_stm32h750xx.o(.text)
    USART1_IRQHandler                        0x080003ff   Thumb Code     0  startup_stm32h750xx.o(.text)
    USART2_IRQHandler                        0x080003ff   Thumb Code     0  startup_stm32h750xx.o(.text)
    USART3_IRQHandler                        0x080003ff   Thumb Code     0  startup_stm32h750xx.o(.text)
    USART6_IRQHandler                        0x080003ff   Thumb Code     0  startup_stm32h750xx.o(.text)
    WAKEUP_PIN_IRQHandler                    0x080003ff   Thumb Code     0  startup_stm32h750xx.o(.text)
    WWDG_IRQHandler                          0x080003ff   Thumb Code     0  startup_stm32h750xx.o(.text)
    __user_initial_stackheap                 0x08000401   Thumb Code     0  startup_stm32h750xx.o(.text)
    vsnprintf                                0x08000425   Thumb Code    48  vsnprintf.o(.text)
    __aeabi_memset4                          0x08000459   Thumb Code    16  aeabi_memset4.o(.text)
    __aeabi_memset8                          0x08000459   Thumb Code     0  aeabi_memset4.o(.text)
    __aeabi_memclr4                          0x08000469   Thumb Code     0  rt_memclr_w.o(.text)
    __aeabi_memclr8                          0x08000469   Thumb Code     0  rt_memclr_w.o(.text)
    __rt_memclr_w                            0x08000469   Thumb Code    78  rt_memclr_w.o(.text)
    _memset_w                                0x0800046d   Thumb Code     0  rt_memclr_w.o(.text)
    __use_two_region_memory                  0x080004b7   Thumb Code     2  heapauxi.o(.text)
    __rt_heap_escrow$2region                 0x080004b9   Thumb Code     2  heapauxi.o(.text)
    __rt_heap_expand$2region                 0x080004bb   Thumb Code     2  heapauxi.o(.text)
    _printf_pre_padding                      0x080004bd   Thumb Code    44  _printf_pad.o(.text)
    _printf_post_padding                     0x080004e9   Thumb Code    34  _printf_pad.o(.text)
    _printf_truncate_signed                  0x0800050b   Thumb Code    18  _printf_truncate.o(.text)
    _printf_truncate_unsigned                0x0800051d   Thumb Code    18  _printf_truncate.o(.text)
    _printf_str                              0x0800052f   Thumb Code    82  _printf_str.o(.text)
    _printf_int_dec                          0x08000581   Thumb Code   104  _printf_dec.o(.text)
    _printf_charcount                        0x080005f9   Thumb Code    40  _printf_charcount.o(.text)
    _printf_char_common                      0x0800062b   Thumb Code    32  _printf_char_common.o(.text)
    _sputc                                   0x08000651   Thumb Code    10  _sputc.o(.text)
    _snputc                                  0x0800065b   Thumb Code    16  _snputc.o(.text)
    _printf_wctomb                           0x0800066d   Thumb Code   182  _printf_wctomb.o(.text)
    _printf_longlong_dec                     0x08000729   Thumb Code   108  _printf_longlong_dec.o(.text)
    _printf_longlong_oct                     0x080007a5   Thumb Code    68  _printf_oct_int_ll.o(.text)
    _printf_int_oct                          0x080007e9   Thumb Code    24  _printf_oct_int_ll.o(.text)
    _printf_ll_oct                           0x08000801   Thumb Code    12  _printf_oct_int_ll.o(.text)
    _printf_longlong_hex                     0x08000815   Thumb Code    86  _printf_hex_int_ll_ptr.o(.text)
    _printf_int_hex                          0x0800086b   Thumb Code    28  _printf_hex_int_ll_ptr.o(.text)
    _printf_ll_hex                           0x08000887   Thumb Code    12  _printf_hex_int_ll_ptr.o(.text)
    _printf_hex_ptr                          0x08000893   Thumb Code    18  _printf_hex_int_ll_ptr.o(.text)
    __printf                                 0x080008a9   Thumb Code   388  __printf_flags_ss_wp.o(.text)
    _ll_udiv10                               0x08000a31   Thumb Code   138  lludiv10.o(.text)
    _printf_int_common                       0x08000abb   Thumb Code   178  _printf_intcommon.o(.text)
    _printf_fp_dec_real                      0x08000d1d   Thumb Code   620  _printf_fp_dec.o(.text)
    _printf_fp_hex_real                      0x08000f89   Thumb Code   756  _printf_fp_hex.o(.text)
    _printf_cs_common                        0x08001285   Thumb Code    20  _printf_char.o(.text)
    _printf_char                             0x08001299   Thumb Code    16  _printf_char.o(.text)
    _printf_string                           0x080012a9   Thumb Code     8  _printf_char.o(.text)
    _printf_lcs_common                       0x080012b1   Thumb Code    20  _printf_wchar.o(.text)
    _printf_wchar                            0x080012c5   Thumb Code    16  _printf_wchar.o(.text)
    _printf_wstring                          0x080012d5   Thumb Code     8  _printf_wchar.o(.text)
    _c16rtomb                                0x080012dd   Thumb Code    72  _c16rtomb.o(.text)
    _wcrtomb                                 0x080012dd   Thumb Code     0  _c16rtomb.o(.text)
    __user_libspace                          0x08001325   Thumb Code     8  libspace.o(.text)
    __user_perproc_libspace                  0x08001325   Thumb Code     0  libspace.o(.text)
    __user_perthread_libspace                0x08001325   Thumb Code     0  libspace.o(.text)
    __user_setup_stackheap                   0x0800132d   Thumb Code    74  sys_stackheap_outer.o(.text)
    __rt_ctype_table                         0x08001379   Thumb Code    16  rt_ctype_table.o(.text)
    __rt_locale                              0x08001389   Thumb Code     8  rt_locale_intlibspace.o(.text)
    _printf_fp_infnan                        0x08001391   Thumb Code   112  _printf_fp_infnan.o(.text)
    _btod_etento                             0x08001411   Thumb Code   224  bigflt0.o(.text)
    exit                                     0x080014f5   Thumb Code    18  exit.o(.text)
    strcmp                                   0x08001509   Thumb Code   124  strcmpv7m_pel.o(.text)
    _sys_exit                                0x08001585   Thumb Code     8  sys_exit.o(.text)
    __I$use$semihosting                      0x08001591   Thumb Code     0  use_no_semi.o(.text)
    __use_no_semihosting_swi                 0x08001591   Thumb Code     2  use_no_semi.o(.text)
    __semihosting_library_function           0x08001593   Thumb Code     0  indicate_semi.o(.text)
    Buf_OLED2LCD                             0x08001599   Thumb Code   112  oled_buffer.o(.text.Buf_OLED2LCD)
    BusFault_Handler                         0x08001609   Thumb Code     2  stm32h7xx_it.o(.text.BusFault_Handler)
    DebugMon_Handler                         0x08001611   Thumb Code     2  stm32h7xx_it.o(.text.DebugMon_Handler)
    DriverInit                               0x08001619   Thumb Code     8  oled_config.o(.text.DriverInit)
    Error_Handler                            0x08001621   Thumb Code    10  main.o(.text.Error_Handler)
    FillByte                                 0x08001631   Thumb Code    48  oled_basic.o(.text.FillByte)
    FillRect                                 0x08001661   Thumb Code   206  oled_basic.o(.text.FillRect)
    Front_Get_Type                           0x08001731   Thumb Code    50  oled_driver.o(.text.Front_Get_Type)
    GetDrawColor                             0x08001769   Thumb Code    12  oled_color.o(.text.GetDrawColor)
    GetFillColor                             0x08001779   Thumb Code    12  oled_color.o(.text.GetFillColor)
    HAL_Delay                                0x08001789   Thumb Code    40  stm32h7xx_hal.o(.text.HAL_Delay)
    HAL_GPIO_Init                            0x080017b1   Thumb Code   422  stm32h7xx_hal_gpio.o(.text.HAL_GPIO_Init)
    HAL_GPIO_TogglePin                       0x08001959   Thumb Code    16  stm32h7xx_hal_gpio.o(.text.HAL_GPIO_TogglePin)
    HAL_GPIO_WritePin                        0x08001969   Thumb Code    10  stm32h7xx_hal_gpio.o(.text.HAL_GPIO_WritePin)
    HAL_GetREVID                             0x08001979   Thumb Code    14  stm32h7xx_hal.o(.text.HAL_GetREVID)
    HAL_GetTick                              0x08001989   Thumb Code    12  stm32h7xx_hal.o(.text.HAL_GetTick)
    HAL_IncTick                              0x08001999   Thumb Code    26  stm32h7xx_hal.o(.text.HAL_IncTick)
    HAL_Init                                 0x080019b9   Thumb Code   100  stm32h7xx_hal.o(.text.HAL_Init)
    HAL_InitTick                             0x08001a21   Thumb Code    84  stm32h7xx_hal.o(.text.HAL_InitTick)
    HAL_MspInit                              0x08001a79   Thumb Code    40  stm32h7xx_hal_msp.o(.text.HAL_MspInit)
    HAL_NVIC_SetPriority                     0x08001aa1   Thumb Code    30  stm32h7xx_hal_cortex.o(.text.HAL_NVIC_SetPriority)
    HAL_NVIC_SetPriorityGrouping             0x08001ac1   Thumb Code     8  stm32h7xx_hal_cortex.o(.text.HAL_NVIC_SetPriorityGrouping)
    HAL_PWREx_ConfigSupply                   0x08001ac9   Thumb Code    72  stm32h7xx_hal_pwr_ex.o(.text.HAL_PWREx_ConfigSupply)
    HAL_RCCEx_PeriphCLKConfig                0x08001b11   Thumb Code  2400  stm32h7xx_hal_rcc_ex.o(.text.HAL_RCCEx_PeriphCLKConfig)
    HAL_RCC_ClockConfig                      0x08002471   Thumb Code   596  stm32h7xx_hal_rcc.o(.text.HAL_RCC_ClockConfig)
    HAL_RCC_GetSysClockFreq                  0x080026c9   Thumb Code   264  stm32h7xx_hal_rcc.o(.text.HAL_RCC_GetSysClockFreq)
    HAL_RCC_OscConfig                        0x080027d1   Thumb Code  1520  stm32h7xx_hal_rcc.o(.text.HAL_RCC_OscConfig)
    HAL_SPI_Init                             0x08002dc1   Thumb Code   336  stm32h7xx_hal_spi.o(.text.HAL_SPI_Init)
    HAL_SPI_MspInit                          0x08002f11   Thumb Code   168  spi.o(.text.HAL_SPI_MspInit)
    HAL_SPI_Receive                          0x08002fb9   Thumb Code   594  stm32h7xx_hal_spi.o(.text.HAL_SPI_Receive)
    HAL_SPI_Transmit                         0x08003211   Thumb Code   586  stm32h7xx_hal_spi.o(.text.HAL_SPI_Transmit)
    HAL_SPI_TransmitReceive                  0x08003461   Thumb Code   806  stm32h7xx_hal_spi.o(.text.HAL_SPI_TransmitReceive)
    HAL_SYSTICK_Config                       0x08003789   Thumb Code     8  stm32h7xx_hal_cortex.o(.text.HAL_SYSTICK_Config)
    HAL_TIMEx_MasterConfigSynchronization    0x08003791   Thumb Code   182  stm32h7xx_hal_tim_ex.o(.text.HAL_TIMEx_MasterConfigSynchronization)
    HAL_TIM_Base_Init                        0x08003849   Thumb Code    96  stm32h7xx_hal_tim.o(.text.HAL_TIM_Base_Init)
    HAL_TIM_Base_MspInit                     0x080038a9   Thumb Code    48  tim.o(.text.HAL_TIM_Base_MspInit)
    HAL_TIM_ConfigClockSource                0x080038d9   Thumb Code   260  stm32h7xx_hal_tim.o(.text.HAL_TIM_ConfigClockSource)
    HardFault_Handler                        0x080039e1   Thumb Code     2  stm32h7xx_it.o(.text.HardFault_Handler)
    InitGraph                                0x080039e9   Thumb Code     8  oled_basic.o(.text.InitGraph)
    LCD_Address_Set                          0x080039f1   Thumb Code    70  oled_driver.o(.text.LCD_Address_Set)
    LCD_FILL                                 0x08003a39   Thumb Code    42  oled_driver.o(.text.LCD_FILL)
    LCD_Init                                 0x08003a69   Thumb Code   544  oled_driver.o(.text.LCD_Init)
    LCD_WR_DATA                              0x08003c89   Thumb Code    68  oled_driver.o(.text.LCD_WR_DATA)
    LCD_WR_DATA8                             0x08003cd1   Thumb Code     8  oled_driver.o(.text.LCD_WR_DATA8)
    LCD_WR_Plenty_Dat                        0x08003cd9   Thumb Code    72  oled_driver.o(.text.LCD_WR_Plenty_Dat)
    LCD_WR_REG                               0x08003d21   Thumb Code    44  oled_driver.o(.text.LCD_WR_REG)
    LCD_Writ_Bus                             0x08003d51   Thumb Code    66  oled_driver.o(.text.LCD_Writ_Bus)
    MX_GPIO_Init                             0x08003d99   Thumb Code   200  gpio.o(.text.MX_GPIO_Init)
    MX_SPI2_Init                             0x08003e61   Thumb Code   100  spi.o(.text.MX_SPI2_Init)
    MX_TIM1_Init                             0x08003ec9   Thumb Code   120  tim.o(.text.MX_TIM1_Init)
    MemManage_Handler                        0x08003f41   Thumb Code     2  stm32h7xx_it.o(.text.MemManage_Handler)
    NMI_Handler                              0x08003f49   Thumb Code     2  stm32h7xx_it.o(.text.NMI_Handler)
    OLED_Background                          0x08003f81   Thumb Code    30  oled_draw.o(.text.OLED_Background)
    OLED_ClearScreenBuffer                   0x08003fa1   Thumb Code    22  oled_buffer.o(.text.OLED_ClearScreenBuffer)
    OLED_FastHLine                           0x08003fb9   Thumb Code    52  oled_draw.o(.text.OLED_FastHLine)
    OLED_FastVLine                           0x08003ff1   Thumb Code    52  oled_draw.o(.text.OLED_FastVLine)
    OLED_FillCircle                          0x08004029   Thumb Code    44  oled_draw.o(.text.OLED_FillCircle)
    OLED_FillCircleHelper                    0x08004059   Thumb Code   204  oled_draw.o(.text.OLED_FillCircleHelper)
    OLED_FillRect2                           0x08004129   Thumb Code    32  oled_draw.o(.text.OLED_FillRect2)
    OLED_FillRoundRect                       0x08004149   Thumb Code    82  oled_draw.o(.text.OLED_FillRoundRect)
    OLED_FillTriangle                        0x080041a1   Thumb Code   394  oled_draw.o(.text.OLED_FillTriangle)
    OLED_GBString                            0x08004331   Thumb Code   368  oled_draw.o(.text.OLED_GBString)
    OLED_Get_front                           0x080044a1   Thumb Code   196  oled_driver.o(.text.OLED_Get_front)
    OLED_Line                                0x08004569   Thumb Code   178  oled_draw.o(.text.OLED_Line)
    OLED_Rect2                               0x08004621   Thumb Code    68  oled_draw.o(.text.OLED_Rect2)
    OLED_Set_DrawColor                       0x08004669   Thumb Code    12  oled_color.o(.text.OLED_Set_DrawColor)
    OLED_UpdateScreen                        0x08004679   Thumb Code     8  oled_basic.o(.text.OLED_UpdateScreen)
    OLED_UpdateScreenBuffer                  0x08004681   Thumb Code    16  oled_config.o(.text.OLED_UpdateScreenBuffer)
    OLED_UpdateScreenDisplay                 0x08004691   Thumb Code     8  oled_buffer.o(.text.OLED_UpdateScreenDisplay)
    PendSV_Handler                           0x08004699   Thumb Code     2  stm32h7xx_it.o(.text.PendSV_Handler)
    Printf2Buf                               0x080046a1   Thumb Code    34  mystring.o(.text.Printf2Buf)
    ReadByteBuffer                           0x08004909   Thumb Code    20  oled_buffer.o(.text.ReadByteBuffer)
    SVC_Handler                              0x08004a21   Thumb Code     2  stm32h7xx_it.o(.text.SVC_Handler)
    SetPointBuffer                           0x08004a29   Thumb Code    72  oled_buffer.o(.text.SetPointBuffer)
    SysTick_Handler                          0x08004aa1   Thumb Code     8  stm32h7xx_it.o(.text.SysTick_Handler)
    SystemClock_Config                       0x08004aa9   Thumb Code   206  main.o(.text.SystemClock_Config)
    SystemInit                               0x08004b79   Thumb Code   218  system_stm32h7xx.o(.text.SystemInit)
    TIM_Base_SetConfig                       0x08004c59   Thumb Code   314  stm32h7xx_hal_tim.o(.text.TIM_Base_SetConfig)
    TIM_ETR_SetConfig                        0x08004d99   Thumb Code    20  stm32h7xx_hal_tim.o(.text.TIM_ETR_SetConfig)
    UsageFault_Handler                       0x08004e19   Thumb Code     2  stm32h7xx_it.o(.text.UsageFault_Handler)
    WriteByteBuffer                          0x08004e21   Thumb Code    20  oled_buffer.o(.text.WriteByteBuffer)
    main                                     0x08004e91   Thumb Code   324  main.o(.text.main)
    _btod_d2e                                0x08004fd5   Thumb Code    62  btod.o(CL$$btod_d2e)
    _d2e_denorm_low                          0x08005013   Thumb Code    70  btod.o(CL$$btod_d2e_denorm_low)
    _d2e_norm_op1                            0x08005059   Thumb Code    96  btod.o(CL$$btod_d2e_norm_op1)
    __btod_div_common                        0x080050b9   Thumb Code   696  btod.o(CL$$btod_div_common)
    _e2e                                     0x080053f1   Thumb Code   220  btod.o(CL$$btod_e2e)
    _btod_ediv                               0x080054cd   Thumb Code    42  btod.o(CL$$btod_ediv)
    _btod_emul                               0x080054f7   Thumb Code    42  btod.o(CL$$btod_emul)
    __btod_mult_common                       0x08005521   Thumb Code   580  btod.o(CL$$btod_mult_common)
    __ARM_fpclassify                         0x08005765   Thumb Code    48  fpclassify.o(i.__ARM_fpclassify)
    _is_digit                                0x08005795   Thumb Code    14  __printf_wp.o(i._is_digit)
    _get_lc_numeric                          0x080057a5   Thumb Code    44  lc_numeric_c.o(locale$$code)
    _get_lc_ctype                            0x080057d1   Thumb Code    44  lc_ctype_c.o(locale$$code)
    _fp_init                                 0x080057fd   Thumb Code    26  fpinit.o(x$fpl$fpinit)
    __fplib_config_fpu_vfp                   0x08005815   Thumb Code     0  fpinit.o(x$fpl$fpinit)
    __fplib_config_pureend_doubles           0x08005815   Thumb Code     0  fpinit.o(x$fpl$fpinit)
    _printf_fp_dec                           0x08005817   Thumb Code     4  printf1.o(x$fpl$printf1)
    _printf_fp_hex                           0x0800581b   Thumb Code     4  printf2.o(x$fpl$printf2)
    __I$use$fp                               0x0800581e   Number         0  usenofp.o(x$fpl$usenofp)
    D1CorePrescTable                         0x0800591c   Data          16  system_stm32h7xx.o(.rodata.D1CorePrescTable)
    Region$$Table$$Base                      0x08005934   Number         0  anon$$obj.o(Region$$Table)
    Region$$Table$$Limit                     0x08005954   Number         0  anon$$obj.o(Region$$Table)
    __ctype                                  0x0800597d   Data           0  lc_ctype_c.o(locale$$data)
    SystemCoreClock                          0x24000000   Data           4  system_stm32h7xx.o(.data.SystemCoreClock)
    SystemD2Clock                            0x24000004   Data           4  system_stm32h7xx.o(.data.SystemD2Clock)
    uwTickFreq                               0x2400000a   Data           1  stm32h7xx_hal.o(.data.uwTickFreq)
    uwTickPrio                               0x2400000c   Data           4  stm32h7xx_hal.o(.data.uwTickPrio)
    __libspace_start                         0x24000010   Data          96  libspace.o(.bss)
    LCDBuffer                                0x24000070   Data       25600  oled_buffer.o(.bss.LCDBuffer)
    __temporary_stack_top$libspace           0x24000070   Data           0  libspace.o(.bss)
    ScreenBuffer                             0x24006470   Data        1600  oled_buffer.o(.bss.ScreenBuffer)
    hspi2                                    0x24006ab0   Data         136  spi.o(.bss.hspi2)
    htim1                                    0x24006b38   Data          76  tim.o(.bss.htim1)
    uwTick                                   0x24006b84   Data           4  stm32h7xx_hal.o(.bss.uwTick)



==============================================================================

Memory Map of the image

  Image Entry point : 0x08000299

  Load Region LR_IROM1 (Base: 0x08000000, Size: 0x00005a90, Max: 0x00020000, ABSOLUTE)

    Execution Region ER_IROM1 (Exec base: 0x08000000, Load base: 0x08000000, Size: 0x00005a80, Max: 0x00020000, ABSOLUTE)

    Exec Addr    Load Addr    Size         Type   Attr      Idx    E Section Name        Object

    0x08000000   0x08000000   0x00000298   Data   RO            3    RESET               startup_stm32h750xx.o
    0x08000298   0x08000298   0x00000008   Code   RO         1759  * !!!main             c_w.l(__main.o)
    0x080002a0   0x080002a0   0x00000034   Code   RO         2162    !!!scatter          c_w.l(__scatter.o)
    0x080002d4   0x080002d4   0x0000001a   Code   RO         2164    !!handler_copy      c_w.l(__scatter_copy.o)
    0x080002ee   0x080002ee   0x00000002   PAD
    0x080002f0   0x080002f0   0x0000001c   Code   RO         2166    !!handler_zi        c_w.l(__scatter_zi.o)
    0x0800030c   0x0800030c   0x00000000   Code   RO         1865    .ARM.Collect$$_printf_percent$$00000000  c_w.l(_printf_percent.o)
    0x0800030c   0x0800030c   0x00000006   Code   RO         1854    .ARM.Collect$$_printf_percent$$00000001  c_w.l(_printf_n.o)
    0x08000312   0x08000312   0x00000006   Code   RO         1856    .ARM.Collect$$_printf_percent$$00000002  c_w.l(_printf_p.o)
    0x08000318   0x08000318   0x00000006   Code   RO         1861    .ARM.Collect$$_printf_percent$$00000003  c_w.l(_printf_f.o)
    0x0800031e   0x0800031e   0x00000006   Code   RO         1862    .ARM.Collect$$_printf_percent$$00000004  c_w.l(_printf_e.o)
    0x08000324   0x08000324   0x00000006   Code   RO         1863    .ARM.Collect$$_printf_percent$$00000005  c_w.l(_printf_g.o)
    0x0800032a   0x0800032a   0x00000006   Code   RO         1864    .ARM.Collect$$_printf_percent$$00000006  c_w.l(_printf_a.o)
    0x08000330   0x08000330   0x0000000a   Code   RO         1869    .ARM.Collect$$_printf_percent$$00000007  c_w.l(_printf_ll.o)
    0x0800033a   0x0800033a   0x00000006   Code   RO         1858    .ARM.Collect$$_printf_percent$$00000008  c_w.l(_printf_i.o)
    0x08000340   0x08000340   0x00000006   Code   RO         1859    .ARM.Collect$$_printf_percent$$00000009  c_w.l(_printf_d.o)
    0x08000346   0x08000346   0x00000006   Code   RO         1860    .ARM.Collect$$_printf_percent$$0000000A  c_w.l(_printf_u.o)
    0x0800034c   0x0800034c   0x00000006   Code   RO         1857    .ARM.Collect$$_printf_percent$$0000000B  c_w.l(_printf_o.o)
    0x08000352   0x08000352   0x00000006   Code   RO         1855    .ARM.Collect$$_printf_percent$$0000000C  c_w.l(_printf_x.o)
    0x08000358   0x08000358   0x00000006   Code   RO         1866    .ARM.Collect$$_printf_percent$$0000000D  c_w.l(_printf_lli.o)
    0x0800035e   0x0800035e   0x00000006   Code   RO         1867    .ARM.Collect$$_printf_percent$$0000000E  c_w.l(_printf_lld.o)
    0x08000364   0x08000364   0x00000006   Code   RO         1868    .ARM.Collect$$_printf_percent$$0000000F  c_w.l(_printf_llu.o)
    0x0800036a   0x0800036a   0x00000006   Code   RO         1873    .ARM.Collect$$_printf_percent$$00000010  c_w.l(_printf_llo.o)
    0x08000370   0x08000370   0x00000006   Code   RO         1874    .ARM.Collect$$_printf_percent$$00000011  c_w.l(_printf_llx.o)
    0x08000376   0x08000376   0x0000000a   Code   RO         1870    .ARM.Collect$$_printf_percent$$00000012  c_w.l(_printf_l.o)
    0x08000380   0x08000380   0x00000006   Code   RO         1852    .ARM.Collect$$_printf_percent$$00000013  c_w.l(_printf_c.o)
    0x08000386   0x08000386   0x00000006   Code   RO         1853    .ARM.Collect$$_printf_percent$$00000014  c_w.l(_printf_s.o)
    0x0800038c   0x0800038c   0x00000006   Code   RO         1871    .ARM.Collect$$_printf_percent$$00000015  c_w.l(_printf_lc.o)
    0x08000392   0x08000392   0x00000006   Code   RO         1872    .ARM.Collect$$_printf_percent$$00000016  c_w.l(_printf_ls.o)
    0x08000398   0x08000398   0x00000004   Code   RO         1960    .ARM.Collect$$_printf_percent$$00000017  c_w.l(_printf_percent_end.o)
    0x0800039c   0x0800039c   0x00000002   Code   RO         2018    .ARM.Collect$$libinit$$00000000  c_w.l(libinit.o)
    0x0800039e   0x0800039e   0x00000004   Code   RO         2030    .ARM.Collect$$libinit$$00000001  c_w.l(libinit2.o)
    0x080003a2   0x080003a2   0x00000000   Code   RO         2033    .ARM.Collect$$libinit$$00000004  c_w.l(libinit2.o)
    0x080003a2   0x080003a2   0x00000000   Code   RO         2036    .ARM.Collect$$libinit$$0000000A  c_w.l(libinit2.o)
    0x080003a2   0x080003a2   0x00000000   Code   RO         2038    .ARM.Collect$$libinit$$0000000C  c_w.l(libinit2.o)
    0x080003a2   0x080003a2   0x00000000   Code   RO         2040    .ARM.Collect$$libinit$$0000000E  c_w.l(libinit2.o)
    0x080003a2   0x080003a2   0x00000006   Code   RO         2041    .ARM.Collect$$libinit$$0000000F  c_w.l(libinit2.o)
    0x080003a8   0x080003a8   0x00000000   Code   RO         2043    .ARM.Collect$$libinit$$00000011  c_w.l(libinit2.o)
    0x080003a8   0x080003a8   0x0000000c   Code   RO         2044    .ARM.Collect$$libinit$$00000012  c_w.l(libinit2.o)
    0x080003b4   0x080003b4   0x00000000   Code   RO         2045    .ARM.Collect$$libinit$$00000013  c_w.l(libinit2.o)
    0x080003b4   0x080003b4   0x00000000   Code   RO         2047    .ARM.Collect$$libinit$$00000015  c_w.l(libinit2.o)
    0x080003b4   0x080003b4   0x0000000a   Code   RO         2048    .ARM.Collect$$libinit$$00000016  c_w.l(libinit2.o)
    0x080003be   0x080003be   0x00000000   Code   RO         2049    .ARM.Collect$$libinit$$00000017  c_w.l(libinit2.o)
    0x080003be   0x080003be   0x00000000   Code   RO         2051    .ARM.Collect$$libinit$$00000019  c_w.l(libinit2.o)
    0x080003be   0x080003be   0x00000000   Code   RO         2053    .ARM.Collect$$libinit$$0000001B  c_w.l(libinit2.o)
    0x080003be   0x080003be   0x00000000   Code   RO         2055    .ARM.Collect$$libinit$$0000001D  c_w.l(libinit2.o)
    0x080003be   0x080003be   0x00000000   Code   RO         2057    .ARM.Collect$$libinit$$0000001F  c_w.l(libinit2.o)
    0x080003be   0x080003be   0x00000000   Code   RO         2059    .ARM.Collect$$libinit$$00000021  c_w.l(libinit2.o)
    0x080003be   0x080003be   0x00000000   Code   RO         2061    .ARM.Collect$$libinit$$00000023  c_w.l(libinit2.o)
    0x080003be   0x080003be   0x00000000   Code   RO         2063    .ARM.Collect$$libinit$$00000025  c_w.l(libinit2.o)
    0x080003be   0x080003be   0x00000000   Code   RO         2067    .ARM.Collect$$libinit$$0000002C  c_w.l(libinit2.o)
    0x080003be   0x080003be   0x00000000   Code   RO         2069    .ARM.Collect$$libinit$$0000002E  c_w.l(libinit2.o)
    0x080003be   0x080003be   0x00000000   Code   RO         2071    .ARM.Collect$$libinit$$00000030  c_w.l(libinit2.o)
    0x080003be   0x080003be   0x00000000   Code   RO         2073    .ARM.Collect$$libinit$$00000032  c_w.l(libinit2.o)
    0x080003be   0x080003be   0x00000002   Code   RO         2074    .ARM.Collect$$libinit$$00000033  c_w.l(libinit2.o)
    0x080003c0   0x080003c0   0x00000002   Code   RO         2098    .ARM.Collect$$libshutdown$$00000000  c_w.l(libshutdown.o)
    0x080003c2   0x080003c2   0x00000000   Code   RO         2113    .ARM.Collect$$libshutdown$$00000002  c_w.l(libshutdown2.o)
    0x080003c2   0x080003c2   0x00000000   Code   RO         2115    .ARM.Collect$$libshutdown$$00000004  c_w.l(libshutdown2.o)
    0x080003c2   0x080003c2   0x00000000   Code   RO         2118    .ARM.Collect$$libshutdown$$00000007  c_w.l(libshutdown2.o)
    0x080003c2   0x080003c2   0x00000000   Code   RO         2121    .ARM.Collect$$libshutdown$$0000000A  c_w.l(libshutdown2.o)
    0x080003c2   0x080003c2   0x00000000   Code   RO         2123    .ARM.Collect$$libshutdown$$0000000C  c_w.l(libshutdown2.o)
    0x080003c2   0x080003c2   0x00000000   Code   RO         2126    .ARM.Collect$$libshutdown$$0000000F  c_w.l(libshutdown2.o)
    0x080003c2   0x080003c2   0x00000002   Code   RO         2127    .ARM.Collect$$libshutdown$$00000010  c_w.l(libshutdown2.o)
    0x080003c4   0x080003c4   0x00000000   Code   RO         1779    .ARM.Collect$$rtentry$$00000000  c_w.l(__rtentry.o)
    0x080003c4   0x080003c4   0x00000000   Code   RO         1924    .ARM.Collect$$rtentry$$00000002  c_w.l(__rtentry2.o)
    0x080003c4   0x080003c4   0x00000006   Code   RO         1936    .ARM.Collect$$rtentry$$00000004  c_w.l(__rtentry4.o)
    0x080003ca   0x080003ca   0x00000000   Code   RO         1926    .ARM.Collect$$rtentry$$00000009  c_w.l(__rtentry2.o)
    0x080003ca   0x080003ca   0x00000004   Code   RO         1927    .ARM.Collect$$rtentry$$0000000A  c_w.l(__rtentry2.o)
    0x080003ce   0x080003ce   0x00000000   Code   RO         1929    .ARM.Collect$$rtentry$$0000000C  c_w.l(__rtentry2.o)
    0x080003ce   0x080003ce   0x00000008   Code   RO         1930    .ARM.Collect$$rtentry$$0000000D  c_w.l(__rtentry2.o)
    0x080003d6   0x080003d6   0x00000002   Code   RO         2021    .ARM.Collect$$rtexit$$00000000  c_w.l(rtexit.o)
    0x080003d8   0x080003d8   0x00000000   Code   RO         2076    .ARM.Collect$$rtexit$$00000002  c_w.l(rtexit2.o)
    0x080003d8   0x080003d8   0x00000004   Code   RO         2077    .ARM.Collect$$rtexit$$00000003  c_w.l(rtexit2.o)
    0x080003dc   0x080003dc   0x00000006   Code   RO         2078    .ARM.Collect$$rtexit$$00000004  c_w.l(rtexit2.o)
    0x080003e2   0x080003e2   0x00000002   PAD
    0x080003e4   0x080003e4   0x00000040   Code   RO            4    .text               startup_stm32h750xx.o
    0x08000424   0x08000424   0x00000034   Code   RO         1749    .text               c_w.l(vsnprintf.o)
    0x08000458   0x08000458   0x00000010   Code   RO         1753    .text               c_w.l(aeabi_memset4.o)
    0x08000468   0x08000468   0x0000004e   Code   RO         1755    .text               c_w.l(rt_memclr_w.o)
    0x080004b6   0x080004b6   0x00000006   Code   RO         1757    .text               c_w.l(heapauxi.o)
    0x080004bc   0x080004bc   0x0000004e   Code   RO         1784    .text               c_w.l(_printf_pad.o)
    0x0800050a   0x0800050a   0x00000024   Code   RO         1786    .text               c_w.l(_printf_truncate.o)
    0x0800052e   0x0800052e   0x00000052   Code   RO         1788    .text               c_w.l(_printf_str.o)
    0x08000580   0x08000580   0x00000078   Code   RO         1790    .text               c_w.l(_printf_dec.o)
    0x080005f8   0x080005f8   0x00000028   Code   RO         1792    .text               c_w.l(_printf_charcount.o)
    0x08000620   0x08000620   0x00000030   Code   RO         1794    .text               c_w.l(_printf_char_common.o)
    0x08000650   0x08000650   0x0000000a   Code   RO         1796    .text               c_w.l(_sputc.o)
    0x0800065a   0x0800065a   0x00000010   Code   RO         1798    .text               c_w.l(_snputc.o)
    0x0800066a   0x0800066a   0x00000002   PAD
    0x0800066c   0x0800066c   0x000000bc   Code   RO         1800    .text               c_w.l(_printf_wctomb.o)
    0x08000728   0x08000728   0x0000007c   Code   RO         1803    .text               c_w.l(_printf_longlong_dec.o)
    0x080007a4   0x080007a4   0x00000070   Code   RO         1809    .text               c_w.l(_printf_oct_int_ll.o)
    0x08000814   0x08000814   0x00000094   Code   RO         1829    .text               c_w.l(_printf_hex_int_ll_ptr.o)
    0x080008a8   0x080008a8   0x00000188   Code   RO         1849    .text               c_w.l(__printf_flags_ss_wp.o)
    0x08000a30   0x08000a30   0x0000008a   Code   RO         1943    .text               c_w.l(lludiv10.o)
    0x08000aba   0x08000aba   0x000000b2   Code   RO         1945    .text               c_w.l(_printf_intcommon.o)
    0x08000b6c   0x08000b6c   0x0000041c   Code   RO         1947    .text               c_w.l(_printf_fp_dec.o)
    0x08000f88   0x08000f88   0x000002fc   Code   RO         1951    .text               c_w.l(_printf_fp_hex.o)
    0x08001284   0x08001284   0x0000002c   Code   RO         1956    .text               c_w.l(_printf_char.o)
    0x080012b0   0x080012b0   0x0000002c   Code   RO         1958    .text               c_w.l(_printf_wchar.o)
    0x080012dc   0x080012dc   0x00000048   Code   RO         1961    .text               c_w.l(_c16rtomb.o)
    0x08001324   0x08001324   0x00000008   Code   RO         1967    .text               c_w.l(libspace.o)
    0x0800132c   0x0800132c   0x0000004a   Code   RO         1970    .text               c_w.l(sys_stackheap_outer.o)
    0x08001376   0x08001376   0x00000002   PAD
    0x08001378   0x08001378   0x00000010   Code   RO         1972    .text               c_w.l(rt_ctype_table.o)
    0x08001388   0x08001388   0x00000008   Code   RO         1977    .text               c_w.l(rt_locale_intlibspace.o)
    0x08001390   0x08001390   0x00000080   Code   RO         1979    .text               c_w.l(_printf_fp_infnan.o)
    0x08001410   0x08001410   0x000000e4   Code   RO         1981    .text               c_w.l(bigflt0.o)
    0x080014f4   0x080014f4   0x00000012   Code   RO         2011    .text               c_w.l(exit.o)
    0x08001506   0x08001506   0x00000002   PAD
    0x08001508   0x08001508   0x0000007c   Code   RO         2028    .text               c_w.l(strcmpv7m_pel.o)
    0x08001584   0x08001584   0x0000000c   Code   RO         2088    .text               c_w.l(sys_exit.o)
    0x08001590   0x08001590   0x00000002   Code   RO         2103    .text               c_w.l(use_no_semi.o)
    0x08001592   0x08001592   0x00000000   Code   RO         2105    .text               c_w.l(indicate_semi.o)
    0x08001592   0x08001592   0x00000006   PAD
    0x08001598   0x08001598   0x00000070   Code   RO         1542    .text.Buf_OLED2LCD  oled_buffer.o
    0x08001608   0x08001608   0x00000002   Code   RO           71    .text.BusFault_Handler  stm32h7xx_it.o
    0x0800160a   0x0800160a   0x00000006   PAD
    0x08001610   0x08001610   0x00000002   Code   RO           77    .text.DebugMon_Handler  stm32h7xx_it.o
    0x08001612   0x08001612   0x00000006   PAD
    0x08001618   0x08001618   0x00000008   Code   RO         1571    .text.DriverInit    oled_config.o
    0x08001620   0x08001620   0x0000000a   Code   RO           15    .text.Error_Handler  main.o
    0x0800162a   0x0800162a   0x00000006   PAD
    0x08001630   0x08001630   0x00000030   Code   RO         1481    .text.FillByte      oled_basic.o
    0x08001660   0x08001660   0x000000ce   Code   RO         1483    .text.FillRect      oled_basic.o
    0x0800172e   0x0800172e   0x00000002   PAD
    0x08001730   0x08001730   0x00000032   Code   RO         1689    .text.Front_Get_Type  oled_driver.o
    0x08001762   0x08001762   0x00000006   PAD
    0x08001768   0x08001768   0x0000000c   Code   RO         1556    .text.GetDrawColor  oled_color.o
    0x08001774   0x08001774   0x00000004   PAD
    0x08001778   0x08001778   0x0000000c   Code   RO         1560    .text.GetFillColor  oled_color.o
    0x08001784   0x08001784   0x00000004   PAD
    0x08001788   0x08001788   0x00000028   Code   RO          691    .text.HAL_Delay     stm32h7xx_hal.o
    0x080017b0   0x080017b0   0x000001a6   Code   RO          369    .text.HAL_GPIO_Init  stm32h7xx_hal_gpio.o
    0x08001956   0x08001956   0x00000002   PAD
    0x08001958   0x08001958   0x00000010   Code   RO          377    .text.HAL_GPIO_TogglePin  stm32h7xx_hal_gpio.o
    0x08001968   0x08001968   0x0000000a   Code   RO          375    .text.HAL_GPIO_WritePin  stm32h7xx_hal_gpio.o
    0x08001972   0x08001972   0x00000006   PAD
    0x08001978   0x08001978   0x0000000e   Code   RO          699    .text.HAL_GetREVID  stm32h7xx_hal.o
    0x08001986   0x08001986   0x00000002   PAD
    0x08001988   0x08001988   0x0000000c   Code   RO          683    .text.HAL_GetTick   stm32h7xx_hal.o
    0x08001994   0x08001994   0x00000004   PAD
    0x08001998   0x08001998   0x0000001a   Code   RO          681    .text.HAL_IncTick   stm32h7xx_hal.o
    0x080019b2   0x080019b2   0x00000006   PAD
    0x080019b8   0x080019b8   0x00000064   Code   RO          671    .text.HAL_Init      stm32h7xx_hal.o
    0x08001a1c   0x08001a1c   0x00000004   PAD
    0x08001a20   0x08001a20   0x00000054   Code   RO          673    .text.HAL_InitTick  stm32h7xx_hal.o
    0x08001a74   0x08001a74   0x00000004   PAD
    0x08001a78   0x08001a78   0x00000028   Code   RO           90    .text.HAL_MspInit   stm32h7xx_hal_msp.o
    0x08001aa0   0x08001aa0   0x0000001e   Code   RO          102    .text.HAL_NVIC_SetPriority  stm32h7xx_hal_cortex.o
    0x08001abe   0x08001abe   0x00000002   PAD
    0x08001ac0   0x08001ac0   0x00000008   Code   RO           98    .text.HAL_NVIC_SetPriorityGrouping  stm32h7xx_hal_cortex.o
    0x08001ac8   0x08001ac8   0x00000048   Code   RO          583    .text.HAL_PWREx_ConfigSupply  stm32h7xx_hal_pwr_ex.o
    0x08001b10   0x08001b10   0x00000960   Code   RO          208    .text.HAL_RCCEx_PeriphCLKConfig  stm32h7xx_hal_rcc_ex.o
    0x08002470   0x08002470   0x00000254   Code   RO          176    .text.HAL_RCC_ClockConfig  stm32h7xx_hal_rcc.o
    0x080026c4   0x080026c4   0x00000004   PAD
    0x080026c8   0x080026c8   0x00000108   Code   RO          178    .text.HAL_RCC_GetSysClockFreq  stm32h7xx_hal_rcc.o
    0x080027d0   0x080027d0   0x000005f0   Code   RO          174    .text.HAL_RCC_OscConfig  stm32h7xx_hal_rcc.o
    0x08002dc0   0x08002dc0   0x00000150   Code   RO          990    .text.HAL_SPI_Init  stm32h7xx_hal_spi.o
    0x08002f10   0x08002f10   0x000000a8   Code   RO           37    .text.HAL_SPI_MspInit  spi.o
    0x08002fb8   0x08002fb8   0x00000252   Code   RO         1006    .text.HAL_SPI_Receive  stm32h7xx_hal_spi.o
    0x0800320a   0x0800320a   0x00000006   PAD
    0x08003210   0x08003210   0x0000024a   Code   RO         1000    .text.HAL_SPI_Transmit  stm32h7xx_hal_spi.o
    0x0800345a   0x0800345a   0x00000006   PAD
    0x08003460   0x08003460   0x00000326   Code   RO         1008    .text.HAL_SPI_TransmitReceive  stm32h7xx_hal_spi.o
    0x08003786   0x08003786   0x00000002   PAD
    0x08003788   0x08003788   0x00000008   Code   RO          122    .text.HAL_SYSTICK_Config  stm32h7xx_hal_cortex.o
    0x08003790   0x08003790   0x000000b6   Code   RO         1428    .text.HAL_TIMEx_MasterConfigSynchronization  stm32h7xx_hal_tim_ex.o
    0x08003846   0x08003846   0x00000002   PAD
    0x08003848   0x08003848   0x00000060   Code   RO         1110    .text.HAL_TIM_Base_Init  stm32h7xx_hal_tim.o
    0x080038a8   0x080038a8   0x00000030   Code   RO           52    .text.HAL_TIM_Base_MspInit  tim.o
    0x080038d8   0x080038d8   0x00000104   Code   RO         1306    .text.HAL_TIM_ConfigClockSource  stm32h7xx_hal_tim.o
    0x080039dc   0x080039dc   0x00000004   PAD
    0x080039e0   0x080039e0   0x00000002   Code   RO           67    .text.HardFault_Handler  stm32h7xx_it.o
    0x080039e2   0x080039e2   0x00000006   PAD
    0x080039e8   0x080039e8   0x00000008   Code   RO         1475    .text.InitGraph     oled_basic.o
    0x080039f0   0x080039f0   0x00000046   Code   RO         1701    .text.LCD_Address_Set  oled_driver.o
    0x08003a36   0x08003a36   0x00000002   PAD
    0x08003a38   0x08003a38   0x0000002a   Code   RO         1705    .text.LCD_FILL      oled_driver.o
    0x08003a62   0x08003a62   0x00000006   PAD
    0x08003a68   0x08003a68   0x00000220   Code   RO         1707    .text.LCD_Init      oled_driver.o
    0x08003c88   0x08003c88   0x00000044   Code   RO         1695    .text.LCD_WR_DATA   oled_driver.o
    0x08003ccc   0x08003ccc   0x00000004   PAD
    0x08003cd0   0x08003cd0   0x00000008   Code   RO         1693    .text.LCD_WR_DATA8  oled_driver.o
    0x08003cd8   0x08003cd8   0x00000048   Code   RO         1703    .text.LCD_WR_Plenty_Dat  oled_driver.o
    0x08003d20   0x08003d20   0x0000002c   Code   RO         1697    .text.LCD_WR_REG    oled_driver.o
    0x08003d4c   0x08003d4c   0x00000004   PAD
    0x08003d50   0x08003d50   0x00000042   Code   RO         1691    .text.LCD_Writ_Bus  oled_driver.o
    0x08003d92   0x08003d92   0x00000006   PAD
    0x08003d98   0x08003d98   0x000000c8   Code   RO           26    .text.MX_GPIO_Init  gpio.o
    0x08003e60   0x08003e60   0x00000064   Code   RO           35    .text.MX_SPI2_Init  spi.o
    0x08003ec4   0x08003ec4   0x00000004   PAD
    0x08003ec8   0x08003ec8   0x00000078   Code   RO           50    .text.MX_TIM1_Init  tim.o
    0x08003f40   0x08003f40   0x00000002   Code   RO           69    .text.MemManage_Handler  stm32h7xx_it.o
    0x08003f42   0x08003f42   0x00000006   PAD
    0x08003f48   0x08003f48   0x00000002   Code   RO           65    .text.NMI_Handler   stm32h7xx_it.o
    0x08003f4a   0x08003f4a   0x00000006   PAD
    0x08003f50   0x08003f50   0x0000002e   Code   RO          108    .text.NVIC_EncodePriority  stm32h7xx_hal_cortex.o
    0x08003f7e   0x08003f7e   0x00000002   PAD
    0x08003f80   0x08003f80   0x0000001e   Code   RO         1675    .text.OLED_Background  oled_draw.o
    0x08003f9e   0x08003f9e   0x00000002   PAD
    0x08003fa0   0x08003fa0   0x00000016   Code   RO         1530    .text.OLED_ClearScreenBuffer  oled_buffer.o
    0x08003fb6   0x08003fb6   0x00000002   PAD
    0x08003fb8   0x08003fb8   0x00000034   Code   RO         1627    .text.OLED_FastHLine  oled_draw.o
    0x08003fec   0x08003fec   0x00000004   PAD
    0x08003ff0   0x08003ff0   0x00000034   Code   RO         1629    .text.OLED_FastVLine  oled_draw.o
    0x08004024   0x08004024   0x00000004   PAD
    0x08004028   0x08004028   0x0000002c   Code   RO         1643    .text.OLED_FillCircle  oled_draw.o
    0x08004054   0x08004054   0x00000004   PAD
    0x08004058   0x08004058   0x000000cc   Code   RO         1645    .text.OLED_FillCircleHelper  oled_draw.o
    0x08004124   0x08004124   0x00000004   PAD
    0x08004128   0x08004128   0x00000020   Code   RO         1639    .text.OLED_FillRect2  oled_draw.o
    0x08004148   0x08004148   0x00000052   Code   RO         1655    .text.OLED_FillRoundRect  oled_draw.o
    0x0800419a   0x0800419a   0x00000006   PAD
    0x080041a0   0x080041a0   0x0000018a   Code   RO         1665    .text.OLED_FillTriangle  oled_draw.o
    0x0800432a   0x0800432a   0x00000006   PAD
    0x08004330   0x08004330   0x00000170   Code   RO         1677    .text.OLED_GBString  oled_draw.o
    0x080044a0   0x080044a0   0x000000c4   Code   RO         1699    .text.OLED_Get_front  oled_driver.o
    0x08004564   0x08004564   0x00000004   PAD
    0x08004568   0x08004568   0x000000b2   Code   RO         1621    .text.OLED_Line     oled_draw.o
    0x0800461a   0x0800461a   0x00000006   PAD
    0x08004620   0x08004620   0x00000044   Code   RO         1637    .text.OLED_Rect2    oled_draw.o
    0x08004664   0x08004664   0x00000004   PAD
    0x08004668   0x08004668   0x0000000c   Code   RO         1554    .text.OLED_Set_DrawColor  oled_color.o
    0x08004674   0x08004674   0x00000004   PAD
    0x08004678   0x08004678   0x00000008   Code   RO         1479    .text.OLED_UpdateScreen  oled_basic.o
    0x08004680   0x08004680   0x00000010   Code   RO         1573    .text.OLED_UpdateScreenBuffer  oled_config.o
    0x08004690   0x08004690   0x00000008   Code   RO         1540    .text.OLED_UpdateScreenDisplay  oled_buffer.o
    0x08004698   0x08004698   0x00000002   Code   RO           79    .text.PendSV_Handler  stm32h7xx_it.o
    0x0800469a   0x0800469a   0x00000006   PAD
    0x080046a0   0x080046a0   0x00000022   Code   RO         1738    .text.Printf2Buf    mystring.o
    0x080046c2   0x080046c2   0x00000006   PAD
    0x080046c8   0x080046c8   0x0000011e   Code   RO          210    .text.RCCEx_PLL2_Config  stm32h7xx_hal_rcc_ex.o
    0x080047e6   0x080047e6   0x00000002   PAD
    0x080047e8   0x080047e8   0x0000011e   Code   RO          212    .text.RCCEx_PLL3_Config  stm32h7xx_hal_rcc_ex.o
    0x08004906   0x08004906   0x00000002   PAD
    0x08004908   0x08004908   0x00000014   Code   RO         1532    .text.ReadByteBuffer  oled_buffer.o
    0x0800491c   0x0800491c   0x00000004   PAD
    0x08004920   0x08004920   0x000000b6   Code   RO         1002    .text.SPI_CloseTransfer  stm32h7xx_hal_spi.o
    0x080049d6   0x080049d6   0x00000002   PAD
    0x080049d8   0x080049d8   0x00000012   Code   RO          992    .text.SPI_GetPacketSize  stm32h7xx_hal_spi.o
    0x080049ea   0x080049ea   0x00000006   PAD
    0x080049f0   0x080049f0   0x0000002e   Code   RO         1004    .text.SPI_WaitOnFlagUntilTimeout  stm32h7xx_hal_spi.o
    0x08004a1e   0x08004a1e   0x00000002   PAD
    0x08004a20   0x08004a20   0x00000002   Code   RO           75    .text.SVC_Handler   stm32h7xx_it.o
    0x08004a22   0x08004a22   0x00000006   PAD
    0x08004a28   0x08004a28   0x00000048   Code   RO         1536    .text.SetPointBuffer  oled_buffer.o
    0x08004a70   0x08004a70   0x0000002e   Code   RO          124    .text.SysTick_Config  stm32h7xx_hal_cortex.o
    0x08004a9e   0x08004a9e   0x00000002   PAD
    0x08004aa0   0x08004aa0   0x00000008   Code   RO           81    .text.SysTick_Handler  stm32h7xx_it.o
    0x08004aa8   0x08004aa8   0x000000ce   Code   RO           13    .text.SystemClock_Config  main.o
    0x08004b76   0x08004b76   0x00000002   PAD
    0x08004b78   0x08004b78   0x000000da   Code   RO         1460    .text.SystemInit    system_stm32h7xx.o
    0x08004c52   0x08004c52   0x00000006   PAD
    0x08004c58   0x08004c58   0x0000013a   Code   RO         1114    .text.TIM_Base_SetConfig  stm32h7xx_hal_tim.o
    0x08004d92   0x08004d92   0x00000006   PAD
    0x08004d98   0x08004d98   0x00000014   Code   RO         1304    .text.TIM_ETR_SetConfig  stm32h7xx_hal_tim.o
    0x08004dac   0x08004dac   0x00000004   PAD
    0x08004db0   0x08004db0   0x00000016   Code   RO         1310    .text.TIM_ITRx_SetConfig  stm32h7xx_hal_tim.o
    0x08004dc6   0x08004dc6   0x00000002   PAD
    0x08004dc8   0x08004dc8   0x00000022   Code   RO         1308    .text.TIM_TI1_ConfigInputStage  stm32h7xx_hal_tim.o
    0x08004dea   0x08004dea   0x00000006   PAD
    0x08004df0   0x08004df0   0x00000024   Code   RO         1312    .text.TIM_TI2_ConfigInputStage  stm32h7xx_hal_tim.o
    0x08004e14   0x08004e14   0x00000004   PAD
    0x08004e18   0x08004e18   0x00000002   Code   RO           73    .text.UsageFault_Handler  stm32h7xx_it.o
    0x08004e1a   0x08004e1a   0x00000006   PAD
    0x08004e20   0x08004e20   0x00000014   Code   RO         1534    .text.WriteByteBuffer  oled_buffer.o
    0x08004e34   0x08004e34   0x00000004   PAD
    0x08004e38   0x08004e38   0x00000010   Code   RO          104    .text.__NVIC_GetPriorityGrouping  stm32h7xx_hal_cortex.o
    0x08004e48   0x08004e48   0x00000022   Code   RO          106    .text.__NVIC_SetPriority  stm32h7xx_hal_cortex.o
    0x08004e6a   0x08004e6a   0x00000006   PAD
    0x08004e70   0x08004e70   0x00000020   Code   RO          100    .text.__NVIC_SetPriorityGrouping  stm32h7xx_hal_cortex.o
    0x08004e90   0x08004e90   0x00000144   Code   RO           11    .text.main          main.o
    0x08004fd4   0x08004fd4   0x0000003e   Code   RO         1984    CL$$btod_d2e        c_w.l(btod.o)
    0x08005012   0x08005012   0x00000046   Code   RO         1986    CL$$btod_d2e_denorm_low  c_w.l(btod.o)
    0x08005058   0x08005058   0x00000060   Code   RO         1985    CL$$btod_d2e_norm_op1  c_w.l(btod.o)
    0x080050b8   0x080050b8   0x00000338   Code   RO         1994    CL$$btod_div_common  c_w.l(btod.o)
    0x080053f0   0x080053f0   0x000000dc   Code   RO         1991    CL$$btod_e2e        c_w.l(btod.o)
    0x080054cc   0x080054cc   0x0000002a   Code   RO         1988    CL$$btod_ediv       c_w.l(btod.o)
    0x080054f6   0x080054f6   0x0000002a   Code   RO         1987    CL$$btod_emul       c_w.l(btod.o)
    0x08005520   0x08005520   0x00000244   Code   RO         1993    CL$$btod_mult_common  c_w.l(btod.o)
    0x08005764   0x08005764   0x00000030   Code   RO         1963    i.__ARM_fpclassify  m_wv.l(fpclassify.o)
    0x08005794   0x08005794   0x0000000e   Code   RO         1842    i._is_digit         c_w.l(__printf_wp.o)
    0x080057a2   0x080057a2   0x00000002   PAD
    0x080057a4   0x080057a4   0x0000002c   Code   RO         2009    locale$$code        c_w.l(lc_numeric_c.o)
    0x080057d0   0x080057d0   0x0000002c   Code   RO         2026    locale$$code        c_w.l(lc_ctype_c.o)
    0x080057fc   0x080057fc   0x0000001a   Code   RO         2086    x$fpl$fpinit        fz_wv.l(fpinit.o)
    0x08005816   0x08005816   0x00000004   Code   RO         1875    x$fpl$printf1       fz_wv.l(printf1.o)
    0x0800581a   0x0800581a   0x00000004   Code   RO         1877    x$fpl$printf2       fz_wv.l(printf2.o)
    0x0800581e   0x0800581e   0x00000000   Code   RO         1883    x$fpl$usenofp       fz_wv.l(usenofp.o)
    0x0800581e   0x0800581e   0x00000002   PAD
    0x08005820   0x08005820   0x00000008   Data   RO         1801    .constdata          c_w.l(_printf_wctomb.o)
    0x08005828   0x08005828   0x00000028   Data   RO         1830    .constdata          c_w.l(_printf_hex_int_ll_ptr.o)
    0x08005850   0x08005850   0x00000011   Data   RO         1850    .constdata          c_w.l(__printf_flags_ss_wp.o)
    0x08005861   0x08005861   0x00000026   Data   RO         1952    .constdata          c_w.l(_printf_fp_hex.o)
    0x08005887   0x08005887   0x00000001   PAD
    0x08005888   0x08005888   0x00000094   Data   RO         1982    .constdata          c_w.l(bigflt0.o)
    0x0800591c   0x0800591c   0x00000010   Data   RO         1466    .rodata.D1CorePrescTable  system_stm32h7xx.o
    0x0800592c   0x0800592c   0x00000008   Data   RO         1520    .rodata.cst8        oled_basic.o
    0x08005934   0x08005934   0x00000020   Data   RO         2161    Region$$Table       anon$$obj.o
    0x08005954   0x08005954   0x0000001c   Data   RO         2008    locale$$data        c_w.l(lc_numeric_c.o)
    0x08005970   0x08005970   0x00000110   Data   RO         2025    locale$$data        c_w.l(lc_ctype_c.o)


    Execution Region RW_IRAM1 (Exec base: 0x20000000, Load base: 0x08005a80, Size: 0x00000000, Max: 0x00020000, ABSOLUTE)

    **** No section assigned to this execution region ****


    Execution Region RW_IRAM2 (Exec base: 0x24000000, Load base: 0x08005a80, Size: 0x00007188, Max: 0x00080000, ABSOLUTE)

    Exec Addr    Load Addr    Size         Type   Attr      Idx    E Section Name        Object

    0x24000000   0x08005a80   0x00000004   Data   RW         1464    .data.SystemCoreClock  system_stm32h7xx.o
    0x24000004   0x08005a84   0x00000004   Data   RW         1465    .data.SystemD2Clock  system_stm32h7xx.o
    0x24000008   0x08005a88   0x00000001   Data   RW         1562    .data._Draw         oled_color.o
    0x24000009   0x08005a89   0x00000001   Data   RW         1563    .data._fill         oled_color.o
    0x2400000a   0x08005a8a   0x00000001   Data   RW          768    .data.uwTickFreq    stm32h7xx_hal.o
    0x2400000b   0x08005a8b   0x00000001   PAD
    0x2400000c   0x08005a8c   0x00000004   Data   RW          767    .data.uwTickPrio    stm32h7xx_hal.o
    0x24000010        -       0x00000060   Zero   RW         1968    .bss                c_w.l(libspace.o)
    0x24000070        -       0x00006400   Zero   RW         1545    .bss.LCDBuffer      oled_buffer.o
    0x24006470        -       0x00000640   Zero   RW         1544    .bss.ScreenBuffer   oled_buffer.o
    0x24006ab0        -       0x00000088   Zero   RW           41    .bss.hspi2          spi.o
    0x24006b38        -       0x0000004c   Zero   RW           56    .bss.htim1          tim.o
    0x24006b84        -       0x00000004   Zero   RW          769    .bss.uwTick         stm32h7xx_hal.o
    0x24006b88        -       0x00000200   Zero   RW            2    HEAP                startup_stm32h750xx.o
    0x24006d88        -       0x00000400   Zero   RW            1    STACK               startup_stm32h750xx.o


==============================================================================

Image component sizes


      Code (inc. data)   RO Data    RW Data    ZI Data      Debug   Object Name

       200          0          0          0          0       2995   gpio.o
       540         60          0          0          0       4831   main.o
        34          0          0          0          0       1644   mystring.o
       270          0          8          0          0       7639   oled_basic.o
       254          0          0          0      27200       2125   oled_buffer.o
        36          0          0          2          0        921   oled_color.o
        24          0          0          0          0        844   oled_config.o
      1504          4          0          0          0      20583   oled_draw.o
      1160          4          0          0          0       3866   oled_driver.o
       268          0          0          0        136       8106   spi.o
        64         26        664          0       1536        832   startup_stm32h750xx.o
       276          0          0          5          4      14991   stm32h7xx_hal.o
       220          0          0          0          0      12682   stm32h7xx_hal_cortex.o
       448          0          0          0          0       6897   stm32h7xx_hal_gpio.o
        40          0          0          0          0       2208   stm32h7xx_hal_msp.o
        72          0          0          0          0      10605   stm32h7xx_hal_pwr_ex.o
      2380         16          0          0          0      11246   stm32h7xx_hal_rcc.o
      2972         90          0          0          0      16921   stm32h7xx_hal_rcc_ex.o
      2568          0          0          0          0      22003   stm32h7xx_hal_spi.o
       782          0          0          0          0      48618   stm32h7xx_hal_tim.o
       182          0          0          0          0      21187   stm32h7xx_hal_tim_ex.o
        24          0          0          0          0       1018   stm32h7xx_it.o
       218          0         16          8          0       5835   system_stm32h7xx.o
       168          0          0          0         76       6516   tim.o

    ----------------------------------------------------------------------
     14972        200        720         16      28952     235113   Object Totals
         0          0         32          0          0          0   (incl. Generated)
       268          0          0          1          0          0   (incl. Padding)

    ----------------------------------------------------------------------

      Code (inc. data)   RO Data    RW Data    ZI Data      Debug   Library Member Name

         8          0          0          0          0         68   __main.o
       392          4         17          0          0         92   __printf_flags_ss_wp.o
        14          0          0          0          0         68   __printf_wp.o
         0          0          0          0          0          0   __rtentry.o
        12          0          0          0          0          0   __rtentry2.o
         6          0          0          0          0          0   __rtentry4.o
        52          8          0          0          0          0   __scatter.o
        26          0          0          0          0          0   __scatter_copy.o
        28          0          0          0          0          0   __scatter_zi.o
        72          0          0          0          0         96   _c16rtomb.o
         6          0          0          0          0          0   _printf_a.o
         6          0          0          0          0          0   _printf_c.o
        44          0          0          0          0        108   _printf_char.o
        48          6          0          0          0         96   _printf_char_common.o
        40          0          0          0          0         68   _printf_charcount.o
         6          0          0          0          0          0   _printf_d.o
       120         16          0          0          0         92   _printf_dec.o
         6          0          0          0          0          0   _printf_e.o
         6          0          0          0          0          0   _printf_f.o
      1052          0          0          0          0        148   _printf_fp_dec.o
       764          8         38          0          0        100   _printf_fp_hex.o
       128         16          0          0          0         84   _printf_fp_infnan.o
         6          0          0          0          0          0   _printf_g.o
       148          4         40          0          0        160   _printf_hex_int_ll_ptr.o
         6          0          0          0          0          0   _printf_i.o
       178          0          0          0          0         88   _printf_intcommon.o
        10          0          0          0          0          0   _printf_l.o
         6          0          0          0          0          0   _printf_lc.o
        10          0          0          0          0          0   _printf_ll.o
         6          0          0          0          0          0   _printf_lld.o
         6          0          0          0          0          0   _printf_lli.o
         6          0          0          0          0          0   _printf_llo.o
         6          0          0          0          0          0   _printf_llu.o
         6          0          0          0          0          0   _printf_llx.o
       124         16          0          0          0         92   _printf_longlong_dec.o
         6          0          0          0          0          0   _printf_ls.o
         6          0          0          0          0          0   _printf_n.o
         6          0          0          0          0          0   _printf_o.o
       112          8          0          0          0        124   _printf_oct_int_ll.o
         6          0          0          0          0          0   _printf_p.o
        78          0          0          0          0        108   _printf_pad.o
         0          0          0          0          0          0   _printf_percent.o
         4          0          0          0          0          0   _printf_percent_end.o
         6          0          0          0          0          0   _printf_s.o
        82          0          0          0          0         80   _printf_str.o
        36          0          0          0          0         84   _printf_truncate.o
         6          0          0          0          0          0   _printf_u.o
        44          0          0          0          0        108   _printf_wchar.o
       188          6          8          0          0         92   _printf_wctomb.o
         6          0          0          0          0          0   _printf_x.o
        16          0          0          0          0         68   _snputc.o
        10          0          0          0          0         68   _sputc.o
        16          0          0          0          0         68   aeabi_memset4.o
       228          4        148          0          0         96   bigflt0.o
      1936        128          0          0          0        672   btod.o
        18          0          0          0          0         80   exit.o
         6          0          0          0          0        152   heapauxi.o
         0          0          0          0          0          0   indicate_semi.o
        44         10        272          0          0         76   lc_ctype_c.o
        44         10         28          0          0         76   lc_numeric_c.o
         2          0          0          0          0          0   libinit.o
        34          0          0          0          0          0   libinit2.o
         2          0          0          0          0          0   libshutdown.o
         2          0          0          0          0          0   libshutdown2.o
         8          4          0          0         96         68   libspace.o
       138          0          0          0          0         80   lludiv10.o
        16          4          0          0          0         76   rt_ctype_table.o
         8          4          0          0          0         68   rt_locale_intlibspace.o
        78          0          0          0          0         80   rt_memclr_w.o
         2          0          0          0          0          0   rtexit.o
        10          0          0          0          0          0   rtexit2.o
       124          0          0          0          0         88   strcmpv7m_pel.o
        12          4          0          0          0         68   sys_exit.o
        74          0          0          0          0         80   sys_stackheap_outer.o
         2          0          0          0          0         68   use_no_semi.o
        52          4          0          0          0         80   vsnprintf.o
        26          0          0          0          0        116   fpinit.o
         4          0          0          0          0        116   printf1.o
         4          0          0          0          0        116   printf2.o
         0          0          0          0          0          0   usenofp.o
        48          0          0          0          0        124   fpclassify.o

    ----------------------------------------------------------------------
      6924        264        552          0         96       4540   Library Totals
        20          0          1          0          0          0   (incl. Padding)

    ----------------------------------------------------------------------

      Code (inc. data)   RO Data    RW Data    ZI Data      Debug   Library Name

      6822        264        551          0         96       4068   c_w.l
        34          0          0          0          0        348   fz_wv.l
        48          0          0          0          0        124   m_wv.l

    ----------------------------------------------------------------------
      6924        264        552          0         96       4540   Library Totals

    ----------------------------------------------------------------------

==============================================================================


      Code (inc. data)   RO Data    RW Data    ZI Data      Debug   

     21896        464       1272         16      29048     236917   Grand Totals
     21896        464       1272         16      29048     236917   ELF Image Totals
     21896        464       1272         16          0          0   ROM Totals

==============================================================================

    Total RO  Size (Code + RO Data)                23168 (  22.63kB)
    Total RW  Size (RW Data + ZI Data)             29064 (  28.38kB)
    Total ROM Size (Code + RO Data + RW Data)      23184 (  22.64kB)

==============================================================================

