:020000040800F2
:1000000088710024E5030008493F0008E139000831
:10001000413F000809160008194E000800000000C2
:10002000000000000000000000000000214A00085D
:10003000111600080000000099460008A14A0008B7
:10004000FF030008FF030008FF030008FF03000888
:10005000FF030008FF030008FF030008FF03000878
:10006000FF030008FF030008FF030008FF03000868
:10007000FF030008FF030008FF030008FF03000858
:10008000FF030008FF030008FF030008FF03000848
:10009000FF030008FF030008FF030008FF03000838
:1000A000FF030008FF030008FF030008FF03000828
:1000B000FF030008FF030008FF030008FF03000818
:1000C000FF030008FF030008FF030008FF03000808
:1000D000FF030008FF030008FF030008FF030008F8
:1000E000FF030008FF03000800000000FF030008F2
:1000F000FF030008FF030008FF030008FF030008D8
:10010000FF030008FF030008FF030008FF030008C7
:10011000FF030008FF030008FF030008FF030008B7
:10012000FF030008FF030008FF030008FF030008A7
:10013000FF030008FF030008FF030008FF03000897
:1001400000000000000000000000000000000000AF
:10015000FF030008FF030008FF030008FF03000877
:10016000FF030008FF030008FF030008FF03000867
:10017000FF030008FF030008FF030008FF03000857
:10018000FF030008FF030008FF030008FF03000847
:10019000FF030008FF030008FF030008FF03000837
:1001A000FF030008FF030008FF030008FF03000827
:1001B000FF030008FF030008FF030008FF03000817
:1001C000FF030008FF030008FF030008FF03000807
:1001D000FF030008FF030008FF030008FF030008F7
:1001E000FF030008FF030008FF030008FF030008E7
:1001F000FF030008FF030008FF030008FF030008D7
:10020000FF030008FF030008FF030008FF030008C6
:10021000FF030008FF030008FF030008FF030008B6
:10022000FF030008FF030008FF03000800000000B0
:10023000FF030008FF03000800000000FF030008A0
:10024000FF030008FF030008FF030008FF03000886
:10025000FF030008FF030008FF030008FF03000876
:10026000FF030008FF030008FF030008FF03000866
:10027000FF030008FF030008FF0300080000000060
:10028000FF030008FF030008FF0300080000000050
:1002900000000000FF03000800F002F800F092F8F0
:1002A0000AA090E8000C82448344AAF10107DA45D1
:1002B00001D100F087F8AFF2090EBAE80F0013F091
:1002C000010F18BFFB1A43F00103184768560000DE
:1002D00088560000103A24BF78C878C1FAD852076F
:1002E00024BF30C830C144BF04680C6070470000B0
:1002F0000023002400250026103A28BF78C1FBD82F
:10030000520728BF30C148BF0B6070476E2900F00C
:100310007381702900F0BD82662905F07C82652911
:1003200005F07982672905F07682612905F07582EA
:1003300003681B0A28BF41F08001692900F0208171
:10034000642900F01D81752900F01A816F2900F0E1
:100350004B82782900F08982E92900F0E581E429BF
:1003600000F0E281F52900F0DF81EF2900F04882FA
:10037000F82900F088820368DB0928BF41F080017A
:10038000632900F08987732900F08E87E32900F044
:100390009987F32900F09E87002070471FB505F06C
:1003A0002DFA00F0F1FF04000020002105F010FA02
:1003B000401C60600020002105F0F4F9E0601FBDE2
:1003C00010B510BD00F0B2FF1146FFF7E7FF04F0D3
:1003D0005FFD01F08FF803B4FFF7F2FF03BC01F0FB
:1003E000D1F800000948804709480047FEE7FEE7CA
:1003F000FEE7FEE7FEE7FEE7FEE7FEE7FEE7FEE7D5
:1004000004480549054A064B70470000794B00082F
:1004100099020008886B002488710024886D0024EC
:10042000886D00247CB51D4616460C00009001D056
:100430002044401E074B7B442A46694601903046C3
:1004400000F0F3F805461CB10020694600F000F901
:1004500028467CBD2102000002F0FF0343EA03228C
:1004600042EA024200F002B84FF0000200B5134623
:1004700094469646203922BFA0E80C50A0E80C50C4
:10048000B1F12001BFF4F7AF090728BFA0E80C5075
:1004900048BF0CC05DF804EB890028BF40F8042B6E
:1004A00008BF704748BF20F8022B11F0804F18BFDB
:1004B00000F8012B704770477047704770B50446CD
:1004C00085690068C10601D5302600E02026C007F6
:1004D00007D070BDD4E9012130469047206A401C06
:1004E00020626D1EF6D570BD70B504468569007832
:1004F000C00707D170BDD4E9012120209047206AB0
:10050000401C20626D1EF6D570BD09684A0501D5F4
:1005100040B27047C905FCD500B2704709684A056A
:1005200001D5C0B27047C905FCD580B2704770B51F
:100530000C460546012A05D02878800600D5EA69D0
:10054000002302E0012305E05B1C934202D2E05C41
:100550000028F9D1A869E618C01AA861286A1844C9
:1005600028622846FFF7AAFF04E0D5E9012114F824
:10057000010B9047B442F8D32846FFF7B5FF70BD92
:100580002DE9F0410646002410687529314616A56C
:1005900010D0FFF7BAFF002802DA404213A507E0A7
:1005A00031688A0701D512A502E0490704D511A5D3
:1005B000012401E0FFF7B2FF00210A2206F124071F
:1005C00009E0B0FBF2FCB0FBF2F302FB1C003030A0
:1005D00078541846491C0028F3D123462A46304651
:1005E000BDE8F04100F069BA000000002D000000F5
:1005F0002B0000002000000011680268006A53050B
:1006000001D508700AE0D30501D5088006E013067D
:1006100003D5C217C1E9000200E00860012070475D
:1006200001694A1C02610878704700B58FB0CDE9B6
:1006300001310021059105497944CDE903101146A6
:10064000684600F031F90FB000BD0000E5FFFFFF84
:100650000A6802F8010B0A607047D1E900239A4248
:1006600002D2531C0B601070704700002DE9FF5F31
:1006700015468A460446DFF8AC80F8440027D8E9DE
:1006800000103E46CDE9001010E03AF816106A4618
:1006900002A800F023FE411C07D02178890603D56B
:1006A000E269391891420DD80744761C20788006FB
:1006B00002D5E069B84205DDAE42E6DB3AF8160045
:1006C0000028E2D1A069C01BA0612046FFF7F6FE1A
:1006D000D8E90010CDE90010002017E03AF8181012
:1006E0006A4602A800F0FAFDB0F1FF3F81460BD048
:1006F00000250DF1080B05E0D4E901211BF80500E8
:1007000090476D1C4D45F7D308F10100B04280467B
:10071000E4DB206A384420622046FFF7E5FEBDE8AE
:10072000FF9F0000A25100002DE9F0418046D21D3C
:1007300022F007020025D2E90002F52915A614D0FF
:10074000011E72F1000106DA0023D0EB030063EB17
:10075000020211A608E0D8F800108B0701D50FA6F9
:1007600002E0490701D50EA601251146002408F133
:10077000240704E000F05CF930323A55641C50EA7A
:100780000102F7D12B46324621464046BDE8F041F2
:1007900000F093B9000000002D0000002B000000C5
:1007A0002000000030B4002100F1240408E002F031
:1007B0000705D208303542EA4372DB086554491C0C
:1007C00052EA0305F3D10468002310A2250708D5D7
:1007D00004F020040C4304D0C46901230CA2641E5D
:1007E000C46130BC00F069B910B5044621461068F8
:1007F000FFF794FE02462046BDE810400023D1E7F3
:10080000D21D22F00701D1E90023CBE70000000050
:1008100030000000F0B40D460188090502D5214CD6
:100820007C4402E01F4C7C440E34002100F124067D
:1008300008E002F00F071209E75D42EA03721B09A4
:100840007754491C52EA0307F3D1027800231207B8
:1008500004D5702D06D009B1022311342246F0BC14
:1008600000F02BB901231034F8E770B504460D46AB
:1008700021461068FFF752FE024629462046BDE891
:1008800070400023C6E7D21D22F00703D3E90023FE
:10089000C0E70368126843F0200303600823C361C4
:1008A0000023B7E7045000002DE9F05F89460446B5
:1008B0004FF0000ADFF874B1FB44C0F820A02046D6
:1008C000E1688847002874D0252806D0D4E90121A2
:1008D0009047206A401C2062F1E700265F462046D0
:1008E000E16888472028054607DB312D05D27819B5
:1008F00010F8200C08B10643F1E7B00701D526F047
:100900000406C4F81CA00027C4F818A02A2D09D09A
:10091000284604F03FFF38B304EB8708303DC8F8A1
:10092000185019E059F8041B204604EB8702916126
:10093000E1688847012F054618D1E069002820DAD0
:1009400026F020061DE0D8F8180000EB800005EB2B
:1009500040003038C8F818002046E168884705464E
:1009600004F018FF0028EED1012F0AD02E2D08D157
:100970002046E16888477F1C0546022F46F0200686
:10098000C4DBA069002803DA404246F00106A061FA
:10099000F00701D026F010066C2D0BD0682D09D081
:1009A0004C2D39D06A2D35D0742D35D07A2D33D0D9
:1009B00016E038E0E1682F4620468847B8420546F1
:1009C00009D16C2F26D04FF48060E16806432046A1
:1009D0008847054604E06C2F1AD04FF48070064318
:1009E0000DB3A5F14100192802D8203546F4006660
:1009F0004A462946204626604E46FFF787FC80B1CE
:100A000001280BD0F61D26F0070000F1080956E773
:100A10004020E4E78020D8E70020D6E706F104096B
:100A20004DE7284652E7206ABDE8F09F944F00004A
:100A300030B5B0F10A0271F100034FEA900E4EEAB0
:100A4000817EB0EB0E0061EB91014FEA101E4EEA81
:100A5000017E10EB0E0041EB11114FEA102E4EEA11
:100A6000016E10EB0E0041EB11214FEA104E4EEAE1
:100A7000014E10EB0E0041EB1141401841F1000115
:100A80004FEAD00040EA41704FEAD1014FEA8104B9
:100A900044EA907410EB800544EB01046D1944EBBB
:100AA0000404521BA3414FF0000348BF0A3200D593
:100AB00030BD401C41F1000130BD2DE9F0470D462D
:100AC00099469246044600F124080168880604D538
:100AD000E06921F01001216000E00120A84201DD61
:100AE000471B00E00027A1697A1902EB0900081AE8
:100AF000A0612078C00602D42046FFF7DFFC002664
:100B000008E0D4E901211AF806009047206A401C49
:100B1000761C20624E45F4DB2078C0060AD52046BC
:100B2000FFF7CCFC06E0D4E9012130209047206A91
:100B3000401C2062381EA7F10107F4DC07E0D4E96D
:100B4000012118F805009047206A401C2062281EE9
:100B5000A5F10105F3DC2046FFF7C6FC207800066E
:100B600002D50220BDE8F0870120FBE72DE9FF4F09
:100B70000C461E464FF0FF378BB0D2E90001DDF87E
:100B800060800A908A46C1F30A5505B93D460021A6
:100B900008464FF00000BAF1000F00F4400005DAFB
:100BA00000EB80004FF4400101EA50004FEA9059F9
:100BB000B9F1010F00DDB9460A9850EA4A000ED09B
:100BC00044F61050A5F2FF3545432F14B8F1000F3D
:100BD0001ED07542291E1EDDC9F100021CE0B8F1CD
:100BE000010F4FF0000001D0302103E0F24305E097
:100BF0002154401CB042FBDB30460022002121542E
:100C00000B99C1F80880C1E900200FB0BDE8F08F52
:100C1000BD1B6D1CDEE74A4600DA694206A800F0FB
:100C2000F7FB06AB93E8070003AB83E807005046E9
:100C30000A9904F0CFF98DE80700A0F500501F389D
:100C400000900398002D0ADD42F21F014A46084435
:100C5000002303A90390684604F038FC09E0A0F5DE
:100C600000504A461F38002303A90390684604F049
:100C700042FC8DE807000004000C03D04FF0FF3069
:100C8000410800E01046B8F1000F03D000220092A6
:100C900015461EE0751E05D4FFF7CAFE30326255B8
:100CA0006D1EF9D5B3460122084302D000227F1CF5
:100CB00004E02078302801D100227F1E002A099705
:100CC00084D01DE0112D07DAFFF7B2FE30326255F5
:100CD0006D1C50EA0102F5D1084302D00098C8B15A
:100CE0000EE00021681E05E0235C625C6354225420
:100CF000401E491C8142F7DBAB46A81B401E0990F1
:100D0000002004F80B000B98099AC0F80880C0E98D
:100D1000002B7AE711264FF0000857E72DE9F04F36
:100D200088460446D21D22F0070191B0D1E90001A6
:100D3000CDE90A0104F016FD02460B98C00F01D060
:100D40002D2007E02068810701D52B2002E020211B
:100D500001EAC000032A099001D0072A05DB0346F7
:100D60004146204600F014FB0BE12078800601D5B7
:100D7000E06900E00620B8F1650F814606D0B8F1C1
:100D8000660F18D0B8F1670F70D131E00020B9F1CB
:100D9000110F009001DB112301E009F101030AAA00
:100DA00001A90CA8FFF7E2FEDDE90C70002609F1AD
:100DB0000105834647E001204B4600904FF0004775
:100DC0000AAA01A90CA8FFF7D1FEDDE90DB00C9924
:100DD0005D46002610B909F101000D18B9EB0500B8
:100DE00003D4C0F1FF3609F10105A5EB09002BE0A2
:100DF000B9F1010F01DA4FF001090020B9F1110F2B
:100E00000090484601DD112300E003460AAA01A92B
:100E10000CA8FFF7ABFEDDE90C704D4600268346BB
:100E2000207800070AD4AB4500DA5D4601A8012D01
:100E300004DD411911F8011C302907D04F4502DAB1
:100E400017F1040F04DA012082460FE06D1EEEE771
:100E5000002F02DCED1B3E4403E0781CA84200DDBD
:100E60007D1CB81B00F1010A4FF0004720780007F5
:100E700003D4AA4501DB4FF0FF3A0021B7F1004F40
:100E80000DF143088DF8431024D002202B23002FAE
:100E900001DA7F422D230A21021EA0F1010000DCAD
:100EA0005FB197FBF1FC97FBF1F201FB1C7C17464D
:100EB0000CF1300C08F801CDEEE7A8F10100037049
:100EC0002188090501D5452100E06521A0F101082F
:100ED00000F8011C09980FA9A1EB0807FF1D00B13C
:100EE0000120411901EBEA70A1693844081A401E3B
:100EF000A0612078C00602D42046FFF7DFFA0998E7
:100F000028B1D4E901219047206A401C2062207852
:100F1000C00622D52046FFF7D1FA1EE0002E04DBE2
:100F2000B34502DD01A8805D00E03020D4E9012155
:100F30009047206A401C2062761CAAF101005FEAFB
:100F4000000A0AD100F020FAC0680168405CD4E9C8
:100F500001219047206A401C2062281EA5F101054E
:100F6000DCDC07E0D4E9012118F8010B9047206A86
:100F7000401C2062381EA7F10107F3DC2046FFF772
:100F8000B3FA032011B041E62DE9F04F04460D46B7
:100F9000D21D22F0070089B0D0E9009748463946B3
:100FA00004F0E0FB0246F80F01D02D2307E0206893
:100FB000810701D52B2302E0202101EAC0038DF82F
:100FC00020300BB1012000E00020032A824601D02E
:100FD000072A04DB2946204600F0DAF93FE12078B1
:100FE000800601D40D2500E0E569C7F30A560D2DF2
:100FF00049DA00214FEA175B08464FF00000002F46
:1010000000F4400007DA00EB80004FF4400100EBF1
:10101000D07001EA60008115012901DD4FF0FF3138
:1010200000224FEA850CBCF1180F06D31346ACF131
:1010300018004FF08052C24003E04FF4801323FAAF
:101040000CF30CF10C0CBCF1200F04D3ACF1200C10
:1010500009FA0CF001E007FA0CF000294FF0004803
:1010600001DD18B90FE00ED140450CD319EB020990
:101070005F4121B9404502D19F4329EA0209BBEBF8
:10108000175F00D0761C2088000502D57B48784485
:1010900002E07A487844193808AA302302F80A3066
:1010A000037C0AF10101002E0AF1020A53546A4638
:1010B00002DC4FF0300101E04FF031014FF0010848
:1010C0008DF8001002D0A6F2FF3603E059EA47017E
:1010D00000D06B4E002D02DC2178090704D54FF0BB
:1010E00002082E218DF80110C44600210BE0C7F341
:1010F00003433F01C35C491C6D1E02F808300529FB
:1011000008F1010801DA002DF1DC00210CE000EB10
:101110001973491C1B786D1E082902F808304FEA24
:10112000091908F1010801DA002DF0DC21688B06AD
:1011300002D516E0A8F10108E04505DD02EB080341
:1011400013F8013C302BF5D0B8F1000F09DD02EBAC
:10115000080313F8013C2E2B03D1090701D4A8F191
:101160000108002D05DD3E2102F808106D1E08F172
:101170000108407C002E02F8080008F1010804DA9A
:101180002D20764202F8080002E02B2002F8080029
:101190000A214FF47A70864208F101080BDB96FBB6
:1011A000F0F3303302F8083096FBF0F308F1010851
:1011B00000FB136601E0642E0CDB642096FBF0F369
:1011C000303302F8083096FBF0F308F1010800FB19
:1011D000136601E00A2E06DB96FBF1F0303002F8D0
:1011E000080008F1010896FBF1F001FB10603030B7
:1011F00002F80800A16908F1010808EB050202EBFA
:101200000A00081AA0612078C00602D42046FFF721
:1012100055F9216A08AE01EB0A00206204E0D4E926
:10122000012116F8010B9047BAF1010AF7D2207894
:10123000C00602D52046FFF741F96E4609E016F8D0
:10124000010B3E280FD0D4E901219047206A401CB1
:101250002062B8F10108F2D22046FFF745F909B043
:101260000320BDE8F08F206A2844206203E0D4E91F
:101270000121302090476D1EEBD3F8E7E2470000D4
:1012800002FCFFFF10B5436913B1AFF3008001E02A
:10129000FFF74DF9012010BD127800F124010A700A
:1012A00000224A700122EDE711684FF0FF32E9E7B2
:1012B00010B5436913B1AFF3008001E0FFF7D6F931
:1012C000012010BD128800F1240182840022C28412
:1012D0000122EDE711684FF0FF32E9E72DE9F04117
:1012E00016460C46054600F047F8036893F80101DE
:1012F000012807D0FF2C12D8185D80B101202C7076
:10130000BDE8F081D3F807013246214603F2071306
:10131000C7182846BC46BDE8F041002360474FF09F
:10132000FF30EDE700487047100000247546FFF7D6
:10133000F9FFAE4605006946534620F00700854692
:1013400018B020B5FFF75CF8BDE820404FF000066C
:101350004FF000074FF000084FF0000BAC46ACE830
:10136000C009ACE8C009ACE8C009ACE8C00921F08C
:1013700007018D467047000010B500F005F8001D0C
:1013800010BD00BF4D4400000048704730000024ED
:101390002DE9F0411F46044603260168072A01F49F
:1013A000006004DB08B116A505E016A503E008B14E
:1013B00015A500E015A521F010002060A069C01E51
:1013C000A0610FB1401EA0612046FFF777F84FB132
:1013D000D4E9012138469047206A401C2062C01C95
:1013E000206206E0206AFAE7D4E9012115F8010B32
:1013F0009047761EF8D22046FFF776F8BDE8F081D8
:101400004E414E006E616E00494E4600696E6600A8
:101410002DE9F047814616468AB0354878440DC814
:101420008DE80D0032487844801C03AC0DC884E878
:101430000D0041F69B300844372190FBF1F290FB00
:10144000F1F5A5F1800501FB12041B3C02D56442B5
:10145000012000E00020DFF898A080460027FA4431
:10146000AAF1BE0A0EE0E0070AD03246684607EB52
:10147000470101230AEB810104F03DF88DE80700E4
:1014800064107F1C002CEED1194F7F44AE3F19E051
:10149000E80715D007EB04100DF1180A90E80E00CC
:1014A0008AE80E00C068F04201D1981908903246CF
:1014B000012306A903A804F01EF803AB83E8070084
:1014C0006D10641C002DE3D14FF0010332466946D4
:1014D000B8F1000F03A802D003F0F8FF01E004F018
:1014E0000AF8C9E90001C9F808200AB0BDE8F08788
:1014F000E444000010B50446AFF300802046BDE888
:101500001040FEF768BF000030B44FF0013C50F8C7
:10151000042BCCFA52F451F8043BD51A20D1FCB973
:1015200050F8042BCCFA52F451F8043BD51A17D1D9
:10153000B4B950F8042BCCFA52F451F8043BD51A44
:101540000ED16CB950F8042BCCFA52F451F8043B8C
:10155000D51A05D1002CDAD030BC4FF0000070470E
:1015600029BAB1FA81F111F01801D1F120008440BB
:10157000F2D1CA40CB4012F0FF0213F0FF0330BC9F
:10158000D01A704701491820ABBEFEE726000200C2
:1015900070470000000000002DE9F04140F27001AA
:1015A00046F2704EC2F20041020A01F1010C4FF006
:1015B0000008C2F2004E06E008F101080CF5206CAC
:1015C000B8F10A0F1BD00021644603E00131023458
:1015D000A029F1D008EB8805002627460EEB45151B
:1015E0006D5C04E0013607F5A077082EEED025FAF1
:1015F00006F3DB07F6D007F8012C3870F2E700207D
:1016000002F0CEFCBDE8F081FEE700000000000023
:10161000704700000000000080B502F025FA80BD90
:10162000EFF3108072B600BFFEE70000000000007C
:10163000F0B581B014460D46064600F09DF8074609
:101640003046294603F060F940EA0402002F08BF43
:1016500020EA04023046294603F0E2FB01B0F0BD67
:101660002DE9F04F85B0A028D8BF502902DD05B084
:10167000BDE8F08F012AFADB04469F28F7DC5818F2
:10168000CE170138013BC71702EB040B45F62C19A6
:10169000019300EB5770C0F60009C71001EB5670BC
:1016A000BA46C610C7F10008A7EBE00558184FEA84
:1016B000E07CA1EBC603049300EB5C72C3F107036B
:1016C00022F007020393801A029001F007000090B5
:1016D000E5B10398049919F8000088402146C2B288
:1016E0003046FFF7A5FF022D0ADB37460137FF2200
:1016F00038462146FFF79CFF08EB07000130F5D183
:10170000029819F80020504607E000BF01980099A0
:1017100019F800008840C2B230462146FFF788FF22
:10172000601C5845A3DA9F2C0446D1DB9FE70000DC
:1017300000F15002D2B2472A03D8A02984BF012069
:10174000704700F15F02D2B2022A03D8A02984BFF9
:10175000022070472038C1B200205F2938BF032023
:10176000704700000000000040F20800C2F2004094
:10177000007870470000000040F20900C2F200400B
:101780000078704700000000B0B5044600F0FCF897
:1017900040F20A010546C2F20041621C097818BFF6
:1017A0000C4400BF00F0F0F8401BA042FAD3B0BDDB
:1017B0002DE9F04F83B00E68002E00F0C98000F1D3
:1017C00026420A2302F1FF7240F2040C4FEAB222D1
:1017D000019242F20042C5F6000CC5F602024FF03B
:1017E000010B90424FF0000508BF092300274FF07E
:1017F000010800930AE000BF0E68043736FA08F2C9
:1018000008F1010805F1020500F0A280A8F1010A23
:101810000BFA0AF216EA0209EED04E68122E17D819
:101820000BFA06F414F0061F12D00323D0F808E0D8
:10183000AB40CC682EEA0303AC4023438360C6F37D
:101840000014436823EA020204FA0AF31A434260CE
:101850000323C268AB4046F010046FEA030E9A43BC
:101860008B68122C03FA05F342EA0302C26012D11C
:101870006FF0030207F01C0402EA5A020F2602442A
:10188000A640136AD1F810B0B3430BFA04F44FF03A
:10189000010B2343136202684B6803F0030402EA5E
:1018A0000E02AC40DB0042EA04020260A4D544F21E
:1018B000F443C5F602031A6842F002021A601A687D
:1018C00007F00C0302F002020292029A2AF00302CD
:1018D00040F2084A019C009EC5F6000A092C38BF58
:1018E00026460F2452F80AE09C402EEA040406FA29
:1018F00003F3234342F80A30DCF87C204B6842EAC9
:101900000906DC0358BF22EA09069C034FF0B04EDB
:10191000CCF87C60DCF8802042EA090658BF22EA55
:101920000906DC02CCF88060DEF8002042EA0906F5
:1019300058BF22EA09069B02CEF80060DCF80020BE
:1019400042EA090658BF22EA0906CCF8006053E7CC
:1019500003B0BDE8F08F0000426902EA0103914341
:1019600041EA034181617047002A08BF090481618F
:10197000704700000000000041F20000C5F6004082
:101980000068000C7047000046F68430C2F2004048
:10199000006870470000000040F20A0046F68431FB
:1019A000C2F20040C2F2004100780A6810440860A8
:1019B000704700000000000080B5032000F080F8B0
:1019C00000F082FE44F2184145F61C13C5F60201F0
:1019D000C0F600030A68096801F00F01C2F3032290
:1019E000595C9A5C01F01F0102F01F02D04040F2E6
:1019F0000402C2F2004220FA01F1116040F200013B
:101A0000C2F200410860002000F00AF800281CBF64
:101A1000012080BD00F030F8002080BD00000000F3
:101A2000B0B540F20A01C2F20041097801B30446A0
:101A300040F20000C2F200404FF47A72B2FBF1F1C2
:101A40000068B0FBF1F001F09FFE0F2C4FF0010594
:101A50000CD858B94FF0FF3000222146002500F085
:101A60001FF840F20C00C2F2004004602846B0BDEE
:101A70000120B0BD0000000080B582B044F2F44007
:101A8000C5F60200016841F002010160006800F043
:101A9000020001900198052000F012F802B080BD0C
:101AA00070B514460D46064603F0C6F9294622468F
:101AB00002F04EFA0146304603F0C6F970BD000050
:101AC00080B503F0D5F980BDB0B544F60C05C5F678
:101AD000020529684907296805D401F00701081A99
:101AE00018BF0120B0BD21F0070108432860FFF7AF
:101AF0004BFF044655F8080C800407D4FFF744FF59
:101B0000001BB0F57A7FF5D90120B0BD0020B0BD33
:101B10002DE9F04381B00446C07844F22C49000717
:101B2000C5F6020901D400262DE0606E4FEA305060
:101B300003280DD80026DFE800F0020E1613D9F8AE
:101B40000000002640F40030C9F800004EB912E051
:101B5000012636B90FE0201D022102F0B5FD064630
:101B60004EB1B04611E004F12400022102F03CFE27
:101B70000646002EF5D1D9F82400616E20F44010FD
:101B80000843C9F824004FF000086078C0072FD040
:101B9000606D042807D8DFE800F00A131B03030078
:101BA000F6B1B04624E00126002EFAD118E0D9F8AB
:101BB000000040F40030C9F80000002EF1D10FE021
:101BC000201D002102F080FD0646002EE9D107E02D
:101BD00004F12400002102F007FE0646002EE0D1A9
:101BE000D9F82400616D20F007000843C9F82400EB
:101BF0006078800731D5A06D4FEAB010042807D86F
:101C0000DFE800F00A131B030300F6B1B04624E03E
:101C10000126002EFAD118E0D9F8000040F4003077
:101C2000C9F80000002EF1D10FE0201D002102F0C4
:101C30004BFD0646002EE9D107E004F12400002107
:101C400002F0D2FD0646002EE0D1D9F82400A16DA5
:101C500020F4E0700843C9F824006078400733D5C9
:101C6000D4F8A4004FEA7050042807D8DFE800F049
:101C70000A131B030300F6B1B04625E00126002E2F
:101C8000FAD118E0D9F8000040F40030C9F800009B
:101C9000002EF1D10FE0201D002102F015FD0646B7
:101CA000002EE9D107E004F12400002102F09CFDA0
:101CB0000646002EE0D1D9F82C00D4F8A41020F468
:101CC00060000843C9F82C006078000733D5D4F8C9
:101CD000A8004FEA3060042807D8DFE800F00A13B4
:101CE0001B030300F6B1B04625E00126002EFAD111
:101CF00018E0D9F8000040F40030C9F80000002EC8
:101D0000F1D10FE0201D002102F0DEFC0646002E7E
:101D1000E9D107E004F12400002102F065FD064648
:101D2000002EE0D1D9F82C00D4F8A81020F0E06003
:101D30000843C9F82C00E078800727D5A06C4FEA4B
:101D40003010032806D8DFE800F002091202AEB115
:101D5000B0461BE00126002EFAD10FE0D9F80000B2
:101D600040F40030C9F80000002EF1D106E0201D3B
:101D7000022102F0A9FC0646002EE9D1D9F8200084
:101D8000A16C20F030000843C9F820006078C0063C
:101D900031D5E06D4FEA3030042807D8DFE800F095
:101DA0000A131B030300F6B1B04624E00126002EFF
:101DB000FAD118E0D9F8000040F40030C9F800006A
:101DC000002EF1D10FE0201D002102F07DFC06461F
:101DD000002EE9D107E004F12400002102F004FD07
:101DE0000646002EE0D1D9F82400E16D20F4E04051
:101DF0000843C9F824006078800625D5206E4FEA94
:101E00003040052807D8DFE800F0030A0F0303037A
:101E100096B1B04618E00126002EFAD10CE0201D44
:101E2000012102F051FC04E004F12400012102F040
:101E3000DBFC0646002EECD1D9F82400216E20F4FC
:101E4000E0200843C9F824006078400627D5D4F87C
:101E5000AC004FEA3070052807D8DFE800F0030A2D
:101E60000F03030396B1B04619E00126002EFAD104
:101E70000CE0201D012102F027FC04E004F1240005
:101E8000012102F0B1FC0646002EECD1D9F82C005D
:101E9000D4F8AC1020F0E0400843C9F82C0060787A
:101EA00000061FD5E06ED0B1B0F1005F12D0B0F1E6
:101EB000805F24D1D9F8000040F40030C9F8000058
:101EC0007EB9D9F82400E16E20F040500843C9F8EB
:101ED000240007E0201D012102F0F6FB0646002E3B
:101EE000EFD0B046E078C00729D0606C03280AD84C
:101EF000DFE800F0020D1602CEB1B0461FE0012669
:101F0000002EEED1DDE70126002EF6D10FE0D9F844
:101F1000000040F40030C9F80000002EEDD106E0CA
:101F2000201D022102F0D0FB0646002EE5D1D9F893
:101F30002000616C20F003000843C9F82000A0785D
:101F4000400643D5D9F8D40340F48070C9F8D403CF
:101F5000FFF71AFD074600BFD9F8D403C00505D422
:101F6000FFF712FDC01B6528F6D303266EBBD9F818
:101F70004410D4F8B000414011F4407F11D0D9F89A
:101F80004410D9F8442042F48032C9F84420D9F8EA
:101F9000442021F4407122F48032C9F84420C9F869
:101FA0004410B0F5807F0FD1FFF7EEFC074641F2F9
:101FB000893500BFD9F84400800705D4FFF7E4FC59
:101FC000C01BA842F6D3032686B1B0462078C007CE
:101FD00041D0A06F4FEAF000052823D8DFE800F0D9
:101FE00003262B03030376B3B04634E04FF6CF73DA
:101FF000D4F8B00059F81C2CC0F2FF0300F4407173
:1020000022F47C5203EA1013B1F5407F08BF1A4353
:102010006FF31F3049F81C2CD9F844100843C9F855
:102020004400D3E70126002EDED10CE0201D012163
:1020300002F04AFB04E004F12400012102F0D4FB89
:102040000646002ED0D1D9F82800A16F20F0380024
:102050000843C9F828002078800723D5606F052839
:1020600007D8DFE800F0030A0F03030396B1B04678
:1020700018E00126002EFAD10CE0201D012102F00B
:1020800023FB04E004F12400012102F0ADFB06462D
:10209000002EECD1D9F82800616F20F0070008432A
:1020A000C9F828002078400725D5D4F890000528E5
:1020B00007D8DFE800F0030A0F03030396B1B04628
:1020C00019E00126002EFAD10CE0201D012102F0BA
:1020D000FBFA04E004F12400012102F085FB06462E
:1020E000002EECD1D9F82C00D4F8901020F0070085
:1020F0000843C9F82C002078800627D5D4F88C0036
:102100004FEA3070052807D8DFE800F0030A0F0314
:10211000030396B1B04619E00126002EFAD10CE077
:10212000201D002102F0D0FA04E004F12400022175
:1021300002F05AFB0646002EECD1D9F82800D4F85C
:102140008C1020F0E0400843C9F8280020784006B1
:1021500027D5D4F898004FEAB020052807D8DFE843
:1021600000F0030A0F03030396B1B04619E00126FD
:10217000002EFAD10CE0201D002102F0A5FA04E0A7
:1021800004F12400022102F02FFB0646002EECD1C0
:10219000D9F82C00D4F8981020F4E0500843C9F87E
:1021A0002C002078000627D5D4F89C004FEA703028
:1021B000052807D8DFE800F0030A0F03030396B1F0
:1021C000B04619E00126002EFAD10CE0201D0021B6
:1021D00002F07AFA04E004F12400022102F004FB88
:1021E0000646002EECD1D9F82C00D4F89C1020F42F
:1021F00060400843C9F82C002078000716D5D4F8B1
:102200008000B0F5805F08D104F12400022102F0C3
:10221000EBFA002818BF4FF00108D9F82800D4F8CD
:10222000801020F440500843C9F828002078C006E8
:1022300016D5D4F89400B0F5807F08D104F12400BD
:10224000022102F0D1FA002818BF4FF00108D9F896
:102250002C00D4F8941020F440700843C9F82C00E6
:10226000A078000721D5D4F8A000B0F5003F19D020
:10227000B0F5803F10D0C0BB201D002102F024FA31
:1022800006468EB9D9F82C00D4F8A01020F44030BE
:102290000843C9F82C0008E004F12400022102F0F0
:1022A000A3FA0646002EEDD0B046A078400729D507
:1022B000D4F88400B0F5401F21D0B0F5001F18D02D
:1022C000B0F5801F40F0C180D9F8000040F4003024
:1022D000C9F80000AEB9D9F82800D4F8841020F469
:1022E00040100843C9F828000CE00126002EDBD17D
:1022F000C8E704F12400012102F076FA0646002E18
:10230000E9D0B046A078C0071FD0E06CB0F5803FA0
:1023100010D0B0B9D9F8000040F40030C9F800007E
:1023200096B9D9F82000E16C20F480300843C9F850
:1023300020000AE0201D022102F0C6F906461EB95F
:10234000EFE70126002EECD0B046E078800608D5F5
:1023500004F12400022102F047FA002818BF4FF0D0
:102360000108206881031ED4C10234D4C1003CD4CA
:10237000810245D441004DD4B0F1FF3F5ADD000247
:1023800008D5D9F82800D4F8881020F44000084374
:10239000C9F82800B8F1000F18BF4FF001084046F7
:1023A00001B0BDE8F083E16F6FF0010202EB312272
:1023B000022A0AD34FEA31223AB1012A4AD1D9F886
:1023C000002042F40032C9F80020002E45D04FF022
:1023D0000108C102CAD5D9F82410226F21F00041AA
:1023E0001143C9F82410C100C2D559F81C1CD4F8F7
:1023F000B42021F48041114349F81C1C8102B9D555
:10240000D9F82410A26E21F080711143C9F824106C
:102410004100B1D559F81C1C21F4004149F81C1C9D
:10242000D4F8B81059F81C2C114349F81C1CB0F111
:10243000FF3FA4DCD9F82010226D21F04051114358
:10244000C9F820100002A5D59BE70126002E7FF4D5
:1024500058AF40E70126002EB9D1D9F8282022F440
:1024600040721143C9F82810C1027FF57FAFB2E76F
:102470002DE9F04381B0002800F0F48042F200081A
:102480000446C5F200288946D8F8000000F00F0085
:1024900088420ED2D8F8000020F00F0040EA090070
:1024A000C8F80000D8F8000000F00F00484540F0E0
:1024B000D980206844F218474107C5F602070AD5BB
:1024C00021693A6802F07002914204D93A6822F018
:1024D00070021143396001070AD561697A6802F018
:1024E0007002914204D97A6822F070021143796037
:1024F000C1060AD5A1697A6802F4E062914204D962
:102500007A6822F4E0621143796081060AD5E169B4
:10251000BA6802F07002914204D9BA6822F07002DF
:102520001143B96081070AD5E1683A6802F00F02E9
:10253000914204D93A6822F00F0211433960C00772
:102540007ED1206881070AD5E1683A6802F00F025F
:10255000914204D23A6822F00F0211433960D8F850
:10256000001001F00F0149450DD9D8F8001021F0F5
:102570000F0141EA0901C8F80010D8F8001001F075
:102580000F0149456ED141070AD521693A6802F029
:102590007002914204D23A6822F07002114339600D
:1025A00001070AD561697A6802F07002914204D28B
:1025B0007A6822F0700211437960C1060AD5A169D8
:1025C0007A6802F4E062914204D27A6822F4E0620E
:1025D0001143796080060AD5E069B96801F070019D
:1025E000884204D2B96821F070010843B86000F055
:1025F0006BF8396845F61C12C0F600023B68C1F35F
:10260000032103F00F03515CD25C01F01F01C840AD
:1026100002F01F0140F2040220FA01F1C2F200426E
:10262000116040F2000140F20C02C2F20041C2F21D
:10263000004208601068FFF7F3F901B0BDE8F083CD
:10264000386820F47061D4E90102012841EA0201EE
:1026500039600BD003282BD002282ED157F8181C34
:10266000890307D4012001B0BDE8F08357F8181C96
:10267000C905F7D557F8081C21F00701084347F8AA
:10268000080CFFF781F9064641F2883557F8080C27
:10269000616800F03800B0EBC10F3FF452AFFFF7B4
:1026A00073F9801BA842F1D9032001B0BDE8F08383
:1026B00057F8181C8901D5D5DCE757F8181C4907CD
:1026C000D0D5D7E70000000044F20041C5F6020172
:1026D0000869C0F3C20003280FD002282AD070BBBB
:1026E0000868800649F20000C0F2D03058BF704739
:1026F0000968C1F3C101C84070478A6A886AC0F39B
:10270000051CC86ABCF1000F4B6B1DD0C3F3CC0392
:1027100000F00100584302F00302022A00EE100A02
:10272000B8EE400A12D0A2B90868800614D49FED12
:10273000261A1EE043F20060C0F26E10704740F6A9
:102740000010C0F23D007047002070479FED1D1A39
:102750000FE09FED1B1A0CE0086849F20002C0F27E
:10276000D032C0F3C10022FA00F001EE100AB8EE38
:10277000411A086B9FED153A6FF35F2002EE100AC5
:10278000086BC0F34620B8EE422A013000EE032A5F
:1027900000EE10CAB7EE003AB8EE400A81EE000A29
:1027A00032EE031A20EE010A01EE100AB8EE411AC9
:1027B00080EE010ABCEEC00A10EE100A704700BF9E
:1027C0000024744A001BB74B0024744C00000039ED
:1027D0002DE9F04381B0F8B18046007844F2004919
:1027E000C007C5F602095AD0D9F8100000F0380128
:1027F000D9F82800102905D018290FD100F00300BE
:1028000002280BD1D9F80000800344D5D8F8040081
:10281000002840D101272FE001271BE2D8F804400F
:102820002CB1B4F5A02F0DD0B4F5803F10D0D9F85D
:10283000000020F48030C9F80000D9F8000020F42E
:10284000802009E0D9F8000040F48020C9F8000099
:10285000D9F8000040F48030C9F80000FFF794F880
:102860000546A4B1D9F80000800314D4FFF78CF812
:10287000401B6428F6D903270020002800F0EA81D5
:102880000DE000BFFFF780F8401B6428F3D8D9F8AB
:1028900000008003F6D40120002800F0DB8198F8C6
:1028A000000080076BD5D9F8100010F03801D9F876
:1028B00028001CD0182908BF5FEA807017D0D8F80C
:1028C0000C00D9F8001098B321F019010843C9F899
:1028D0000000FFF759F80546D9F8000040070DD46D
:1028E000FFF752F8401B0228F6D9032743E0D9F836
:1028F0000000400702D5D8F80C00D8B3FFF73CF829
:1029000041F2030188420AD8D8F81000D9F804101F
:10291000402821F47C3124D141F4003023E0D9F85F
:102920000400D8F8101020F0FE4040EA01601AE0E0
:1029300021F00100C9F80000FFF726F8054601263E
:10294000D9F8000010F0040086EA90040ED0FFF7DA
:102950001BF8401B0328F3D30327002C00F07A81D7
:102960000DE041EA0030C9F804000124002C00F019
:10297000718104E001270024002C00F06B8198F89D
:102980000000C00675D5D9F8100000F03801D9F85C
:102990002800082905D018291CD100F003000128BF
:1029A00018D1D9F80000C00503D5D8F81C0080283C
:1029B0005AD1FEF7E1FF41F20301884223D8D8F84B
:1029C0002000D9F80410202821F0F84143D141F02B
:1029D000804042E0D8F81C000028D9F8000021D03F
:1029E00040F08000C9F80000FEF7CEFF054600BFAA
:1029F000D9F80000C005DCD4FEF7C6FF401B022852
:102A0000F6D9032731E0D9F80C00D8F8201020F0CF
:102A10007C50012440EA0160C9F80C00002C00F051
:102A2000198126E020F08000C9F80000FEF7ACFF15
:102A300005460126D9F8000010F4807086EA1024BB
:102A40000ED0FEF7A1FF401B0328F3D30327002C71
:102A500000F000810DE041EA8060C9F80400012423
:102A6000002C00F0F78004E001270024002C00F087
:102A7000F18098F8000000071CD498F80000800648
:102A800031D498F80000400745D4D8F82440002CF1
:102A900000F0DF80D9F8100000F03800182840F06E
:102AA0008880012CD9F82810D9F8300040F0A28095
:102AB0000127CFE0D8F814000028D9F874003ED0E0
:102AC00040F00100C9F87400FEF75EFF054600BF44
:102AD000D9F874008007D0D4FEF756FF401B0228B7
:102AE000F6D90327B6E0D8F818000028D9F8000076
:102AF0004BD040F48050C9F80000FEF745FF054672
:102B0000D9F800008004BCD4FEF73EFF401B022829
:102B1000F6D903279EE0D9F8000440F48070C9F884
:102B20000004FEF731FF0546D9F80004C0051AD4A9
:102B3000FEF72AFF401B6428F6D903278AE020F01D
:102B40000100C9F87400FEF71FFF0546032700BF08
:102B5000D9F8740080077FF590AFFEF715FF401B92
:102B60000228F5D976E0D8F808401CB1052C75D0BC
:102B7000012C79D0D9F8700020F00100C9F870005C
:102B8000D9F8700020F0040072E020F48050C9F8F9
:102B90000000FEF7F9FE0546032700BFD9F8000044
:102BA00080047FF56EAFFEF7EFFE401B0228F5D9DB
:102BB00050E0D9F8000020F08070C9F80000FEF75E
:102BC000E3FE022C05464FF0030709D1D9F80000B7
:102BD00080016FD5FEF7D8FE401B0228F6D939E0F8
:102BE000D9F80000800134D5FEF7CEFE401B022844
:102BF000F6D92FE001F00302D8F828309A4240F0CD
:102C0000D380C1F30511D8F82C20914240F0CE803A
:102C10000146D8F830206FF35F21013A914240F02D
:102C2000C780C0F34622D8F8341001398A4240F0F8
:102C3000C180C0F30642D8F8381001398A4240F00A
:102C4000BB80C0F30660D8F83C100139884240F0E0
:102C5000B5800027F8B201B0BDE8F083D9F8700064
:102C600040F00400C9F87000D9F8700040F001008D
:102C7000C9F87000FEF788FE002C054641F2883442
:102C80004FF0030711D000BFD9F8700080073FF55F
:102C9000FCAEFEF779FE401BA042F5D9DAE700BF93
:102CA000FEF772FE401BA042D4D8D9F8700080070E
:102CB000F6D4EAE608F12807D9F8280040F2F33103
:102CC00088438ECF0843591E40EA02104FF47E42DB
:102CD0006FF35F21C9F8280002EB47204FF4FE0292
:102CE00080B2D8F83C300844D8F8381002EB0141E3
:102CF0004FF0FE4201F4FE0102EB0362084402F0D1
:102D0000FE410844C9F83000D9F82C004FF6F8719C
:102D100020F00100C9F82C00D9F83400D8F8482078
:102D2000884340EAC200C9F83400D9F82C00D8F82A
:102D3000401020F00C000843C9F82C00D9F82C00F2
:102D4000D8F8441020F002000843C9F82C00D9F844
:102D50002C0040F48030C9F82C00D9F82C0040F445
:102D60000030C9F82C00D9F82C0040F48020C9F8B4
:102D70002C00D9F82C0040F00100C9F82C00D9F83B
:102D8000000040F08070C9F80000FEF7FDFD044629
:102D90000327D9F8000080013FF55BAFFEF7F4FD93
:102DA000001B0228F5D955E7012753E7012751E712
:102DB00001274FE701274DE701274BE7012749E7A7
:102DC0002DE9F041002800F0A080044643F60006FB
:102DD000C4F2000643F20007256843F60048B542F6
:102DE000C4F20107C4F200084FF00000A06204D052
:102DF000454518BFBD4240F08480204601F0ECFDFF
:102E0000B54218BFBD426FD110287ED894F881001A
:102E100028B9002084F88000204600F079F80220CC
:102E200084F881002068A1690268B1F1806F22F006
:102E3000010202600FD162682AB1B2F5800F0AD197
:102E4000A36B23B13AB9A26BB2F1805F03D10268E0
:102E500042F480520260E269A36A1A43E36B1343AF
:102E6000D4E90365D4E9012733438360636B666A61
:102E700041EA0301A36B41EA060141EA03016369E8
:102E800041EA0501266A41EA0301E36C41EA0601D1
:102E9000A66C41EA020141EA0301A36D41EA070180
:102EA00041EA060141EA0301C1604AB98168012390
:102EB00063F3CC2181608168022363F34A2181603E
:102EC000016D520221F00101016505D5C168626DF5
:102ED00021F000411143C1600020C4F884000121A9
:102EE00084F88110BDE8F081454518BF08280CD84A
:102EF000B54218BFBD423FF487AF45453FF484AFAC
:102F000084E7E0680F287FF678AF0120BDE8F08104
:102F1000B0B5B6B0044602A8BC210025CDE93455B1
:102F2000CDE932553195FDF79FFA43F6000120684F
:102F3000C4F20001884201D036B0B0BD4FF48050D9
:102F4000029002240394282104910421CDE9051460
:102F50000794C021CDE90815199002A80A95FEF73B
:102F6000D7FD08B1FEF75CFB44F2E040C5F6020075
:102F7000816841F480418160816801F48041019160
:102F80000199016841F002010160006831A900F077
:102F90000200019001984FF46040CDE93104002017
:102FA000CDE933000520359040F20040C5F602001F
:102FB000FEF7FEFB36B0B0BD2DE9F04782B0044607
:102FC0004068B0F5800F1D4617460E46D4F80090B5
:102FD00001D1A068F0B194F88000012816D001203A
:102FE00084F88000FEF7D0FC94F8811001290AD102
:102FF000002E18BF002F1AD1002084F88000012075
:1030000002B0BDE8F087002084F88000022002B002
:10301000BDE8F087042084F881002046314632461E
:103020003B46009500F01CFA02B0BDE8F0878046F0
:10303000042084F881000020C4F884006666A4F8A7
:103040006870A4F86A70E065A4F86000A4F86200F3
:10305000A1682067B1F5C02F606704D120680168BE
:1030600021F400610160D4E900014FF6FF73B1F56E
:10307000800F426822EA03023A444260026842F04A
:103080000101016003D1016841F400710160E16850
:10309000102925D3B4F86A00002800F0A58048F272
:1030A00008066F1C0FE000BF006B616E41F8040B57
:1030B0006166B4F86A000138A4F86A00B4F86A00DE
:1030C000002800F09180206841693142ECD1FEF780
:1030D0005BFC002FF2D0A0EB0800A842EED333E057
:1030E000B4F86A00072941D900287DD04FF6FE7058
:1030F0006E1C471C11E0B9F83000616E0880022098
:103100003946626E10446066B4F86A000844A4F858
:103110006A00B4F86A00002866D02068416911F49A
:10312000604F09D041690904E5D5006B616E086004
:1031300004204FF6FE71E4E7FEF726FC002EE8D0EF
:10314000A0EB0800A842E4D3204601F0E9FB0020F0
:1031500084F88000D4F8840040F48070C4F88400BF
:10316000012084F8810002B0BDE8F087E0B34FF69B
:10317000FE706E1C00F1010A871E0FE0006B616E8D
:10318000086004203946626E10446066B4F86A0034
:103190000844A4F86A00B4F86A0028B320684169BA
:1031A00011F4604F10D041690904E7D4416901F47A
:1031B000C041B1F5005F10D9B9F83000616E0880E8
:1031C00002204FF6FE71DEE7FEF7DEFB002EE2D0B6
:1031D000A0EB0800A842DED3B6E790F83000616E9D
:1031E000087001205146CEE7204601F099FB0020EF
:1031F00084F88000012084F88100D4F8840000283D
:1032000018BF012002B0BDE8F087000000000000F8
:103210002DE9F047044690F88000012802D10220F1
:10322000BDE8F0871D4617460E46D4F800900120F1
:1032300084F88000FEF7A8FB94F88110012909D1D9
:10324000002E18BF002F0BD1002084F88000012031
:10325000BDE8F087002084F880000220BDE8F087F8
:103260008046032084F881000020C4F88400E665CD
:10327000A4F86070A4F862706066A4F86800A4F80E
:103280006A00A1682067B1F5C02F606704D120688B
:10329000016841F400610160D4E900014FF6FF7359
:1032A000B1F5800F426822EA03023A4442600268A4
:1032B00042F00101016003D1016841F40071016035
:1032C000E168102932D3B4F86200002800F0A98028
:1032D0006E1C0EE0E16D51F8042B0262E165B4F85A
:1032E00062000138A4F86200B4F86200002800F01F
:1032F0009880206841698907ECD4FEF745FB002ED1
:10330000F2D0A0EB0800A842EED3204601F008FB63
:10331000002084F88000D4F8840040F48070C4F861
:103320008400012084F88100BDE8F087B4F86200D1
:10333000072933D9002874D04FF6FE706E1C471C45
:1033400011E0E06D39460088A9F820000220E26D06
:103350001044E065B4F862000844A4F86200B4F8D0
:10336000620000285DD020684169890708D4FEF713
:103370000BFB002EF3D0A0EB0800A842EFD3C4E76C
:10338000B4F862100229DCD3E16B0029D9D0E16DD9
:103390000968016204204FF6FE71D8E7002840D08A
:1033A0004FF6FE706E1CA0F1020A471C10E0E16DA2
:1033B000097880F8201001203946E26D1044E0655C
:1033C000B4F862000844A4F86200B4F8620040B3A4
:1033D00020684169890708D4FEF7D6FA002EF4D098
:1033E000A0EB0800A842F0D38FE7B4F862100429DC
:1033F00008D3E16B412905D3E16D0968016204201E
:103400005146DAE7B4F862100229D0D3E16B002903
:10341000CDD0E06D4FF6FE710088A9F820000220A3
:10342000CBE7204641462A4601F0E2FA28B1D4F81B
:10343000840040F02000C4F88400204601F070FAB7
:10344000002084F88000012084F88100D4F88400F2
:10345000002818BF0120BDE8F08700000000000030
:103460002DE9F04F81B0044690F88000012827D064
:103470009B4615460E46D4F80090012084F8800043
:10348000FEF782FA94F88110804601290CD126B10A
:10349000002D18BFBBF1000F16D1002084F880006A
:1034A000012001B0BDE8F08F6068B0F5800F04D155
:1034B000042902D1A0680028E9D0002084F8800007
:1034C000022001B0BDE8F08F94F88100042802D0FA
:1034D000052084F881000021C4F8841065664FF649
:1034E000FF73A4F86AB0A4F868B0E665A4F862B007
:1034F0002068A4F860B02167616761684268B1F52F
:10350000800F22EA03025A444260026842F001013D
:10351000016003D1016841F400710160E0680A991B
:10352000102837D348F208058A464E1C5F4600BF74
:1035300057EA0B0000F00A812068BBF1000F4169D7
:1035400018BF11F002010BD0E16D51F8042B02629B
:10355000E165B4F862100139A4F86210B4F862B001
:103560004169294218BF002F0BD0006B616E41F8F2
:10357000040B6166B4F86A000138A4F86A00B4F874
:103580006A70FEF701FA002ED2D0A0EB0800504579
:10359000CED3C9E007284FF6FE708A4601F1010537
:1035A00053D9471C5E4600BF56EA0B0000F0CE80A0
:1035B0002068BBF1000F416918BF11F002011BD058
:1035C000BBF1010F08D0E16B31B1E16D4FF6FE7236
:1035D00009680162042105E0E16D3A460988A9F80D
:1035E00020100221E36D1944E165B4F86210114422
:1035F000A4F86210B4F862B0416911F4604F18BFCA
:10360000002E19D04169090406D4B9F83000616E62
:1036100008800220394605E0006B616E08600420D6
:103620004FF6FE71626E10446066B4F86A0008449A
:10363000A4F86A00B4F86A60FEF7A6F9002DB3D0CA
:10364000A0EB08005045AFD36EE0471C5E46023841
:10365000009000BF56EA0B0078D02068BBF1000F45
:10366000416918BF11F0020128D0BBF1040F08D343
:10367000E16B412905D3E16D0968016204200099DD
:1036800012E0BBF1020F09D3E16B39B1E06D4FF6E7
:10369000FE710088A9F82000022005E0E16D09789C
:1036A00080F8201001203946E26D1044E065B4F83E
:1036B00062000844A4F86200B4F862B0206841696E
:1036C00011F4604F18BF002E26D0416909040DD4B3
:1036D000416901F4C041B1F5005F0DD9B9F830007E
:1036E000616E088002204FF6FE710BE0006B616E88
:1036F00008600420009905E090F83000616E0870C1
:1037000001203946626E10446066B4F86A000844CD
:10371000A4F86A00B4F86A60FEF736F9002D99D073
:10372000A0EB0800504595D3204601F0F9F80020A1
:1037300084F88000D4F8840040F48070C4F88400D9
:10374000012084F8810001B0BDE8F08F2046414699
:10375000524601F04DF928B1D4F8840040F0200021
:10376000C4F88400204601F0DBF8002084F88000D3
:10377000012084F88100D4F88400002818BF0120BB
:1037800001B0BDE8F08F000080B501F071F980BD97
:10379000B0B590F83C20012A4FF0020251D001232D
:1037A00080F83C3080F83D2040F2004C0268C4F2C2
:1037B000010C42F4806363455368D2F808E002BF0D
:1037C00023F470034C68234340F6FF340D68C4F2C1
:1037D000000423F07003A24243EA050353600EDDA8
:1037E0004FF6FF73C4F200039A4218DC40F6004320
:1037F000C4F200039A4219D041F600030AE0B2F184
:10380000804F13D040F20043C4F200039A420DD01F
:1038100040F60003C4F200039A4207D00BE0624571
:1038200004D00023C4F201039A4204D12EF0800395
:103830008968194391600022012180F83D1080F8C9
:103840003C201046B0BD000060B310B5044690F8AF
:103850003D0028B9002084F83C00204600F024F800
:10386000022084F83D002068211D01F0F5F90120B7
:1038700084F8480084F83E0084F83F0084F8400053
:1038800084F8410084F8420084F8430084F844003E
:1038900084F8450084F8460084F8470084F83D0029
:1038A000002010BD0120704781B000210068C4F2E3
:1038B0000101884201D001B0704744F2F040C5F6E2
:1038C0000200016841F001010160006800F00100A0
:1038D0000090009801B0704710B5044690F83C0085
:1038E00001284FF0020008BF10BD0B46012184F8EB
:1038F0003C10882284F83D00CFF6CE7220688168A3
:103900001140816019686F290EDC2F2919DD4F29BC
:1039100027DC302959D0402959D15968DA6801F09B
:1039200053FA2068402150E0B1F1101F10DB2F2224
:10393000C0F2100291421FDCB1F1101F45D02022CD
:1039400020E0002918BF10293FD020293DD03EE0BB
:1039500070291ED0B1F5005F26D0B1F5801F34D09C
:1039600035E050292BD0602931D15968DA6801F04F
:103970003FFA2068602128E03022C0F21002914214
:1039800023D04022C0F21002914208BF01F010FA89
:103990001DE0D3E90121DB6801F0FEF920688168B0
:1039A00041F07701816012E0D3E90121DB6801F089
:1039B000F3F92068816841F48041816007E059682B
:1039C000DA6801F001FA2068502101F0F1F90120D4
:1039D00084F83D00002084F83C0010BD0000000089
:1039E000FEE700000000000080B5FDF715FE80BD79
:1039F000F0B581B007462A201C4615460E4600F059
:103A00008FF9781C80B200F03FF9681C80B200F09A
:103A10003BF92B2000F084F906F11A0080B200F087
:103A200033F904F11A0080B200F02EF92C2000F0D6
:103A300077F901B0F0BD0000B0B5044600200021C8
:103A40009F224F230025FFF7D3FF00BF60194FF4DB
:103A5000A07100F041F905F5A075B5F5C84FF5D195
:103A6000B0BD00000000000080B57820FDF78CFE9E
:103A7000112000F055F97820FDF786FEB12000F006
:103A80004FF9052000F024F93C2000F021F93C20FA
:103A900000F01EF9B22000F043F9052000F018F9FB
:103AA0003C2000F015F93C2000F012F9B32000F0A2
:103AB00037F9052000F00CF93C2000F009F93C2012
:103AC00000F006F9052000F003F93C2000F000F9B1
:103AD0003C2000F0FDF8B42000F022F9032000F0B3
:103AE000F7F8C02000F01CF9AB2000F0F1F80B2033
:103AF00000F0EEF8042000F0EBF8C12000F010F91F
:103B0000C52000F0E5F8C22000F00AF90D2000F011
:103B1000DFF8002000F0DCF8C32000F001F98D2070
:103B200000F0D6F86A2000F0D3F8C42000F0F8F8CE
:103B30008D2000F0CDF8EE2000F0CAF8C52000F08E
:103B4000EFF80F2000F0C4F8E02000F0E9F80720BB
:103B500000F0BEF80E2000F0BBF8082000F0B8F826
:103B6000072000F0B5F8102000F0B2F8072000F0B0
:103B7000AFF8022000F0ACF8072000F0A9F8092007
:103B800000F0A6F80F2000F0A3F8252000F0A0F820
:103B9000362000F09DF8002000F09AF8082000F090
:103BA00097F8042000F094F8102000F091F8E1203C
:103BB00000F0B6F80A2000F08BF80D2000F088F82D
:103BC000082000F085F8072000F082F80F2000F0B0
:103BD0007FF8072000F07CF8022000F079F8072039
:103BE00000F076F8092000F073F80F2000F070F86C
:103BF000252000F06DF8352000F06AF8002000F074
:103C000067F8092000F064F8042000F061F8102043
:103C100000F05EF8FC2000F083F8802000F058F8F7
:103C20003A2000F07DF8052000F052F8362000F030
:103C300077F8A82000F04CF8212000F071F8292036
:103C400000F06EF82A2000F06BF8002000F040F839
:103C50001A2000F03DF8002000F03AF8692000F04A
:103C600037F82B2000F05CF8002000F031F801203C
:103C700000F02EF8002000F02BF8A02000F028F82B
:103C80002C2000F04DF880BD10B582B040BA40F64F
:103C90000044C5F60204ADF806004FF400610022AE
:103CA0002046FDF761FE46F6B0200DF10601C2F296
:103CB000004002224FF48073FFF7AAFA4FF400612C
:103CC00001222046FDF750FE02B010BD00000000AA
:103CD00080B500F03DF880BD70B540F600460C465A
:103CE000C5F6020605464FF4806101223046FDF715
:103CF0003BFE4FF4006100223046FDF735FE46F6EC
:103D0000B0204FF48073C2F2004029462246FFF7EC
:103D10007FFA4FF4006101223046FDF725FE70BDA9
:103D2000B0B540F600450446C5F602054FF4806183
:103D300000222846FDF718FE204600F009F84FF44F
:103D4000806101222846FDF70FFEB0BD0000000093
:103D500010B582B040F600448DF80700C5F60204A5
:103D60004FF4006100222046FDF7FEFD46F6B0202C
:103D70000DF10701C2F2004001224FF48073FFF7FA
:103D800047FA4FF4006101222046FDF7EDFD02B035
:103D900010BD0000000000002DE9F04186B044F2A3
:103DA000E0400026C5F602000596CDE90366CDE9A0
:103DB0000166016840F6004441F0100101600168AD
:103DC000C5F6020401F0100100910099016841F06C
:103DD00080010160016804F5806501F080010091B7
:103DE0000099016841F0020101600168002201F0C0
:103DF000020100910099016841F008010160016829
:103E0000042701F0080100910099016841F00101C7
:103E100001600068042100F001000090009828462D
:103E2000FDF7A2FD4FF43051002220464FF43058E8
:103E3000FDF79AFD01970127CDE90276049601AEC0
:103E400028463146FDF7B4FCCDE9018703200490F4
:103E5000204631460397FDF7ABFC06B0BDE8F08184
:103E600010B546F6B02443F60000C2F20044C4F296
:103E70000000072120604FF4800060600020A060F7
:103E8000E1604FF0007121614FF0807161614FF08E
:103E90008061A1614FF08051C4E90710C4E90900B5
:103EA000E0624FF08040606304F138002421FCF7A9
:103EB000DBFA2046FEF784FF002808BF10BDFDF79F
:103EC000AFFB10BD0000000080B588B046F638306A
:103ED0000022C2F2004000210791C4F20102CDE9A4
:103EE0000511CDE90311CDE90111C0E9002181607F
:103EF00040F22B12C0E90321C0E90511FFF7A4FC31
:103F000008B1FDF78DFB4FF48050049046F6383031
:103F100004A9C2F20040FFF7DFFC08B1FDF780FB07
:103F2000002001A9CDE90100039046F63830C2F225
:103F30000040FFF72DFC08B1FDF772FB08B080BD13
:103F4000FEE7000000000000FEE7000000000000A7
:103F500000F007004FF0FF3C80F00703042B28BF60
:103F60000423033838BF00200CFA03F399430CFAFA
:103F700000F301FA00F022EA030108437047000051
:103F800010B5044600200021A022502300F0CCF8F8
:103F90002046FDF701FB002000F002F810BD0000F4
:103FA00080B5024646F27040C2F200404FF4C8614C
:103FB000FCF752FA80BD0000F0B581B00C46054612
:103FC0001718FDF7D1FBA02F25EAE575A8BFA0279C
:103FD000BD4209DA064600BF28462146324600F0B7
:103FE00023FD0135AF42F7D101B0F0BD0000000064
:103FF000F0B581B00D4604465718FDF7B5FB502FBC
:1040000025EAE575A8BF5027BD4209DA064600BF7C
:1040100020462946324600F007FD0135AF42F7D170
:1040200001B0F0BD0000000070B582B0064650003F
:10403000013014460D46891AC2B23046FFF7D8FF48
:10404000E2B20323002000903046294600F004F835
:1040500002B070BD000000002DE9F04F85B0984619
:104060001446CDE90201FDF77FFB002C57D0002755
:104070000E98A7EB4402C4F1010A08F00101019176
:1040800008F0020100F103094FF0010B4FF0FF3877
:10409000009105E0A74209F10209A8F101083EDA02
:1040A000901C0BF1020BBAF1FF3F6FEAEA71C8BF37
:1040B0000246BAF1FF3FDA44C8BF824401980C447B
:1040C000049298B16100029D4A1C0E9BE819039E60
:1040D0001A440130D2B2311BFFF78AFF601906EB98
:1040E00008015FFA89F2FFF783FF049A009801370D
:1040F0000028CFD061000E9B4A1C029D039E1A44EB
:1041000005EB0800311BD2B2FFF772FF281B06EB4C
:1041100008015FFA89F2FFF76BFF049ABAE705B06E
:10412000BDE8F08F00000000F0B581B01C461546D8
:104130000E46074600F074FA781C711C6A1E631E56
:10414000FDF78EFA01B0F0BD2DE9F04381B0DDF846
:104150002090174609EB00080446A2EB49024046AE
:104160001E460D46FFF7E0FF38196FEA09010844C3
:104170006FEA490109EB05048D19012321464A46DE
:104180000095FFF769FF0223404621464A46009505
:10419000FFF762FF01B0BDE8F083000000000000FF
:1041A0002DE9F04F87B01F4691460E460546119CFB
:1041B000FDF7DAFA8046FDF7DFFA00F055FABE4265
:1041C00002DD3046294603E0384649463746A946CF
:1041D000A042109D40F3848003460E46A74200F3A0
:1041E0008680A4462A463C464D46A34200F0848081
:1041F000B3EB0C011846CDF81080A6EB050718BFED
:104200004FF0FF316345A3EB040B18BFACF1010085
:1042100006928442204630DC501B05900CEB0100D6
:10422000ACEB0409CDE901366FEA000A0394661E7F
:1042300000244FF00008CDF800C000BF98FBFBF24F
:1042400094FBF9F15319481991421946C4BF01462C
:1042500018460136B844091A0131CAB23146FFF78F
:10426000ABFE0AEB0600013005980444E6D1701C51
:10427000069ADDE90264DDE900C398422ADC011BED
:10428000A6EB020E01FB07F6A0EB0C0101FB0EF9F9
:10429000A3EB0C040594F2466FEA0308441E00BF2A
:1042A0000598013496FBFBF199FBF0F0294410448A
:1042B0000A468842C4BF02460846D1443E44111A09
:1042C0000131CAB22146FFF777FE08EB0400069AD7
:1042D0000130E5D1049800F0C7F907B0BDE8F08FD0
:1042E00023462E4604460D46A7427FF77AAFBC46CA
:1042F0004A46A3427FF47CAF2846AA42C8BF104674
:10430000BCBF2846154601468642C8BF3146AE426C
:10431000BCBF01463546481B21460130C2B2284683
:10432000FFF74AFE07B0BDE8F08F00000000000074
:104330002DE9F04F8BB014461278002A00F0AD80C2
:104340000DF10C088A46074608F1080908F1100526
:1043500000202646002101940DE000BF02990AF1D9
:10436000100A0231019C5F46C8B254FA81F6225C01
:10437000002A00F0928000F1010B0291D0B214F8F3
:104380000B10FDF7D5F9034603285FFA8AF14FF0C9
:10439000900008BF982088423CBF4FF0000A0237C7
:1043A000032B07D8DFE803F002082C5002990131F3
:1043B000DAE700BF0299D7E7307814F80B104246CD
:1043C00000F06EF8FEB2BB465FFA8AF4002700BF29
:1043D00018F80720E119304600F022FD0137102FB0
:1043E000F6D10120002750FA8BF600BFEA5DE119F3
:1043F000304600F015FD0137102FF7D1AEE700BFB2
:10440000307814F80B10424600F04AF8FEB2BB4672
:104410005FFA8AF4002700BF18F80720E119304638
:1044200000F0FEFC0137102FF6D10120002750FAD2
:104430008BF600BFEA5DE119304600F0F1FC013770
:10444000102FF7D18AE700BF307814F80B104246DE
:1044500000F026F8FEB202975FFA8AF4002700BF48
:1044600018F80720E119304600F0DAFC0137082F70
:10447000F6D102980121002751FA80F619F8072099
:10448000E119304600F0CCFC0137082FF6D10AF1D3
:10449000080A5946DDE9014766E70BB0BDE8F08F31
:1044A000F0B581B0013B1446032B4FF0030200929C
:1044B00056D8DFE803F0020C1A245E2210FB02102B
:1044C00044F2A011CFF6F87101EB40100AE05E2231
:1044D00010FB021044F2A011CFF6F87101EB40106E
:1044E00000F58D40010C202511E04BF6C061102530
:1044F000C0F2030101EB001000F56C6006E04BF622
:10450000C0610825C0F2030101EBC000032140F6A1
:1045100000468DF80110C5F60206010A8DF802105A
:104520004FF400518DF8030000223046FDF71CFACD
:1045300046F6B0276946C2F2004704224FF6FF73E1
:104540003846FEF765FE4FF6FF73384621462A4689
:10455000FEF732FD4FF4005101223046FDF704FA18
:1045600001B0F0BD000000002DE9F04F85B0121A37
:104570000446A3EB010017461346064618BF4FF04A
:10458000FF3748BF5342002A0246C8BF0127002810
:104590008B4618BF4FF0FF3648BF424200281046F6
:1045A000C8BF01269342C8BF1846B0F1FF3F049030
:1045B00030DB04984FF000094FF000084FF0000A7C
:1045C000013000900397CDE9016300BFA6B2154604
:1045D0001FFA8BF7FDF7C8F802463046394600F05F
:1045E00023FA2A46039FDDE901639844049D914420
:1045F0000AF1010A1FFA8AF0A845C4BF3C44A8EB9F
:104600000508A945C8BFB344C8BFA9EB0509009D6B
:104610008542DBDA05B0BDE8F08F00000000000045
:10462000F0B581B004461044471E1D4620463A4668
:104630000B460E46FFF798FF70193A46451E204676
:1046400029462B46FFF790FF2046314622462B464F
:10465000FFF78AFF384631463A462B46FFF784FF7C
:1046600001B0F0BD0000000040F20801C2F20041BC
:10467000087070470000000080B500F009F880BDA8
:1046800080B540F27000C2F20040FFF7D5F980BD5E
:1046900080B5FFF7F5FF80BD704700000000000007
:1046A00082B080B582B004920A46059304AB4FF401
:1046B00080710193FBF7B6FE02B0BDE8804002B006
:1046C0007047000000000000F0B581B044F22C47B4
:1046D000C5F6020757F8042C02F00302032A02D1A0
:1046E000012001B0F0BD054657F82C0C0C4620F017
:1046F000806047F82C0CFDF747F9064657F82C0C5C
:10470000000105D5FDF740F9801B0228F6D964E0C9
:1047100057F8040CEE6895E80E0020F47C30012C6C
:1047200040EA0130A2F101016FF35F214FF47E42B4
:1047300002EB432247F8040C92B24FF0FE4302EB27
:1047400001004FF4FE012A6901EB064101F4FE016C
:1047500003EB0262084402F0FE410844F860386846
:10476000696920F0C00040EA010038603868A96932
:1047700020F0200040EA0100386038684FF6F871F8
:1047800020F0100038603869EA6920EA01004FF42F
:10479000001140EAC2003861386808BF4FF4801148
:1047A00040F01000002C386008BF4FF4002138683A
:1047B0000843386057F82C0C40F0806047F82C0C08
:1047C000FDF7E2F8044600BF57F82C0C000107D4AF
:1047D000FDF7DAF8001B0328F6D3032001B0F0BD83
:1047E000002001B0F0BD0000F0B581B044F22C47CC
:1047F000C5F6020757F8042C02F00302032A02D17F
:10480000012001B0F0BD054657F82C0C0C4620F0F5
:10481000805047F82C0CFDF7B7F8064657F82C0CDB
:10482000800005D5FDF7B0F8801B0228F6D964E0BA
:1048300057F8040CEE6895E80E0020F07C70012C0F
:1048400040EA0150A2F101016FF35F214FF47E4273
:1048500002EB432247F8040C92B24FF0FE4302EB06
:1048600001004FF4FE012A6901EB064101F4FE014B
:1048700003EB0262084402F0FE41084478613868A4
:10488000696920F4406040EA010038603868A9692D
:1048900020F4007040EA0100386038684FF6F87183
:1048A00020F480703860B869EA6920EA01004FF0AE
:1048B000807140EAC200B861386808BF4FF4000157
:1048C00040F48070002C386008BF4FF480013868D5
:1048D0000843386057F82C0C40F0805047F82C0CF7
:1048E000FDF752F8044600BF57F82C0C800007D49F
:1048F000FDF74AF8001B0328F6D3032001B0F0BDF2
:10490000002001B0F0BD000000EB800046F27042D4
:10491000C2F2004202EB4010405C70470000000011
:10492000016840F26F32D1F814C08B6943F008037C
:104930008B618B6943F010038B610B6823F00103DB
:104940000B600B6923EA02020A618A6822F4404282
:104950008A6090F881305FEA8C620BD5042B09D015
:10496000D0F8842042F08002C0F884208A6942F0A6
:1049700020028A6190F881305FEA4C620BD5032BEC
:1049800009D0D0F8842042F00402C0F884208A695B
:1049900042F040028A615FEA8C5209D5D0F8842047
:1049A00042F00102C0F884208A6942F400728A61F0
:1049B0005FEACC5209D5D0F8842042F00802C0F852
:1049C00084208A6942F480728A610021A0F8621012
:1049D000A0F86A1070470000C16B0122C06808305F
:1049E00002EB5111C008484370470000000000006E
:1049F000F0B581B014460D460646571C3068406934
:104A0000000709D4FCF7C0FF002FF7D0401BA042DD
:104A1000F4D3032001B0F0BD002001B0F0BD0000D0
:104A200070470000000000009F28D8BF4F2900DD1C
:104A30007047B0B5CB1701F0070E002A01EB537396
:104A40004FEAE30303EB830C46F27043C2F20043E8
:104A500003EB4C154FF0010C0CFA0EF3295C41EA04
:104A6000030408BF21EA03042C54BDE8B04070479A
:104A7000B0B501380024B4EB106F01D00120B0BDF7
:104A80004EF210050F21CEF2000568604FF0FF30A6
:104A900000F0DAF9AC60072028602046B0BD0000C5
:104AA00080B5FCF779FF80BDB0B59CB044F6180422
:104AB00009A84C21C5F60204FBF7D6FC022000250C
:104AC000CDE90755CDE90555CDE90355CDE90155AA
:104AD000FCF7FAFF0095206840F440402060206811
:104AE00000F44040009040F22C40C5F60000016800
:104AF00041F001010160006800F0010000900098A1
:104B000020688004FCD54FF610400222CFF6FF70DB
:104B1000215862F301012150012009904FF48030A7
:104B20000A90CDE9122214925020CDE915020420FA
:104B300018900C20199009A817920024CDE91A4466
:104B4000FDF746FEA8B93F20019003204FF4806195
:104B5000CDE90204082004904020CDE90500CDE90C
:104B6000071001A80421FDF783FC002804BF1CB036
:104B7000B0BDFCF755FD000080B54EF6885C42F2F2
:104B8000000ECEF2000CC5F2002EDCF8001041F44D
:104B90007001CCF80010DEF8001001F00F010629BA
:104BA00006D8DEF80010072262F30301CEF80010E9
:104BB00044F200414EF67F53C5F60201CEF6F623CD
:104BC0000A6842F001020A6000220A61086818407F
:104BD0000860DEF80000000706D5DEF800000723B5
:104BE00063F30300CEF8000040F200208A61CA613E
:104BF000C0F202200A6288620020C0F2FF10C86280
:104C000040F28020C0F2011008634A638863CA63DF
:104C100008644A64086820F48020086041F20000BB
:104C20000A66C5F600400068B2EB507F05D148F235
:104C300008100121C5F20010016044F2000043F2A7
:104C4000D201C5F2002001604FF000604CF8800CEA
:104C500080BD00000000000010B540F6FF32C4F235
:104C60000002904202680FDCB0F1804F1DD040F28C
:104C70000043C4F20003984217D040F60003C4F288
:104C80000003984211D014E040F60043C4F2000340
:104C900098420AD040F20043C4F20103984204D083
:104CA0000023C4F20103984203D122F070024B6842
:104CB0001A434FF6FF7343F6FF7CC4F20003C4F2BD
:104CC000010C984210DD60451ADD44F20003C4F285
:104CD000010398422CD044F60003C4F20103984229
:104CE00026D044F2004312E040F2FF73C4F2000306
:104CF000984211DCB0F1804F1AD040F2004313E02B
:104D00000023C4F20103984212D040F20043C4F2DF
:104D1000010398420CD00FE040F60003C4F20003F8
:104D2000984205D040F60043C4F20003984203D1F4
:104D300022F44072CB681A4322F080024C6960452D
:104D4000D1F800E08B6842EA04020260C362C0F856
:104D500028E00EDD44F20002C4F20102904213D0BA
:104D600044F60002C4F2010290420DD044F2004227
:104D700006E00022C4F20102904205D040F2004257
:104D8000C4F20102904201D109690163012141612C
:104D900010BD000000000000D0F808C011432CF442
:104DA0007F4241EA03211143816070470000000007
:104DB0004FF688738268CFF6CF731A40114341F0E3
:104DC0000701816070470000D0F820C0036A23F01B
:104DD00001030362836923F0F00343EA02122CF01B
:104DE0000A0382611943016270470000000000005D
:104DF000036A23F010030362836923F47043D0F83D
:104E000020C043EA02322CF0A003826143EA011180
:104E10000162704700000000FEE700000000000093
:104E200000EB800046F27043C2F2004303EB4010F7
:104E300042547047000000004EF60C50CEF20000C5
:104E40000068C0F3022070474EF6145300F00F02C2
:104E5000CEF20003B0F1FF3F1A4400F16043C8BF37
:104E600003F5644208011070704700000000000064
:104E70004EF60C514FF6FF03CEF200010A681A40BD
:104E800060F30A2242F0806040F0FD7008607047D5
:104E900088B000204FF6E074CDE90600CDE90400AB
:104EA0000390FCF789FDFFF7FFFDFEF775FFFEF7A6
:104EB000D7FFFFF709F8FEF797FD04F11F0041F255
:104EC000000684B24FF0010B4FF050084FF0780904
:104ED0000FF2F00A03ADC5F6020600BF2046FFF749
:104EE0004FF8002000212CA2FFF722FA0020002119
:104EF0002AA2FFF71DFA0020FCF74EFB002020211C
:104F000020222023FFF78CFB012021211E221E23BB
:104F1000FFF786FB4FF47840FCF73EFB2020202172
:104F20002022202308270097FFF70EF94FF4FC609A
:104F3000FCF732FB502030210F22FFF775F81F20BD
:104F4000FCF72AFB64202021A0222023CDF800902A
:104F5000CDF80480FFF724F94FF6E070FCF71CFB56
:104F6000284651465A460BF10107FFF799FB0820E6
:104F700000212A46FFF7DCF94FF61F00FCF70CFB77
:104F8000FFF77AFB04213046FCF7E6FC4FF4FA7099
:104F9000FCF7FAFBBB46A1E74C0000004C43443150
:104FA00036303830BAACD7D6BFE2C4A3BFE9A3AC21
:104FB000D3C9B5A5C9ABCDBCD0CEBFE2B8C4BDF88E
:104FC000000000006E756D20746573743A202564CE
:104FD000000000005FEA400C08BF91F0000F4FEAAC
:104FE0008C234FEAC12243EA51514FEA1C5018BFAB
:104FF00000F5F0404FEA300018BF41F000415FEA91
:105000006C5C00F02980BCF1FF3F08BF40F080409D
:105010007047130C06BF12044FF0100C4FF0000C39
:10502000130E04BF12020CF1080C130F04BF12017F
:105030000CF1040C930F04BF92000CF1020CD30F7F
:1050400004BF52000CF1010C11464FF00002A0F118
:105050001F00A0EB0C00704711F0004F08BF704715
:1050600031F000413FF4D5AF0B0C06BF09044FF0FF
:10507000100C4FF0000C0B0E04BF09020CF1080CD1
:105080000B0F04BF09010CF1040C8B0F04BF890046
:105090000CF1020CCB0F04BF49000CF1010CCCF158
:1050A000200322FA03F341EA030102FA0CF2A0EB17
:1050B0000C0000F10100704723F07F4720F07F4C87
:1050C00080EA030000F00040ACEB070303F57C53DB
:1050D00003F1FF032DE9804909B44FEA144324EAA0
:1050E00003484FEA154B25EA0B4E0FF2042606EB58
:1050F00013273E7803FB0667C7F5000707FB06F694
:105100004FEAD64606F102064FEA543707FB066C13
:10511000CCF1005C4FEA1C472CEA074C0CFB06F56F
:1051200007FB06F404EB15464FEA961649085FEABA
:10513000320234BF00204FF000404FEAD13706FB67
:1051400007FC4FEA1C4C0CFB0BF7D21B03FB0CF7C4
:1051500061EB07010CFB0EF7B0EB074072EB174257
:105160000CFB08F734BFA2EB0742B2EB074261EB3E
:1051700017414FEA0C444FEA910706FB07FC4FEA40
:105180001C4C0CFB0BF7B0EBC74072EB573203FB28
:105190000CF734BFA2EBC742B2EBC74261EB573109
:1051A0000CFB0EF7B0EBC70072EB57720CFB08F765
:1051B00034BFA2EBC702B2EBC70261EB57714FEAF3
:1051C000816141EA92114FEA826242EA90124FEA0B
:1051D000806004EBCC04039F4FEAD13706FB07FC49
:1051E0004FEA1C4C0CFB0BF7D21B03FB0CF761EBDB
:1051F00007010CFB0EF7B0EB074072EB17420CFBFC
:1052000008F734BFA2EB0742B2EB074261EB17414C
:105210004FEA8C5504EB9C244FEA910706FB07FCF0
:105220004FEA1C4C0CFB0BF7B0EBC74072EB57324C
:1052300003FB0CF734BFA2EBC742B2EBC74261EBF2
:1052400057310CFB0EF7B0EBC70072EB57720CFB3B
:1052500008F734BFA2EBC702B2EBC70261EB57718C
:105260004FEA816141EA92114FEA826242EA90126A
:105270004FEA806015EB4C2544F100044FEAD1372A
:1052800006FB07FC4FEA1C4C0CFB0BF7D21B03FB85
:105290000CF761EB07010CFB0EF7B0EB074072EB6C
:1052A00017420CFB08F734BFA2EB0742B2EB0742F0
:1052B00061EB17414FEA813141EA92414FEA823274
:1052C00042EA90424FEA80304FEA0C7615EB1C150B
:1052D00044F1000448EA03434EEA0B484FF0000E45
:1052E000B2EB080C71EB030724BF624639464EEB64
:1052F0000E0E4FF0000B0018524149414BEB0B0BC7
:10530000B2EB080C71EB03077BF1000B24BF624684
:1053100039464EEB0E0E4FF0000B0018524149413A
:105320004BEB0B0BB2EB080C71EB03077BF1000BA3
:1053300024BF624639464EEB0E0E51EA020718BFF3
:1053400046F0010616EB0E7655F1000254F100010D
:1053500003D5BDE88901BDE80088BDE88901BDE845
:105360000048B619524141EB0101A3F10103704716
:1053700080807F7E7D7C7B7A797877767675747392
:10538000727171706F6E6E6D6C6C6B6A6A69686851
:10539000676666656464636362616160605F5F5EE7
:1053A0005E5D5D5C5C5B5B5A5A595958585757565D
:1053B00056555555545453535252525151505050C2
:1053C0004F4F4F4E4E4D4D4D4C4C4C4B4B4B4A4A14
:1053D0004A49494948484847474747464646454558
:1053E0004544444444434343434242424241414191
:1053F0009C46002B30D477002BD04FEA37071CB5E2
:1054000003B44FF010004FF01001BAF1000F06D0B6
:10541000BCF1000FDCBF40F0080040F008014FF085
:1054200000000FBCBDE810400BF1010BBBF1010FF8
:1054300008BF5FEA170722BF12F1010211F1010153
:105440004FF0004143F1000300F0004043EA000048
:105450007047F9D35708D0E746EA06464FEA1646A2
:1054600013F1400F1FDD13F1200FDFBF16430A4673
:10547000002120335B42BED0C3F1200746EA064636
:105480004FEA164602FA07F746EA070622FA03F23F
:10549000C3F1200701FA07F742EA070221FA03F1F4
:1054A0004FF00003A7E746EA020646EA06464FEA3F
:1054B000164646EA0106BCBF46EA0646360C4FF0E1
:1054C00000034FF000024FF0000194E72DE9804CFB
:1054D00070B49A46934691E8380007C831EA400C08
:1054E00048BF34EA430C03D5FFF7E6FDFFF780FF22
:1054F000F0BCBDE8008C2DE9804C70B49A46934610
:1055000091E8380007C810F0804F08BF13F0804FB3
:1055100003D100F005F8FFF76BFFF0BCBDE8008C8D
:1055200020F07F4723F07F4C80EA030000F000402A
:1055300007EB0C03A3F57C53A3F1FE0392F0000FDD
:1055400000F0B38095F0000F00F077802DE901495D
:105550004FEA114021EA00484FEA144624EA064780
:1055600000FB06FC08FB06F607FB08F818EB0648EC
:105570004CEB164C00FB07F718EB07484CEB1740B9
:105580004FEA124B22EA0B4E4FEA154625EA064730
:105590000BFB06FC0EFB06F607FB0EFE1EEB064E93
:1055A0004CEB164C0BFB07F71EEB074E4CEB174B67
:1055B00018EB0B0840F1000018EB0E0B58EB00083D
:1055C00040F100008F1A4FF000014FF000063CBF81
:1055D000C943661B14BFB5EB040C00213CBFC94393
:1055E000F61B4FEA174427EA04454FEA1C472CEA0A
:1055F000074C04FB076205FB07F70CFB05F616EBEF
:10560000074642EB174204FB0CFC16EB0C4642EB40
:105610001C421BEB060658EB020241414EEA8E0E7D
:1056200046EA9E0601D5BDE80189B619524141EB13
:105630000101A3F10103BDE801894FEA144524EA01
:1056400005464FEA114721EA074C05FB07F406FB24
:1056500007F70CFB06F111EB074144EB174405FB80
:105660000CFC11EB0C4144EB1C444FEA124722EABC
:10567000074C05FB07F206FB07F70CFB06F616EBDB
:10568000074642EB174205FB0CFC16EB0C4642EBBF
:105690001C456A1854F1000148BF7047B6195241C1
:1056A00041EB0101A3F10103704795F0000F37D0E2
:1056B0004FEA114221EA02464FEA144724EA074C16
:1056C00002FB07F106FB07F70CFB06F414EB07449B
:1056D00041EB174102FB0CFC14EB0C4441EB1C4169
:1056E0004FEA154725EA074C02FB07F506FB07F7CB
:1056F0000CFB06F616EB074645EB174502FB0CFCC8
:1057000016EB0C4645EB1C42121951F1000148BF43
:105710007047B619524141EB0101A3F101037047F3
:105720004FEA144524EA05464FEA114721EA074C9F
:1057300005FB07F106FB07F70CFB06F212EB07422D
:1057400041EB174105FB0CFC12EB0C4251EB1C41E9
:105750004FF0000648BF7047921841EB0101A3F1DA
:105760000103704703B401984100009850EAC1203A
:1057700018BF04204A0D18BF40F0010040F2FF722C
:10578000B2EB515F08BF40F00200012808BF0520BE
:1057900002B0704730380A2801D20120704700203B
:1057A0007047000010B500290AD00878002807D0FB
:1057B00005487844FBF7A8FE002801D0002010BD62
:1057C0000248784410BD0000A20100009A010000C8
:1057D00010B500290AD00878002807D00548784479
:1057E000FBF792FE002801D0002010BD024878444B
:1057F00010BD0000920100008A010000F1EE100AC5
:105800004FF6FF71C0F2C03120EA010040F0407055
:10581000E1EE100A7047FBF781BAFBF7B5BB000059
:1058200000000000000000003031323334353637DC
:1058300038394142434445464030580030313233D4
:1058400034353637383961626364656640307800D4
:105850000400000800000000000000020001000039
:10586000103031323334353637383961626364652C
:10587000667870003031323334353637383941424A
:10588000434445465850000002400000000000A07C
:105890000000000005400000000000C800000000FB
:1058A0000C4000000000409C000000001940000077
:1058B0000020BCBE0000000034400000BFC91B8EA9
:1058C00000000004B5400000504BCFD06607E2CF87
:1058D000010000006C4100003E8251AADFEEA734B7
:1058E00001000000D9420000DCB5A0E23A301F9769
:1058F000FFFFFFFFB4450000FD25A0C8E9A3C14F8D
:10590000FFFFFFFFFF3F00000000008000000000DD
:10591000FF3F0000000000800000000000000000C9
:105920000102030401020304060708090103070F2B
:105930001F3F7FFF805A0008000000241000000075
:10594000D4020008905A000810000024787100006A
:10595000F00200081C00000043000000F8FFFFFFF9
:105960000C0000000E0000000F0000002E000000E0
:105970001001000043000000F8FFFFFF004040401E
:105980004040404040404141414141404040404012
:1059900040404040404040404040404040050202BE
:1059A000020202020202020202020202022020207D
:1059B00020202020202020020202020202029090D9
:1059C00090909090101010101010101010101010D7
:1059D000101010101010101002020202020288882B
:1059E0008888888808080808080808080808080837
:1059F000080808080808080802020202400000001F
:105A00000000000000000000000000000000000096
:105A10000000000000000000000000000000000086
:105A20000000000000000000000000000000000076
:105A30000000000000000000000000000000000066
:105A40000000000000000000000000000000000056
:105A50000000000000000000000000000000000046
:105A60000000000000000000000000000000000036
:105A70000000000000000000000000000000000026
:105A80000090D0030090D00301010100100000003D
:040000050800029954
:00000001FF
